:020000040800F2
:100000008812002079C40008C1C20008C3C20008D9
:10001000CBC20008CDC20008CFC20008000000001B
:10002000000000000000000000000000D1C2000835
:10003000D3C2000800000000D5C20008D7C20008E3
:1000400055C5000859C500085DC5000861C5000810
:1000500065C5000869C50008EDC200086DC5000847
:1000600071C5000875C5000879C500087DC5000880
:1000700081C5000885C5000889C500088DC5000830
:1000800091C5000895C5000899C500089DC50008E0
:10009000A1C50008A5C50008A9C50008ADC5000890
:1000A000B1C50008B5C50008B9C50008BDC5000840
:1000B000C1C500080000000000000000C5C5000820
:1000C000C9C500080000000000000000CDC5000800
:1000D00000000000D1C50008D5C5000800000000E0
:1000E000D9C50008DDC500080000000000000000C0
:1000F0000000000000000000000000000000000000
:10010000000000000000000000000000E1C5000841
:100110000000000000000000E5C50008E9C5000877
:10012000EDC50008F1C50008F5C50008F9C50008CF
:10013000FDC50008000000000000000000000000F5
:1001400001C6000805C6000809C60008DFC200088D
:100150000DC6000811C6000815C6000819C600081B
:100160001DC6000821C6000825C6000800000000C2
:1001700029C600082DC6000800000000000000008D
:1001800031C6000835C6000839C600080000000066
:100190000000001000000003FFC000001E00380037
:1001A0000070F0040000C0F801000180F8000003B6
:1001B00000F8000006007F00000C007F800018009F
:1001C000FFE0001800E0F0003000E060003001E0E7
:1001D00000003007E0000060EF80000061FE0000DA
:1001E0000061FE00000061FE00000060EE00000003
:1001F000600F0000007007C000003001E000003018
:1002000000E000003800E000001800F070001C0062
:10021000F5E0000E003FC0000600FF00000701F0FF
:10022000000003C1F8000000E1F001000078600662
:1002300000001F0018000007FFE0000000FE0000A3
:1002400000000000000000000000000000000000AE
:10025000000000000000000000000000000000009E
:10026000000000000000000000000000000000008E
:10027000000000000000000000000000000000007E
:1039C0000000000000000000000000002DE9F04FA2
:1039D0009BB05FF0000800F065FF00F094FD00F080
:1039E0007BFE00F0F0FD00F00FFE00F03FFE00F067
:1039F000D9FE00F0F7FE00F078FF00F097FF01F02D
:103A00000EFA00222021DFF8880D01F0B5FB00201E
:103A100001F00AF8282000902823DFF8A02C0C21C0
:103A2000002001F043F9012000901023DFF8642DFD
:103A30000821322001F0F0F800F0CBFFDFF8C00BD6
:103A400000F0A1FB4FF4FA5001F0F0FB01200090D0
:103A50000C23DFF86C2C1721282001F0DDF8C9A415
:103A600001200090102322002321372001F0D4F8F8
:103A700000F0AFFFDFF88C0B00F000FD0A2001F032
:103A8000D5FB00F0FBF98DF804009DF80400002838
:103A900007D10C23DFF8CC2B2A21192000F092FA51
:103AA000F3E700200100C9B20F290DDADFF8E81CA6
:103AB0000200D2B21144C97A3039DFF8AC2B0300CE
:103AC000DBB2D154401CEDE71023DFF8F82B322194
:103AD000192000F077FADFF8F05B0020287000274B
:103AE0002878002804D0022800F0A48043D300E105
:103AF00000F0F1FE00283DD1012000F0E5FE002895
:103B000038D1DFF8C8AB504600F0E9FE802831D14B
:103B100000208AF80700DFF8B89B4946504601F0BC
:103B200011FC002811D1002080464046C0B2102868
:103B30000BDA4046C0B219F8000030304146C9B235
:103B400009F8010018F10108EFE7DFF8D40C01686B
:103B5000096831F04001006801600C23DFF8742B24
:103B60003721112000F02EFA012028704FF4FA704E
:103B700001F05CFBB3E700F053FA06003000C0B27E
:103B8000FF2853D03000C0B223281AD03000C0B272
:103B90002A2816D0DFF8040C0178491C0170DFF8E0
:103BA000002C16F130010078104400F8011C0120AF
:103BB00000900C2328212D2001F02EF800F009FFA1
:103BC00034E03000C0B22A2823D1DFF8D49BDFF8DC
:103BD000CC1B00200A784A4402F8010C087800281F
:103BE00003D00878401E087001E0002008700C2304
:103BF000DFF8E02A3721112000F0E4F901200090DD
:103C00000C234A4628212D2001F006F800F0E1FEA1
:103C10000CE03000C0B2232808D1022028700C2309
:103C2000DFF8002C3721112000F0CCF96E2001F0D4
:103C3000FDFA54E700F0F4F906003000C0B2FF28A6
:103C400053D03000C0B223281AD03000C0B22A2886
:103C500016D0DFF8D40B0178491C0170DFF8CC2BAB
:103C600016F130010078104400F8011C012000908A
:103C70000C2328212D2000F0CFFF00F0AAFE34E015
:103C80003000C0B22A2823D1DFF8A09BDFF8981BB0
:103C900000200A784A4402F8010C0878002803D072
:103CA0000878401E087001E0002008700C23DFF83F
:103CB000742B3721112000F085F9012000900C238E
:103CC0004A4628212D2000F0A7FF00F082FE0CE0DC
:103CD0003000C0B2232808D1032028701023DFF859
:103CE000502B2D21192000F06DF96E2001F09EFA65
:103CF000F5E63800C0B2052880F2938042F21079D0
:103D00004946DFF8300B00F0D4FA00280CD001202F
:103D10000090102322002821372000F07DFF00F0C2
:103D200058FEA7A000F02FFA7F1C02A8DFF8081B9E
:103D3000642201F0C3FB0A2001F078FADFF8FCBA34
:103D40004FF47A730122DFF8F81A584601F0CFFCDD
:103D50000028F3D002A800F007FA5FF0000A5046EE
:103D6000C0B2102810DA4FF47A730122DFF860092C
:103D70005146C9B20144584601F04CFC1AF1010AFF
:103D8000EDE700BF2E000000DFF8B80A00F0ECF904
:103D9000DFF8980A00F0E8F9DFF8AC0A00F0E4F97F
:103DA000DFF8FC0900F0E0F9DFF8A00A00F0DCF928
:103DB000DFF8B40800F0D8F90FF2582A4A46514605
:103DC00095A000F000FA002893D001200090102365
:103DD000220028213C2000F01FFF00F0FAFD0A20FD
:103DE00001F024FA4A465146DFF8640A00F0EBF984
:103DF00000283FF47EAF494688A000F0D9FA002899
:103E00003FF477AF1023DFF84C2A3221192000F05D
:103E1000D9F8002007004A465146DFF83C0A00F076
:103E2000D2F94FF4FA7001F001FA3800C0B200285C
:103E30000AD01023DFF8242A2F21192000F0C2F81D
:103E40004FF4FA6001F0F2F91023DFF878283221FC
:103E5000192000F0B7F8DFF8D40900F0A7F9DFF86F
:103E6000400900F0A3F90020DFF8301908700020A5
:103E7000DFF8B41908700020287030E67CB5002007
:103E800000F0D2FD282000902823DFF830280C21F4
:103E9000002000F00BFF012000901023DFF8F42831
:103EA0000821322000F0B8FE012000900C23DFF83A
:103EB00010281721282000F0AFFEBAA4012000909E
:103EC000102322002321372000F0A6FE00F081FD00
:103ED00050A542F2107632002900B3A000F073F929
:103EE00000286AD0012000901023220023213C20CA
:103EF00000F092FE00F06DFD0A2001F097F932000B
:103F00002900DFF85C0900F05EF9002853D0012099
:103F10000090102322002321412000F07DFE00F0BC
:103F200058FD0A2001F082F932002900DFF8340937
:103F300000F049F900283CD0012000901023220015
:103F40002321462000F068FE00F043FD0A2001F026
:103F50006DF932002900DFF8DC0800F034F90028A0
:103F600025D0012000901023220023214B2000F0B7
:103F700053FE00F02EFD0A2001F058F9320029000E
:103F8000DFF8E40800F01FF900280ED001200090AF
:103F9000102322002321502000F03EFE00F019FDE6
:103FA0000A2001F043F9012008E0002006E000208B
:103FB00004E0002002E0002000E0002076BD0000C8
:103FC000616E2000F8B504000D0016001F000020EF
:103FD00000F02AFD282000902823DFF8E0260C219D
:103FE000002000F063FE012000901023DFF8A427DA
:103FF00002213E2000F010FE012000903B00DBB2C9
:1040000032002100C9B22800C0B200F005FE00F065
:10401000E0FCF1BD4F4B00002200000032303000C8
:1040200010B5DFF86C4701220821200001F0A4F848
:1040300000224FF400615FF0904001F09DF80022F3
:104040000121200001F098F802215FF0904001F07A
:104050007DF8012801D1012085E00221200001F036
:1040600075F8012801D104207DE001215FF0904026
:1040700001F06CF8012801D1072074E04FF4807141
:104080005FF0904001F062F8012801D12A206AE037
:1040900000220821200001F06FF801224FF4006196
:1040A0005FF0904001F068F800220121200001F04B
:1040B00063F802215FF0904001F048F8012801D137
:1040C000022050E00221200001F040F8012801D137
:1040D000052048E001215FF0904001F037F8012809
:1040E00001D108203FE04FF480715FF0904001F073
:1040F0002DF8012801D1002035E000220821200000
:1041000001F03AF800224FF400615FF0904001F0B6
:1041100033F801220121200001F02EF802215FF086
:10412000904001F013F8012801D103201BE0022187
:10413000200001F00BF8012801D1062013E0012135
:104140005FF0904001F002F8012801D109200AE057
:104150004FF480715FF0904000F0F8FF012801D12A
:10416000232000E0FF2010BD10B50400200001F066
:1041700033FF02004FF47A7392B22100DFF8BC06DD
:1041800001F048FA10BD10B50400200001F024FF32
:1041900002004FF47A7392B22100DFF8D00601F0EA
:1041A00039FA10BD2E0000004154000010B5040083
:1041B000200001F011FF0021814203DA0022625445
:1041C000491CF9E710BD2DE9F34F81B0140000251B
:1041D0000026DFF89C763800FFF7E8FF01F018FFB3
:1041E000804601F015FF8146019801F0F5FEDFF8E9
:1041F0004CA64FF47A73020092B20199504601F036
:1042000009FA4FF47A7302229BA1504601F002FA98
:10421000DFF82CB64FF47A7301225946504601F06C
:1042200066FA002807D001F0F3FEB0EB08008442E4
:10423000EED200203BE001F0EBFE80469BF8000050
:104240003100C9B27854761C01F0E2FEB0EB0800F0
:10425000A04223D24FF47A7301225946504601F00E
:1042600046FA002809D19BF800003100C9B2785401
:10427000761C01F0CDFE8146E6E701F0C9FEB0EB09
:1042800009006528E0D30299380001F0C7FE002834
:1042900002D00120050001E0002005002800C0B286
:1042A0000028B5D03800FFF76EFF280040B2BDE807
:1042B000FE8F2DE9F14F0C0000250026DFF8B075C8
:1042C0003800FFF773FF01F0A3FE804601F0A0FE67
:1042D0008146009801F080FE0200DFF860A54FF4EF
:1042E0007A7392B20099504601F094F94FF47A73C0
:1042F000022261A1504601F08DF9DFF844B54FF478
:104300007A7301225946504601F0F1F9002807D08E
:1043100001F07EFEB0EB08008442EED201200500E1
:1043200001F076FE80469BF800003100C9B2785457
:10433000761C01F06DFEB0EB0800A0422DD24FF4C8
:104340007A7301225946504601F0D1F9002809D16B
:104350009BF800003100C9B27854761C01F058FE79
:104360008146E6E701F054FEB0EB09006528E0D392
:10437000BBA1380001F052FE002802D00120050048
:104380000BE0DFF8F014380001F048FE002802D0FE
:104390000220050001E0002005002800C0B200282E
:1043A000ABD03800FFF7EFFE280040B2BDE8F28F37
:1043B0002DE9F14F0C0000250026DFF8B474380019
:1043C000FFF7F4FE01F024FE804601F021FE814655
:1043D000DFF868A4DFF868B44FF47A730122594615
:1043E000504601F084F9002807D001F011FEB0EB2F
:1043F00008008442ECD200203BE001F009FE804638
:104400009BF800003100C9B27854761C01F000FE20
:10441000B0EB0800A04223D24FF47A730122594630
:10442000504601F064F9002809D19BF800003100E2
:10443000C9B27854761C01F0EBFD8146E6E701F045
:10444000E7FDB0EB09006528E0D30099380001F0E2
:10445000E5FD002802D00120050001E00020050054
:104460002800C0B20028B3D03800FFF78CFE280027
:1044700040B2BDE8F28F00000D0A00002DE9F843BC
:10448000040000255FF00009C34E3000FFF78EFEE8
:10449000200001F0A1FD0200DFF8A0734FF47A7351
:1044A00092B22100380001F0B5F84FF47A7302227D
:1044B000CBA1380001F0AEF8DFF8BC834FF4FA630B
:1044C00001224146380001F012F9002807D198F87E
:1044D000000030304946C9B2705419F1010948460C
:1044E000C0B21F28E8DB4FF4FA63012241463800CE
:1044F00001F0FDF80028F6D03000FFF744FE280058
:1045000040B2BDE8F28318B5ABB04421002205AC3F
:10451000200001F099FD142100226C46200001F0DA
:1045200093FD5421002216AC200001F08DFD2220C5
:1045300005904FF48070089001200E901020099093
:1045400002200F9002201090012011900A2012905A
:1045500007201390022014900220159005A801F066
:10456000A7FD002801D000F09BF90F200090032048
:10457000019000200290002003900020049003216D
:10458000684602F0A0F9002801D000F089F942F253
:104590004300169000201E9000201F9000202190C4
:1045A0000020269016A802F0ADFB002801D000F0F4
:1045B00077F94FF4007002F051FF002801D000F0AD
:1045C0006FF92CB010BD80B5AC48AD490160012138
:1045D000017141F2210181600821C1600121417115
:1045E0004FF6FF710161202141618021816101212C
:1045F000016202F085FF002801D000F051F901BDF1
:10460000FCC4000804C5000810B59E4C9E482060FC
:104610009E4860600020A0600120E06000202061D2
:10462000002060610020A0610020E0610020206285
:10463000200003F093F8002801D000F031F90021A8
:10464000200003F061FB002801D000F029F90021CF
:10465000200003F0A2FB002801D000F021F910BDDA
:104660004F4B000038C40008400E002080B56C4855
:10467000874901604FF482714160002181604FF4ED
:10468000E061C16000210161002141614FF40071CE
:1046900081612821C1610021016200214162002164
:1046A00081620721C162002101630021416303F09F
:1046B000BDFB002801D000F0F3F801BD8C0100081B
:1046C00088C400080CC500087E0E0020700E002073
:1046D000300E002094C4000810B586B014210022CA
:1046E0006C46200001F0B0FC6A48016851F00401FA
:1046F0000160016811F0040105910599016851F00C
:1047000001010160016811F001010591059901683D
:1047100051F002010160016811F002010591059953
:10472000016851F080010160006810F08000059080
:10473000059840F2031000900020019002200290A2
:1047400069465FF0904000F089FB02200090002055
:104750000190022002900E4C6946200000F07EFB82
:10476000292000900120019001200290694620003C
:1047700000F074FB4FF400600090012001900120D4
:10478000029069465FF0904000F068FB06B010BDF3
:1047900000040048F4C40008680A00207F0E0020CE
:1047A000500E002080B525483B4901604FF416515A
:1047B0004160002181600021C160002101610C2164
:1047C0004161002181610021C1610021016200215C
:1047D000416200F0B7FE002801D000F061F801BD91
:1047E0000D0A000080B521482C4901604FF4165194
:1047F0004160002181600021C160002101610C2124
:104800004161002181610021C1610021016200211B
:10481000416200F097FE002801D000F041F801BD90
:104820005C0D0020A0C40008800E0020600E002057
:10483000ACC4000848C40008A4C100085C0C0020F7
:104840007C0E002014C500081CC5000824C5000803
:1048500058C400082CC50008B8C40008C4C4000827
:10486000B0C30008D0C30008D0C40008DC0C00208E
:104870008006002034C50008740800200C0E0020BB
:1048800000300240C00D002000540040EC9C90100D
:10489000003001404C10024000380140004400400C
:1048A0007047704710B50024032003F0BCFE0020C1
:1048B00003F00EFF002802D00120040001E003F005
:1048C00037FF2000C0B210BD10B504002000C0B2F8
:1048D00004F085F910BD80B504F002F902BD10B5F1
:1048E0000400200004F0EFF910BD80B504F032FAA6
:1048F00001BD30B4002513E050F8042BD30744BFAA
:10490000A9F101039A18091F042942F8045BFAD29D
:1049100013468C0744BF15809B1CC90748BF1D70F8
:1049200050F8041B0029E7D130BC7047DFF85C0366
:10493000016831F080710160016851F0807101609F
:10494000DFF84C030168490849000160016851F033
:1049500001010160DFF83C030021016000BF00BFDE
:1049600000BF0068002801D0002000E0012070474F
:1049700071B581B0DFF81C532C68019E02F03BF941
:10498000DFF81413B0FBF1F0464301962868001BD2
:1049900001998842FAD373BD3EB504000D0028008A
:1049A000C0B2002803D040208DF8040002E00020AF
:1049B0008DF804008DF8054064200090022301AAC0
:1049C0007821DFF8D80202F0A4FF0120FFF7D0FF22
:1049D00037BD38B500252800C0B2082823DA0021E9
:1049E000B5F15000C0B2FFF7D7FF00210220FFF75A
:1049F000D3FF00211020FFF7CFFF0020040020008C
:104A0000C0B280280DDA0121DFF894022200D2B270
:104A100000EBC2002A00D2B2805CFFF7BDFF641C2D
:104A2000EDE76D1CD7E731BD70B5040000263000FE
:104A3000C0B2082820DA0021B6F15000C0B2FFF75A
:104A4000ABFF00210220FFF7A7FF00211020FFF796
:104A5000A3FF002005002800C0B280280ADADFF892
:104A600040022900C9B200EBC1003100C9B2445470
:104A70006D1CF0E7761CDAE7FFF7ABFF70BDF0B511
:104A8000030000241800C0B2802803DA0800C0B276
:104A9000402800DB43E00800C0B2082590FBF5F594
:104AA000D5F107050800C0B2082790FBF7F607FB11
:104AB00016060120D6F1070710FA07F71000C0B25A
:104AC000002816D0DFF8D8011C00E4B200EBC404C3
:104AD000AC465FFA8CFC9E465FFA8EFE00EBCE0081
:104AE000AE465FFA8EFE10F80E00384304F80C0054
:104AF00015E0DFF8AC011C00E4B200EBC404AC46E6
:104B00005FFA8CFC9E465FFA8EFE00EBCE00AE464E
:104B10005FFA8EFE10F80E00B84304F80C00F0BDEA
:104B20002DE9F84F05000E001F000A9C8DF800606B
:104B3000B2F1200A5FF0000B58463900C0B2C9B28A
:104B4000884267D23800C0B20C281CD12000C0B205
:104B500000280BD053495246D2B20C20424301EBFD
:104B600002005946C9B2405C814624E04D49524694
:104B7000D2B20C20424301EB02005946C9B2405C5C
:104B8000C043814617E02000C0B2002809D0464843
:104B90005146C9B2090108445946C9B2405C814630
:104BA00009E041485146C9B2090108445946C9B211
:104BB000405CC0438146002080464046C0B2082881
:104BC00025DA5FEA096007D501223100C9B2280061
:104BD000C0B2FFF754FF06E000223100C9B228003E
:104BE000C0B2FFF74CFF5FEA4909761C3100C9B239
:104BF0009DF80000091A3800C0B2814204D19DF826
:104C0000000006006D1C02E018F10108D5E71BF159
:104C1000010B91E7BDE8F18FF8B504000D00160017
:104C20001F00307800282FD03800C0B2022190FB3E
:104C3000F1F0D0F180002100C9B2884210DA0020E2
:104C400004007D193800C0B2D0F140002900C9B27B
:104C5000884205DA0020040025000020FFF7E4FE6A
:104C60009DF8180000903B00DBB232782900C9B2F1
:104C70002000C0B2FFF754FF3800C0B2022190FB01
:104C8000F1F00419761CCCE7F1BD0000FCED00E06A
:104C9000001000E0041000E040420F00C00D0020B2
:104CA0000C00002018B5000828AF00082DE9F84FC7
:104CB00004000D0016001F00DDF828B03800C0B257
:104CC000C01D082190FBF1F95FF0000A50465946DB
:104CD000C9B280B289B288422AD2002080464046BA
:104CE0003900C9B280B289B288421ED2404680B231
:104CF000082190FBF1F1524692B2484680B24243FD
:104D000006EB0200405C802118F0070211410842C6
:104D100008D001221AEB0501C9B218EB0400C0B299
:104D2000FFF7ADFE18F10108D9E71AF1010ACDE746
:104D3000BDE8F18F80B50021AE20FFF72DFE0021E8
:104D40000020FFF729FE00211020FFF725FE00219B
:104D50004020FFF721FE00218120FFF71DFE0021EA
:104D6000CF20FFF719FE0021A120FFF715FE00213B
:104D7000C020FFF711FE0021A620FFF70DFE002145
:104D8000A820FFF709FE00213F20FFF705FE0021C4
:104D9000D320FFF701FE00210020FFF7FDFD0021D9
:104DA000D520FFF7F9FD00218020FFF7F5FD002158
:104DB000D920FFF7F1FD0021F120FFF7EDFD0021E3
:104DC000DA20FFF7E9FD00211220FFF7E5FD0021C1
:104DD000DB20FFF7E1FD00214020FFF7DDFD002192
:104DE0002020FFF7D9FD00210220FFF7D5FD00218B
:104DF0008D20FFF7D1FD00211420FFF7CDFD00210C
:104E0000A420FFF7C9FD0021A620FFF7C5FD002162
:104E1000AF20FFF7C1FD0020FFF706FE01BD80B502
:104E200000F001F801BD80B5FFF784FF01BD30B48B
:104E30000EE00268436802440830DC0744BFA9F171
:104E40000104E31852F8045B43F8045B091FF9D12D
:104E500050F8041B0029ECD130BC70472DE9F84F05
:104E600005000E000027B5F1904F10D0DFF8740355
:104E700085420CD0DFF87003854208D0DFF86C0360
:104E8000854204D0B321DFF86803FFF70AFD3068DC
:104E9000000404D03068000C0004002804D0B421C1
:104EA000DFF84C03FFF7FDFC7068002834D0706811
:104EB000012831D0706811282ED0706802282BD0BC
:104EC0007068122828D07068DFF82813884223D031
:104ED0007068DFF8241388421ED07068DFF81C1356
:104EE000884219D07068DFF81813884214D07068AF
:104EF000DFF8101388420FD07068DFF80C13884277
:104F00000AD07068032807D070680B2804D0B52138
:104F1000DFF8DC02FFF7C5FCB06800280AD0B068F3
:104F2000012807D0B068022804D0B621DFF8C002FB
:104F3000FFF7B7FC3068F840002800F005815FF00B
:104F40000108316818FA07F001400C00002C00F04D
:104F5000F9807068022802D07068122835D1B5F146
:104F6000904F10D0DFF87C0285420CD0DFF8780239
:104F7000854208D0DFF87402854204D0C521DFF8ED
:104F80007002FFF78EFC3069102804D3C621DFF8C9
:104F90006002FFF786FC3800C00805EB8000016A5C
:104FA0000F2217F00700C0B280008240914332699F
:104FB00017F00700C0B28000824011438B463800D2
:104FC000C00805EB8000C0F820B0D5F800A05FF065
:104FD00003093800C0B2400019FA00F03AEA000AAA
:104FE000317911F003013800C0B24000814051EA2C
:104FF0000A0AC5F800A07068012808D07068022865
:1050000005D07068112802D0706812282BD1F06882
:1050100000280DD0F06801280AD0F068022807D0D7
:10502000F068032804D0DA21DFF8C401FFF739FC67
:10503000A9683800C0B2400019FA00F08143F26854
:105040003800C0B2400082401143A960686818FA75
:1050500007F830EA08007268C2F30012BA40104341
:105060008246C5F804A0D5F80CB03800C0B24000A4
:1050700019FA00F93BEA090BB1683800C0B24000E8
:10508000814051EA0B0BC5F80CB07068C00059D5CF
:10509000DFF87801016851F001010160006810F04B
:1050A000010000900098DFF868213800800852F86D
:1050B00020100F2317F00300C0B2800083409943F3
:1050C000B5F1904F01D100230CE0DFF818018542C3
:1050D00001D1012306E0DFF81001854201D102234E
:1050E00000E0072317F00300C0B28000834019439B
:1050F0003800800842F82010DFF818211068A0431B
:105100007368DB0300D520431060DFF80C211168C1
:10511000A14373689B0300D5214311603F4A106887
:10512000A0437368DB0200D5204310603C49D1F8EE
:1051300000B03BEA040B7268920201D554EA0B0BF3
:10514000C1F800B07F1CF5E6BDE8F18F38B504006A
:105150000D00280080B2002804D14FF4C971244802
:10516000FFF79FFB2069290089B2084201D0012086
:1051700000E00020C0B232BD70B504000E00150082
:10518000300080B2002804D14FF4D9711848FFF7DD
:1051900088FB2800C0B2002808D02800C0B201282F
:1051A00004D040F2B3111248FFF77BFB2800C0B2D5
:1051B000002803D0300080B2A06102E0300080B24D
:1051C000A06270BD10B5040016480168220092B2BA
:1051D000114206D0210089B20160200080B200F0A7
:1051E00023F810BD0004004800080048001C0048D7
:1051F000E8BE00080000111000002110000031106E
:105200000000121000002210000032106010024056
:10521000080001400004014004040140080401406A
:105220000C040140140401407047030270B50400EF
:1052300000F0EEFE0500260016F1010F02D0044832
:105240000068861900F0E4FE401BB042FAD370BD3E
:1052500004000020F8B50200100080B242F2107382
:1052600098426DD212F00F008DF800006B46C2F329
:1052700003105870100080B2001210F00F009870E8
:10528000100080B2000BD870D8789C7820185C7819
:10529000041906259DF8000005FB04048DF8004064
:1052A0009DF800000A2490FBF4F49DF800000A2504
:1052B00090FBF5F605FB16008DF800005D78D878B8
:1052C000092610FB06409E78052716FB07004519A6
:1052D0005D7058780A2590FBF5F558780A2690FB02
:1052E000F6F706FB170058709878400050FA85F0E2
:1052F000987098780A2690FBF6F698780A2790FB23
:10530000F7FC07FB1C009870D878800050FA86F0F4
:10531000D870D8780A2790FBF7F7D8785FF00A0C96
:1053200090FBFCFE0CFB1E00D870D87808709878B3
:105330004870587888709DF80000C870002000E020
:105340000120F2BD2DE9FF4104000D00A0792328C2
:1053500080F2A080E079002840F09C80217862787B
:105360004FF48070424352FA81F080B200906E4652
:10537000A178E2784FF480704243501880B2706098
:10538000217962794FF480704243501880B2B06046
:10539000A179E2794FF480704243501880B2F060F6
:1053A0000099F2684FF42473B7684FF4E450474310
:1053B00003FB027273684FF4AD5000FB03225118D7
:1053C0000091009842F21071B0FBF1F1009842F2A6
:1053D0001072B0FBF2F302FB13000090F36841F689
:1053E000F75000FB0313B76842F2185000FB073375
:1053F0007768062000FB07337360706842F2107311
:10540000B0FBF3F37068B0FBF2F702FB17007060BB
:10541000F76841F28D2000FB0737D6F808C02A2034
:1054200000FB0C77B760B06842F21077B0FBF7FC76
:10543000B068B0FBF2F702FB1700B060F76840F20B
:10544000191000FB07C7F760F06842F21077B0FB55
:10545000F7F7F068B0FBF2FE02FB1E02F2605FF0AD
:105460000308404640B2002812D4404640B27FF0C4
:10547000030110FB01F0284410F10C01404640B23A
:1054800056F8200080B2FFF7E5FEB8F10108E8E722
:10549000002000E0012004B0BDE8F08162B38B077A
:1054A00008D0521E11F8013B00F8013B00F02480A7
:1054B0008B07F6D1830740F0208000BF103A07D356
:1054C00030B4B1E83810103AA0E83810F9D230BC46
:1054D000530724BFB1E80810A0E8081044BF51F8F2
:1054E000043B40F8043BD20724BF31F8022B20F8DC
:1054F000022B44BF0B7803707047121F17D35B0059
:1055000009D151F8043B20F8023B1B0C121F20F874
:10551000023BF6D20BE051F8043B00F8013B1B0ABA
:1055200020F8023B1B0C121F00F8013BF3D238BFDE
:10553000121D521E24BF11F8013B00F8013BF8D8A0
:105540007047550010B50400002C01D1012060E027
:10555000A069002815D02068DFF8D812884225D02D
:105560002068DFF8D412884220D02068DFF8CC12FF
:1055700088421BD040F23F11DFF8C402FFF791F9D7
:1055800014E02068DFF8AC1288420FD02068DFF802
:10559000A81288420AD02068DFF8A012884205D0FD
:1055A0004FF4A271DFF89802FFF77BF9606F0028D3
:1055B00005D1002084F87000200003F055F9242064
:1055C000606720680068400840002168086020008B
:1055D00000F038F9012801D101201AE0606A0028A2
:1055E00002D0200000F07FFB2068406830F490403B
:1055F000216848602068806830F02A00216888604F
:105600002068006850F0010021680860200000F068
:1056100079FC10BD2DE9FC4706000D0017009846E7
:10562000706F202860D1002D03D0380080B2002890
:1056300001D1012059E096F87000012801D1022023
:1056400053E0012086F870000020F0672120706789
:1056500000F0DEFC8146A6F85070A6F85270B068E3
:10566000B0F5805F05D13069002802D10024AA4638
:1056700002E02C005FF0000AB6F85200002820D0AB
:10568000CDF800804B4600228021300000F06EFCF7
:10569000002801D0032028E0002C08D1BAF800002F
:1056A000C005C00D316808851AF1020A03E02078B0
:1056B00031680885641CB6F85200401EA6F85200F6
:1056C000DAE7CDF800804B4600224021300000F0A0
:1056D0004DFC002801D0032007E020207067002047
:1056E00086F87000002000E00220BDE8F6872DE972
:1056F000F84F83460D0016001F00DBF878002028C5
:1057000040F09580002D03D0300080B2002801D1F8
:1057100001208DE09BF87000012801D1022087E074
:1057200001208BF870000020CBF87C002220CBF801
:10573000780000F06DFC8046ABF85860ABF85A601A
:10574000DBF80800B0F5805F0CD1DBF81000002812
:1057500004D140F2FF10ABF85C0027E0FF20ABF86B
:105760005C0023E0DBF8080000280BD1DBF8100018
:10577000002803D1FF20ABF85C0017E07F20ABF8D6
:105780005C0013E0DBF80800B0F1805F0BD1DBF8C0
:105790001000002803D17F20ABF85C0006E03F201A
:1057A000ABF85C0002E00020ABF85C00BBF85C905A
:1057B000DBF80800B0F5805F06D1DBF810000028A8
:1057C00002D10024AA4602E02C005FF0000ABBF8D8
:1057D0005A00002823D00097434600222021584633
:1057E00000F0C4FB002801D0032021E0002C09D1E7
:1057F000DBF80000808C19EA0000AAF800001AF11A
:10580000020A06E0DBF80000808C19EA0000207034
:10581000641CBBF85A00401EABF85A00D7E72020A2
:10582000CBF8780000208BF87000002000E0022008
:10583000BDE8F28F00380140004400400080004085
:1058400018C100082DE9F84F0400002500265FF07C
:1058500000086068DFF89016884205D340F62D31C5
:10586000DFF88006FFF71DF8A068B0F1805F0CD06C
:10587000A068002809D0A068B0F5805F05D040F688
:105880002E31DFF86006FFF70CF8DFF860B620680D
:1058900058450DD1E06800282CD0E068B0F5005FD5
:1058A00028D040F63131DFF83C06FEF7FAFF21E060
:1058B000E068B0F5805F10D0E06800280DD0E068A7
:1058C000B0F5405F09D0E068B0F5005F05D040F664
:1058D0003531DFF81006FEF7E4FF206A002809D012
:1058E000206AB0F5006F05D040F63631DFF8F405D8
:1058F000FEF7D7FF206900280DD02069B0F5806F32
:1059000009D02069B0F5C06F05D040F63931DFF815
:10591000D405FEF7C6FF606930F00C00002802D104
:105920006069002805D140F63A31DFF8B805FEF786
:10593000B8FFA069002811D0A069B0F5807F0DD014
:10594000A069B0F5007F09D0A069B0F5407F05D00F
:1059500040F63B31DFF88C05FEF7A3FFE069002835
:1059600009D0E069B0F5004F05D040F63C31DFF8D2
:105970007405FEF796FFA168206901436069014341
:10598000E069014320680268DFF8640502400A43C9
:10599000206802602068426832F44052E0680243A6
:1059A00020684260D4F818902068584502D0206AD8
:1059B00050EA09092068806830F4306059EA000034
:1059C000216888602068DFF81415884216D1DFF856
:1059D0002405006810F00300002805D0022805D037
:1059E00006D3032806D007E0012743E0022741E061
:1059F00004273FE008273DE010273BE02068DFF860
:105A0000E014884217D1DFF8EC04006810F00C00B5
:105A1000002806D0042808D0082804D00C2806D076
:105A200007E0002726E0022724E0042722E00827D9
:105A300020E010271EE0206858451AD1DFF8B40492
:105A4000006810F44060002809D0B0F5806F0AD0DB
:105A5000B0F5006F05D0B0F5406F06D007E0002725
:105A600008E0022706E0042704E0082702E01027E8
:105A700000E010272068584540F07F803800C0B211
:105A8000002806D0022808D004280AD008280CD004
:105A90000FE001F0B3F880460DE0DFF85C048046CB
:105AA00009E001F03DF8804605E04FF400408046F3
:105AB00001E001200600B8F1000F00F00C816168E0
:105AC00003204143884505D361684FF4805041432A
:105AD000414502D201200600FDE03800C0B2002896
:105AE00006D0022814D0042820D008282ED036E072
:105AF00001F084F802004FF48073606840080021D0
:105B0000E3FB02016268002303F05CF9050028E072
:105B1000626852080023DFF8E4030021101859419D
:105B20006268002303F04EF905001AE000F0F8FF68
:105B300002004FF48073606840080021E3FB02011B
:105B40006268002303F03EF905000AE0606840083F
:105B500010F500006168B0FBF1F0050001E00120E4
:105B60000600B5F5407F05D3B5F5801F02D2206849
:105B7000C560B0E001200600ADE0E069B0F5004F7F
:105B80005BD13800C0B2002808D0012812D002280A
:105B90001CD0042825D008282FD038E001F02EF89A
:105BA0006168490811EB40016068B1FBF0F080B218
:105BB00005002EE001F02FF86168490811EB400163
:105BC0006068B1FBF0F080B2050022E06068DFF8A9
:105BD000301311EB50016068B1FBF0F080B20500AA
:105BE00017E000F09DFF6168490811EB4001606813
:105BF000B1FBF0F080B205000BE06068400810F5E2
:105C000080306168B0FBF1F080B2050001E0012056
:105C10000600102D0ED3B5F5803F0BD24FF6F07174
:105C20002940C5F3420001438A46504680B22168AC
:105C3000C86050E0012006004DE03800C0B20028E6
:105C400008D0012811D002281AD0042822D0082810
:105C50002BD034E000F0D2FF616810EB5100616896
:105C6000B0FBF1F080B205002BE000F0D4FF6168DA
:105C700010EB51006168B0FBF1F080B2050020E04C
:105C800060689D4911EB50016068B1FBF0F080B293
:105C9000050016E000F044FF616810EB51006168F8
:105CA000B0FBF1F080B205000BE06068400810F531
:105CB00000406168B0FBF1F080B2050001E0012016
:105CC0000600102D05D3B5F5803F02D22068C560CF
:105CD00001E0012006000020206600206066300000
:105CE000C0B2BDE8F28F10B50400606AB0F5807FE5
:105CF00004D340F655417B48FEF7D3FD94F82400C9
:105D0000C00713D5A06A002808D0A06AB0F5003FEC
:105D100004D040F65A417348FEF7C3FD206841683D
:105D200031F40031A06A01432068416094F82400F6
:105D3000800713D5E06A002808D0E06AB0F5803FFC
:105D400004D040F661416748FEF7ABFD206841682A
:105D500031F48031E06A01432068416094F8240006
:105D6000400713D5206B002808D0206BB0F5802F9A
:105D700004D040F668415B48FEF793FD2068416817
:105D800031F48021206B01432068416094F82400A5
:105D9000000713D5606B002808D0606BB0F5004F8A
:105DA00004D040F66F414F48FEF77BFD2068416804
:105DB00031F40041606B01432068416094F8240095
:105DC000C00613D5A06B002808D0A06BB0F5805F8B
:105DD00004D040F676414348FEF763FD20688168B1
:105DE00031F48051A06B01432068816094F8240055
:105DF000800613D5E06B002808D0E06BB0F5005F9B
:105E000004D040F67D413748FEF74BFD206881689D
:105E100031F40051E06B01432068816094F8240064
:105E2000400640D520682D49884208D020682C497A
:105E3000884204D040F684412A48FEF732FD206CA7
:105E4000002808D0206CB0F5801F04D040F68541B2
:105E50002448FEF726FD2068416831F48011206C4B
:105E6000014320684160206CB0F5801F1BD1606C3D
:105E7000002810D0606CB0F5001F0CD0606CB0F53D
:105E8000800F08D0606CB0F5C00F04D040F68A4196
:105E90001448FEF706FD2068416831F4C001606CCB
:105EA00001432068416094F82400000613D5A06CDB
:105EB000002808D0A06CB0F5002F04D040F6924125
:105EC0000848FEF7EEFC2068416831F40021A06C20
:105ED00001432068416010BD00000000003801400F
:105EE0000044004018C100088196980000800040DE
:105EF000F369FFEF881002400024F400000024F44E
:105F00000048E80138B504000020E06700F080F8A0
:105F100005002068006800070DD57FF07E400090E6
:105F20002B0000225FF40011200000F01FF8002871
:105F300001D0032019E02068006840070DD57FF0EC
:105F40007E4000902B0000225FF48001200000F0D2
:105F50000DF8002801D0032007E0202060672020F2
:105F6000A067002084F87000002032BD2DE9F041C8
:105F700005000E0090461F00069C2868C06930404E
:105F8000B04201D1012000E000204146C9B2884260
:105F90001ED114F1010FF0D000F03AF8C01B84427A
:105FA00001D3002CE9D12868006830F4D07029684A
:105FB00008602868806840084000296888602020C0
:105FC00068672020A867002085F87000032000E0A3
:105FD0000020BDE8F081000000F10103810704D03A
:105FE00010F8011B820781B1FAD10268A2F10131D8
:105FF000914311F0803104BF50F8042FF6E709BA3D
:10600000B1FA81F100EBD100401CC01A70470000CA
:1060100001480068704700BF780E002070B50D463B
:106020002C7834B970BD11F8013F1678B34206D010
:10603000401C214602F0DEFF28B101462A4612F834
:10604000013F002BEFD170BD62F30F2262F31F42BC
:10605000401810F0030308D0C91A1FD3DB0748BF4C
:1060600000F8012D28BF20F8022D130030B414468B
:106070001546103928BF20E93C00FAD8490728BF47
:1060800020E90C0048BF40F8042D890028BF20F803
:10609000022D48BF00F8012D30BC7047C91818BF49
:1060A00000F8012DCB0728BF00F8012D7047000034
:1060B0002DE9FE4F0400002C02D1012000F001BCAC
:1060C0002068002809D0207810F03F0F05D14FF448
:1060D000CF71DFF8480AFEF7E4FBDFF82C7A3D6861
:1060E00015F00C05DFF82C8AD8F8009019F0030998
:1060F0002078C00640F1FA80A069002808D0A06985
:10610000012805D040F2A711DFF8100AFEF7C9FBFD
:10611000E069B0F5807F05D34FF4D471DFF8FC0956
:10612000FEF7BFFB206A002826D0206A102823D063
:10613000206A202820D0206A30281DD0206A4028DC
:106140001AD0206A502817D0206A602814D0206AFC
:10615000702811D0206A80280ED0206A90280BD099
:10616000206AA02808D0206AB02805D040F2A911E2
:10617000DFF8A809FEF795FB002D04D00C2D78D18F
:10618000B9F1010F75D1DFF87CA9DAF800008007BA
:1061900004D5A069002801D1012092E3DAF80000BB
:1061A000000704D5DAF8000010F0F00005E0DFF891
:1061B00068090068000910F0F000216A88421ED2C8
:1061C000206A00F03BFD002801D0012079E3DAF8D5
:1061D000000050F00800CAF80000DAF8001031F0B2
:1061E000F001206A0143CAF80010DFF8440A016890
:1061F00031F47F41E26951EA022101601DE0DAF8E1
:10620000000050F00800CAF80000DAF8001031F081
:10621000F001206A0143CAF80010DFF8140A01688F
:1062200031F47F41E26951EA02210160206A00F005
:1062300005FD002801D0012043E300F071FCDFF8E8
:10624000F4193A68C2F30312895C11F01F01C840C7
:10625000DFF8B8180860DFF8B808006802F038FA0C
:106260008DF800009DF8000000283FD09DF8000048
:1062700027E3A069002826D0DFF88878386850F036
:1062800001003860FFF7C4FE06003868800706D4B6
:10629000FFF7BEFE801B0328F7D3032011E3386805
:1062A00050F008003860396831F0F001206A01438D
:1062B0003960DFF87C09016831F47F41E26951EA15
:1062C0000221016012E0DFF83C78386840084000A5
:1062D0003860FFF79DFE06003868800706D5FFF797
:1062E00097FE801B0328F7D30320EAE22078C0073B
:1062F00066D5606800280DD06068B0F5803F09D091
:106300006068B0F5A02F05D040F21121DFF80C082D
:10631000FEF7C7FA082D04D00C2D0CD1B9F1030FEC
:1063200009D1DFF8E0070068800349D560680028DC
:1063300046D10120C5E26068B0F5803F06D1DFF8A4
:10634000C407016851F48031016018E06068B0F55D
:10635000A02F0AD1DFF8AC07016851F48021016059
:10636000016851F48031016009E0DFF898070168A5
:1063700031F480310160016831F48021016060688E
:1063800000280ED0FFF744FE0600DFF8780700680B
:10639000800315D4FFF73CFE801B6528F5D303204E
:1063A0008FE2FFF735FE0600DFF85807006880032C
:1063B00006D5FFF72DFE801B6528F5D3032080E26C
:1063C0002078800763D5E068002809D0E068B0F540
:1063D000807F05D04FF41171DFF84007FEF761FAB6
:1063E0002069202805D340F24521DFF83007FEF769
:1063F00058FA042D04D00C2D16D1B9F1020F13D187
:10640000DFF800070068400504D5E068002801D1E6
:10641000012056E2DFF81808016831F0F8512269CE
:1064200051EA0261016032E0E06800281CD0DFF828
:10643000D476386850F480703860FFF7E9FD0600C4
:106440003868400506D4FFF7E3FD801B0328F7D327
:10645000032036E2DFF8D807016831F0F8512269ED
:1064600051EA0261016012E0DFF89876386830F492
:1064700080703860FFF7CCFD06003868400506D50F
:10648000FFF7C6FD801B0328F7D3032019E220780D
:10649000000734D56069002808D06069012805D05C
:1064A00040F28521DFF87406FEF7FBF960690028E9
:1064B00012D0DFF86476386850F001003860FFF7DA
:1064C000A7FD06003868800719D4FFF7A1FD801BDF
:1064D0000328F7D30320F4E1DFF83C76386840085E
:1064E00040003860FFF794FD06003868800706D545
:1064F000FFF78EFD801B0328F7D30320E1E120780E
:10650000400740F18F800027A06800280BD0A068CA
:10651000012808D0A068052805D04FF43671DFF8AF
:10652000FC05FEF7BEF9DFF8A0A7DAF80000C0000E
:106530000DD4DAF8000050F08050CAF80000DAF804
:10654000000010F080500190019801200700DFF852
:106550007CB7DBF80000C00513D4DBF8000050F472
:106560008070CBF80000FFF753FD0600DBF8000059
:10657000C00506D4FFF74CFD801B0328F6D303208B
:106580009FE1A068012806D1DFF84407016851F0B7
:106590000101016017E0A06805280AD1DFF8300783
:1065A000016851F004010160016851F001010160CE
:1065B00009E0DFF81C07016849084900016001682B
:1065C00031F004010160A068002810D0FFF720FD21
:1065D0000600DFF8FC060068800719D4FFF718FDF5
:1065E000801B41F289318842F3D3032069E1FFF730
:1065F0000FFD0600DFF8D8060068800708D5FFF712
:1066000007FD801B41F289318842F3D3032058E112
:106610003800C0B2012805D1DAF8000030F080500F
:10662000CAF800002078800634D5606A002808D0B7
:10663000606A012805D040F23D31DFF8E004FEF742
:1066400030F9606A002812D0DFF88876386850F098
:1066500001003860FFF7DCFC06003868800719D4B9
:10666000FFF7D6FC801B0328F7D3032029E1DFF8CE
:1066700064763868400840003860FFF7C9FC0600BF
:106680003868800706D5FFF7C3FC801B0328F7D3C3
:10669000032016E1A06A00280BD0A06A012808D0C8
:1066A000A06A022805D040F26631DFF87004FEF7D8
:1066B000F8F8A06A002800F003810C2D00F0CE80CD
:1066C000A06A022840F0A780E06A00280ED0E06AA5
:1066D00001280BD0E06A022808D0E06A032805D020
:1066E0004FF45C71DFF83404FEF7DBF8206B002810
:1066F00002D0206B092805D340F27131DFF81C0469
:10670000FEF7CFF8606B082802D3606B572805D3DB
:1067100040F27231DFF80404FEF7C3F8A06B0228E0
:1067200002D3A06B202805D34FF45D71DFF8EC0392
:10673000FEF7B7F8E06B02280ED0E06B04280BD010
:10674000E06B062808D0E06B082805D040F27631CF
:10675000DFF8C803FEF7A5F8206C02280ED0206CE5
:1067600004280BD0206C062808D0206C082805D0FF
:1067700040F27731DFF8A403FEF793F8DFF884A343
:10678000DAF8000030F08070CAF80000FFF740FC33
:106790000700DAF80000800106D5FFF739FCC01BBE
:1067A0000328F6D303208CE0D8F80010DFF8280582
:1067B0000140E06A0143206B401E51EA0011606B0A
:1067C00051EA0021E06B4008401E51EA4051206C24
:1067D0004008401E51EA4061A06B51EAC061C8F810
:1067E0000010DAF8000050F08070CAF80000D8F805
:1067F000000050F08070C8F80000FFF709FC0600A8
:10680000DAF8000080015BD4FFF702FC801B03284C
:10681000F6D3032055E0DFF8EC72386830F0807072
:1068200038603868000105D4D8F80000800880007E
:10683000C8F80000D8F80010DFF8A0040140C8F83C
:106840000010FFF7E5FB06003868800138D5FFF738
:10685000DFFB801B0328F7D3032032E0A06A012866
:1068600001D101202DE0D8F80000814619F0030085
:10687000E16A884222D119F07000216B491EB0EB09
:10688000011F1BD119F4FE40616BB0EB012F15D134
:1068900019F07840A16BB0EBC16F0FD119F4C000B3
:1068A000E16B4908491EB0EB415F07D119F0C060A8
:1068B000216C4908491EB0EB416F01D0012000E076
:1068C0000020BDE8FE8F2DE9F04104000D00002CF2
:1068D00001D1012013E12068002802D0206810288F
:1068E00005D340F22E41DFF83402FDF7DAFF002D28
:1068F0000DD0012D0BD0022D09D0032D07D0042D72
:1069000005D040F22F41DFF81402FDF7CAFFDFF88F
:10691000D073386810F00700A8420BD23868C0085E
:10692000C00028433860386810F00700A84201D042
:106930000120E4E02078C0074FD5606800280DD022
:10694000606801280AD06068022807D060680328C0
:1069500004D040F246417148FDF7A3FF6068032868
:1069600005D168480068800119D40120C7E060683B
:10697000022805D163480068800310D40120BEE0DE
:106980006068002805D15F480068800707D40120AF
:10699000B5E05C480068400501D40120AFE0DFF8B5
:1069A0006881D8F800108908890060680143C8F838
:1069B0000010FFF72DFB0600D8F8000010F00C00C7
:1069C0006168B0EB810F08D0FFF722FB801B41F21A
:1069D00089318842F0D3032091E02078800726D5C2
:1069E000A06800281CD0A068802819D0A068902832
:1069F00016D0A068A02813D0A068B02810D0A06836
:106A0000C0280DD0A068D0280AD0A068E02807D000
:106A1000A068F02804D040F2A2414048FDF741FFB1
:106A200039490A6832F0F002A06802430A60386807
:106A300010F0070085420BD23868C008C000284318
:106A40003860386810F00700A84201D0012056E0F5
:106A5000207840071ED5E068002814D0E068B0F523
:106A6000806F10D0E068B0F5A06F0CD0E068B0F592
:106A7000C06F08D0E068B0F5E06F04D040F2C141CB
:106A80002648FDF70EFF20490A6832F4E062E0680C
:106A900002430A60207800071FD52069002814D01F
:106AA0002069B0F5806F10D02069B0F5A06F0CD0D0
:106AB0002069B0F5C06F08D02069B0F5E06F04D050
:106AC0004FF499611548FDF7ECFE0F48016831F469
:106AD0006051226951EAC201016000F021F8554974
:106AE000094A1268C2F30312895C11F01F01C84001
:106AF000064908600648006801F0EAFDC0B2BDE83A
:106B0000F081000000100240081002400800002040
:106B1000000000200C1002409410024000C0000849
:106B20002DE9F04100260020DFF8B811096811F0C6
:106B30000C01DFF8B4C1DCF8007017F0030700297E
:106B400003D00C291AD1012F18D1DFF8A0E1DEF80B
:106B500000805FEA087806D4DFF8DCE0DEF800E0C9
:106B6000CEF3032E03E0DEF800E0CEF3031E604E0A
:106B700056F82E6000290CD130000AE0042903D118
:106B8000DFF870E1704604E0082902D1DFF868E11F
:106B900070460C292DD1DCF800E01EF0030E734680
:106BA0009E46BEF1020F03D0BEF1030F03D005E0F5
:106BB000DFF840E103E0DFF840E100E0B646DCF852
:106BC0000020C2F30212521C1500DCF80020C2F3B0
:106BD000062202FB0EFEBEFBF5F2DCF800C0CCF391
:106BE000416C1CF1010C5FEA4C0C6446B2FBF4FCF6
:106BF0006046BDE8F08141480068704780B5FFF706
:106C0000FAFF3F49374A1268C2F30222895C11F049
:106C10001F01C84002BD80B5FFF7EDFF3849314A7A
:106C20001268C2F3C222895C11F01F01C84002BD84
:106C30000410024068C40008941002407CB50400AF
:106C40000025214E3068C00003D500F001FC010092
:106C50000FE0306850F080503060306810F08050A5
:106C60000090009800F0F4FB0100306830F0805094
:106C70003060B1F5007F09D1812C15D3A12C02D34E
:106C80000220050010E0012005000DE0812C02D358
:106C90000320050008E0802C02D10220050003E05B
:106CA000702C01D1012005000D480268D208D200E5
:106CB0002A430260006810F00700A84201D00120BA
:106CC00000E0002076BD0000581002400070004037
:106CD00090100240981002408C809D01FFFFEEFE54
:106CE00000200240081002400C1002400010024038
:106CF00010C300080024F40000127A0008000020ED
:106D000044C500082DE9F84F05005FF00008002792
:106D10002868DFF8C414084204D1CB21DFF8BC0492
:106D2000FDF7BFFD2868000537D5E86B00280CD0BB
:106D3000E86BB0F5000F08D0E86BB0F5400F04D059
:106D4000D321DFF89804FDF7ACFDE86B00280DD0E7
:106D5000B0F5000F03D0B0F5400F0DD00DE0DFF817
:106D60008004016851F48031016008E00021281D91
:106D700000F040FA804602E001E0012080464046F3
:106D8000C0B2002808D1DFF860140A6832F440026B
:106D9000E86B02430A6000E047462868800340F140
:106DA00090805FF00009286D002811D0286DB0F5A3
:106DB000807F0DD0286DB0F5007F09D0286DB0F52B
:106DC000407F05D04FF4A371DFF81004FDF769FD93
:106DD000DFF810A4DAF80000C0000DD4DAF80000E3
:106DE00050F08050CAF80000DAF8000010F080502F
:106DF0000090009801208146DFF8F0B3DBF8000036
:106E000050F48070CBF80000FFF702F90600DBF8C1
:106E10000000C00506D4FFF7FBF8801B0328F6D35B
:106E2000032080464046C0B200283FD1DFF8C0B3FF
:106E3000DBF8000010F440700400002C15D0286D21
:106E4000844212D0DBF8000030F440700400DBF81C
:106E5000000050F48030CBF80000DBF8000030F484
:106E60008030CBF80000CBF80040E0070FD5FFF7EB
:106E7000CFF80600DBF80000800708D4FFF7C8F859
:106E8000801B41F289318842F4D30320804640467A
:106E9000C0B2002808D1DBF8001031F44071286D31
:106EA0000143CBF8001002E0474600E04746484661
:106EB000C0B2012805D1DAF8000030F08050CAF8DD
:106EC00000002878C00719D5286A00280ED0286A43
:106ED00001280BD0286A032808D0286A022805D088
:106EE00040F29B11DFF8F402FDF7DBFCDFF8F8124B
:106EF0000A6892089200286A02430A60287880078C
:106F000019D5686A00280ED0686A04280BD0686A10
:106F10000C2808D0686A082805D040F2A511DFF8CF
:106F2000BC02FDF7BEFCDFF8C0120A6832F00C02AA
:106F3000686A02430A60287880061CD5A86A00287F
:106F400011D0A86AB0F5806F0DD0A86AB0F5406F77
:106F500009D0A86AB0F5006F05D040F2D911DFF86A
:106F60007C02FDF79EFCDFF880120A6832F4406272
:106F7000A86A02430A60286880051CD5686B00284F
:106F800011D0686BB0F5802F0DD0686BB0F5002F75
:106F900009D0686BB0F5402F05D04FF4F171DFF8E0
:106FA0003C02FDF77EFCDFF840120A6832F4402212
:106FB000686B02430A60286840051CD5A86B00284E
:106FC00011D0A86BB0F5801F0DD0A86BB0F5001FD5
:106FD00009D0A86BB0F5401F05D040F2E911DFF8E9
:106FE000FC01FDF75EFCDFF800120A6832F4401283
:106FF000A86B02430A602878400618D5E86A002882
:107000000DD0E86AB0F5805F09D0E86AB0F5005F9E
:1070100005D040F2F111DFF8C401FDF742FCDFF8C2
:10702000C8110A6832F44052E86A02430A602868CC
:10703000C00518D5286B00280DD0286BB0F5803F0F
:1070400009D0286BB0F5003F05D040F20921DFF8E8
:107050008C01FDF726FCDFF890110A6832F440320B
:10706000286B02430A602868800435D5286C002804
:1070700011D0286CB0F1806F0DD0286CB0F1006F8A
:1070800009D0286CB0F1406F05D040F22221DFF822
:107090004C01FDF706FCDFF850110A6832F040623F
:1070A000286C02430A60286CB0F1006F06D1DFF84B
:1070B0003001016851F4801101600DE0286CB0F1DD
:1070C000806F09D10121281D00F094F880464046C8
:1070D000C0B2002800D047462868400335D5686C08
:1070E000002811D0686CB0F1806F0DD0686CB0F1E1
:1070F000006F09D0686CB0F1406F05D04FF41A7181
:10710000DFF8D800FDF7CDFBDFF8DC100A6832F0BD
:107110004062686C02430A60686CB0F1006F06D18F
:10712000DFF8BC00016851F4801101600DE0686C6B
:10713000B0F1806F09D10121281D00F05BF8804675
:107140004046C0B2002800D047462868400426D5F3
:10715000A86C00280DD0A86CB0F1805F09D0A86C95
:10716000B0F1405F05D04FF42271DFF87000FDF7F9
:1071700098FBDFF874100A6832F04052A86C0243A2
:107180000A60A86CB0F1805F09D10221281D00F0CF
:1071900031F880464046C0B2002800D047462868F3
:1071A000000414D5E86C002809D0E86CB0F1804FD9
:1071B00005D04FF42D71DFF82400FDF772FBDFF8E6
:1071C00028100A6832F08042E86C02430A603800F6
:1071D000C0B2BDE8F28F000063EF0600CCBD00082E
:1071E0000C1002405810024088100240007000400D
:1071F000901002402DE9F04105000C00002728689E
:1072000000280ED0286801280BD02868022808D052
:107210002868032805D040F64F31DFF81002FDF74B
:1072200040FB6868002802D06868092805D34FF43D
:107230003561DFF8F801FDF734FBA868082802D3B0
:10724000A868572804D340F651317848FDF729FB48
:10725000A8697749084203D0A8697649084204D052
:1072600040F652317148FDF71CFB7349086810F075
:10727000030F12D0086810F003002A68904209D169
:107280002868002806D00868C0F30210401C69680E
:10729000884232D0012007002FE02868012804D05E
:1072A0001BD303280FD007D317E06448006880077A
:1072B00001D40120070012E060480068400501D4B5
:1072C000012007000BE05D480268920304D40068C7
:1072D000400301D40120070001E00120070038002D
:1072E000C0B2002809D10A6832F07302286802434C
:1072F0006868401E52EA00120A603800C0B20028D6
:1073000040F08F80DFF83481D8F8000030F08060E2
:10731000C8F80000FEF77CFE0600D8F80000000167
:1073200006D5FEF775FE801B0328F6D30320070061
:107330003800C0B2002874D1002C16D1E8680228A9
:1073400002D3E868202804D340F6A5313748FDF77A
:10735000A8FA3B490A683B480240A86852EA002262
:10736000E86852EAC0620A603EE0012C1ED128693A
:1073700002280DD0286904280AD02869062807D0D9
:107380002869082804D040F6C9312848FDF789FA51
:107390002B490A682C480240A86852EA0022286952
:1073A0004008401E52EA40520A601DE06869022807
:1073B0000DD0686904280AD06869062807D0686972
:1073C000082804D040F6DB311848FDF76AFA1C495A
:1073D0000A681E480240A86852EA0022686940080C
:1073E000401E52EA40620A60D8F8000050F0806007
:1073F000C8F80000FEF70CFE0600D8F800000001F7
:1074000006D4FEF705FE801B0328F6D303200700F1
:107410003800C0B2002804D109490A68A8690243AB
:107420000A603800C0B2BDE8F0810000CCBD0008A1
:1074300000001101FFFFEEFE0C10024000100240A0
:1074400010100240FF80FF07FF809FFFFF80FFF9C1
:10745000DFF89800006810F4C060704738B5050088
:10746000B5F5007F07D0B5F5806F04D0A821DFF80F
:107470008000FDF716FAB5F5007F26D1DFF86C0025
:10748000016811F4C061B1F5007F2CD0016831F4BE
:10749000C06151F400710160DFF8580001683220CA
:1074A0004143DFF85400B1FBF0F0401C0400DFF86A
:1074B0004C000168490503D5002C01D0641EF6E795
:1074C000006840050FD503200EE0DFF820000168BA
:1074D00011F4C061B1F5806F05D0016831F4C0616D
:1074E00051F480610160002032BD00000070004056
:1074F0003CBD00080800002040420F00147000400E
:1075000010B50400002C01D1012080E02068404922
:10751000884203D070213F48FDF7C3F9607F0028FF
:1075200004D100202077200001F019F902206077B3
:107530002079002806D02079012803D07E21354803
:10754000FDF7AFF92079002809D133482168486157
:107550002068806830F018002168886008E0E268E0
:10756000A168200001F052FD002801D001204EE06A
:107570006079002806D06079012803D09021254841
:10758000FDF78FF96079002804D15FF0FF302168A2
:10759000086102E0206921680861606900280CD058
:1075A0006069202809D06069402806D06069602899
:1075B00003D09C211748FDF774F92068816831F0E9
:1075C00060016069014320688160A069002806D0DD
:1075D000A069802803D0A0210E48FDF762F9206839
:1075E000816831F08001A069014320688160206AD0
:1075F000012809D0206A022806D0206A032803D077
:10760000A5210448FDF74DF901206077002010BD49
:10761000003002405CBE0008B71DC1042DE9F041F6
:1076200004000D0016005FF000080220607720685B
:10763000806850F0010021688860206A012812D01B
:107640001FD3032801D015D31BE000200700B74249
:1076500005D255F82700216808607F1CF7E72068ED
:10766000006880460DE032002900200000F00EF88E
:10767000804606E032002900200000F053F88046E2
:10768000FFE7012060774046BDE8F081F0B40026B6
:10769000B6EB920F14D211F8263001EB86077F78F3
:1076A0003F0457EA036701EB86039B7857EA0327F9
:1076B00001EB8603DB781F4303681F60761CE7E756
:1076C00012F0030F2AD012F00303012B03D111F89B
:1076D000263007683B7012F00303022B0AD111F821
:1076E000263001EB86077F7857EA03273C000368C2
:1076F0001D002C8012F00303032B0FD111F826304C
:1077000001EB86077F7857EA03273C0003681D00DA
:107710002C8001EB86039B7807683B70006800684B
:10772000F0BC704770B40024B4EB520F0BD231F8A8
:107730002450660001EB4606768856EA0546056841
:107740002E60641CF0E7D50704D505682B0031F8DE
:1077500024501D800068006870BC704710B504009C
:10776000002C01D10120D3E02068DFF824138842E7
:107770000AD02068DFF81C13884205D04FF4EF715F
:10778000DFF81403FDF78DF8A068B0F5806F05D31E
:1077900040F2DF11DFF80003FDF783F8E06801280D
:1077A00008D0E068022805D04FF4F071DFF8E80255
:1077B000FDF777F82069002809D02069B0F5004F5F
:1077C00005D040F2E111DFF8D002FDF76AF86069F8
:1077D000B0F5807F05D34FF4F171DFF8BC02FDF7FF
:1077E00060F8A06900281AD0A069012817D0A06904
:1077F000022814D0A069032811D0A06904280ED053
:10780000A06905280BD0A069062808D0A069072820
:1078100005D040F2E311DFF88002FDF742F8E0699D
:10782000002809D0E069B0F5002F05D04FF4F271BF
:10783000DFF86402FDF735F8206A002809D0206AD5
:10784000B0F5003F05D040F2E511DFF84C02FDF73E
:1078500028F894F84100002805D1002084F8400061
:10786000200000F08DFF242084F84100206800688B
:107870004008400021680860606830F0706021684E
:1078800008612068806830F4004021688860E06802
:10789000012805D1A06850F400402168886004E008
:1078A000A06850F4044021688860E068022803D191
:1078B0004FF40060216848602068406840F0007024
:1078C00050F40040216848602068C06830F40040EF
:1078D0002168C860216960690143A06951EA0021FB
:1078E0002068C160E169206A014320680160206866
:1078F000006850F0010021680860002060642020CA
:1079000084F8410000202063002084F84200002019
:1079100010BD2DE9F84304000D0016001F00DDF82E
:10792000208094F84100202840F0AF8094F8400077
:10793000012801D10220A9E0012084F84000FEF7CF
:1079400067FB8146CDF80090192301224FF40041D6
:10795000200000F0B9F8002801D0012096E0212095
:1079600084F84100102084F84200002060646662C0
:10797000678500206063608DB0F5807F0ED3FF20A7
:107980002085DFF8180100905FF08073228DD2B25D
:10799000290089B2200000F060F90DE0608D20859B
:1079A000DFF8F80000905FF00073228DD2B229005A
:1079B00089B2200000F051F9608D002847D04A4676
:1079C0004146200000F0AFF8002801D001205DE022
:1079D000606A007821688862606A401C6062608D1D
:1079E000401E6085208D401E2085608D0028E3D0DC
:1079F000208D0028E0D1CDF8009043460022802160
:107A0000200000F061F8002801D001203EE0608DE8
:107A1000B0F5807F0DD3FF202085002000905FF01F
:107A20008073228DD2B2290089B2200000F015F9AE
:107A3000C2E7608D2085002000905FF00073228DEA
:107A4000D2B2290089B2200000F007F9B4E74A4613
:107A50004146200000F093F8002801D0012015E0F5
:107A600020202168C86120684168DFF834000140A7
:107A700020684160202084F84100002084F8420002
:107A8000002084F84000002000E00220BDE8F283DE
:107A900000540040005C004074BF000800200080DB
:107AA00000E800FE01688969890702D500210268A3
:107AB000916201688969C90705D40168896951F033
:107AC00001010268916170472DE9F04105000E0047
:107AD00090461C00069F286880693040B04201D162
:107AE000012000E000204146C9B2884218D114F1BB
:107AF000010FF0D0FEF78CFAC01B844201D3002C9A
:107B0000E9D1686C50F020006864202085F84100BD
:107B1000002085F84200002085F84000012000E0A8
:107B20000020BDE8F08170B505000C001600286843
:107B30008069800721D432002100280000F048F835
:107B4000002801D0012019E014F1010FEFD0FEF759
:107B50005FFA801B844201D3002CE8D1686C50F09E
:107B600020006864202085F84100002085F842004C
:107B7000002085F84000012000E0002070BD70B5B5
:107B800005000C0016002868806980061ED43200AB
:107B90002100280000F01CF8002801D0012016E088
:107BA000FEF736FA801B844201D3002CEBD1686CBF
:107BB00050F020006864202085F84100002085F8FE
:107BC0004200002085F84000012000E0002070BD48
:107BD00070B505000C00160028688069C0063AD50B
:107BE00028688069800618D414F1010FF8D0FEF7D8
:107BF0000FFA801B844201D3002CF1D1686C50F045
:107C000020006864202085F84100002085F84200AB
:107C1000002085F8400001201EE010202968C8617E
:107C200020202968C8612800FFF73CFF28684168C8
:107C30002E48014028684160686C50F00400686478
:107C4000202085F84100002085F84200002085F8BA
:107C50004000012000E0002070BD2DE9F041060049
:107C60000F0090461C00069D30682149884208D0CC
:107C700030682049884204D041F6AC011E48FCF728
:107C800010FEB4F1807F09D0B4F1007F06D0002C43
:107C900004D041F6AD011848FCF703FE17488542B1
:107CA0000CD01748854209D00F48854206D0002DD8
:107CB00004D041F6AE011048FCF7F3FD306840688F
:107CC000104951EA55518843390089B28905890D17
:107CD00008434146C9B250EA014020432843316875
:107CE0004860BDE8F08100000020008000E800FE50
:107CF00000540040005C004074BF00080040008059
:107D000000240080FF63FF0338B505000C002868DD
:107D10004349884207D028684249884203D06421F9
:107D20004148FCF7BEFD002C06D0B4F5805F03D0BF
:107D300065213D48FCF7B5FD95F8410020282AD182
:107D400095F84000012801D1022025E0012085F8A6
:107D50004000242085F84100286800684008400061
:107D6000296808602868006830F480502968086035
:107D7000286800682043296808602868006850F077
:107D8000010029680860202085F84100002085F85E
:107D90004000002000E0022032BD38B504000D0094
:107DA00020681F49884207D020681E49884203D0B6
:107DB00092211D48FCF775FD102D03D393211A481D
:107DC000FCF76FFD94F84100202827D194F840007B
:107DD000012801D1022022E0012084F84000242063
:107DE00084F841002068006840084000216808606D
:107DF0002068016831F4706151EA05212068016052
:107E00002068006850F0010022681060202084F88B
:107E10004100002084F84000002000E0022032BD34
:107E200000540040005C0040ACBC000810B50400E9
:107E3000002C01D101202EE12068DFF83C1588429A
:107E40000AD02068DFF83415884205D04FF4A271BB
:107E5000DFF82C05FCF725FD6068002809D0606874
:107E6000B0F5827F05D040F24511DFF81405FCF72C
:107E700018FDA06800280DD0A068B0F5806F09D06B
:107E8000A068B0F5004F05D04FF4A371DFF8F004FF
:107E9000FCF707FDE068B0F5706F35D0E068B0F52D
:107EA000606F31D0E068B0F5506F2DD0E068B0F56C
:107EB000406F29D0E068B0F5306F25D0E068B0F5AC
:107EC000206F21D0E068B0F5106F1DD0E068B0F5EC
:107ED000006F19D0E068B0F5E06F15D0E068B0F53C
:107EE000C06F11D0E068B0F5A06F0DD0E068B0F5BC
:107EF000806F09D0E068B0F5407F05D040F24711AF
:107F0000DFF87C04FCF7CDFCA069B0F5007F0CD055
:107F1000A069002809D0A069B0F5802F05D04FF4E2
:107F2000A471DFF85C04FCF7BCFC606B082808D087
:107F3000606B002805D040F24911DFF84404FCF7DB
:107F4000B0FCE06900281AD0E069082817D0E06981
:107F5000102814D0E069182811D0E06920280ED02C
:107F6000E06928280BD0E069302808D0E06938287B
:107F700005D04FF4A571DFF80804FCF792FC206AE5
:107F8000002808D0206A802805D040F24B11DFF885
:107F9000F003FCF786FC606A002808D0606A1028AD
:107FA00005D04FF4A671DFF8D803FCF77AFC606ABD
:107FB000002817D12069002808D02069022805D0A0
:107FC00040F24F11DFF8B803FCF76BFC6069002842
:107FD00008D06069012805D04FF4A871DFF8A0032C
:107FE000FCF75FFC0020A06294F85D00002805D13A
:107FF000002084F85C00200000F0F2FB022084F8EE
:108000005D002068006830F040002168086040F2A0
:108010000172E068904201D3002101E04FF48051E9
:10802000E068B0F5706F05D0E068B0F5E06F01D0A2
:108030000020A062206B002807D1E068904202D3A4
:108040000220206301E0012020636268A0680243EF
:108050002069024360690243A06910F40070024382
:10806000E0690243206A0243A06A0243206802607A
:10807000A269120C12F00402606A0243606B0243B0
:10808000E06802430A432068426000202066012025
:1080900084F85D00002010BD2DE9FE4F07000D00A3
:1080A000160098460C9C5FF001095FF0000AB86862
:1080B000002805D040F2BF41DFF8C402FCF7F1FB15
:1080C00097F85C00012801D1022053E1012087F8D4
:1080D0005C00FDF79DFF834697F85D008DF800007A
:1080E00078680290ADF80280ADF804809DF8000039
:1080F00001280DD00298B0F5827F06D1B86800281B
:1081000003D19DF80000042802D00220824629E114
:10811000002D05D0002E03D0404680B2002802D1A9
:10812000012082461EE197F85D00042802D0052058
:1081300087F85D00002038663E64A7F84680A7F8FF
:108140004480BD63A7F83E80A7F83C800020F86417
:108150000020386540F20170F968814203D2BDF811
:108160000410022906D33968496831F480513A680D
:10817000516005E03968496851F480513A685160AE
:1081800039680968490605D43968096851F0400121
:108190003A681160F968814250D37868002803D0AA
:1081A000BDF80200012809D1B86B00883968C860A1
:1081B000B86B801CB863F88F401EF887F88F0028D2
:1081C00004D1B7F84600002800F0C1803868806804
:1081D000800711D5F88F00280ED0B9F1010F0BD10F
:1081E000B86B00883968C860B86B801CB863F88FBA
:1081F000401EF8870020814638688068C00711D586
:10820000B7F8460000280DD03868C068396C08807F
:10821000386C801C3864B7F84600401EA7F846004A
:1082200001208146FDF7F4FEB0EB0B00A042C5D360
:1082300014F1010FC2D00320824693E07868002831
:1082400003D0BDF80200012817D1F88F02280AD305
:10825000B86B00883968C860B86B801CB863F88F49
:10826000801EF88709E0B86B007839680873B86B2E
:10827000401CB863F88F401EF887F88F002803D1A0
:10828000B7F84600002862D03868806880071FD59C
:10829000F88F00281CD0B9F1010F19D1F88F0228EE
:1082A0000AD3B86B00883968C860B86B801CB863A3
:1082B000F88F801EF88709E0B86B0078396808737A
:1082C000B86B401CB863F88F401EF88700208146C9
:1082D00038688068C0072CD5B7F84600002828D039
:1082E000B7F84600022816D33868C068396C088091
:1082F000386C801C3864B7F84600801EA7F846002A
:10830000B7F84600022812D23868406850F480500E
:10831000396848600BE03868007B396C0870386C4D
:10832000401C3864B7F84600401EA7F846000120FC
:108330008146FDF76DFEB0EB0B00A04202D314F1B5
:10834000010F01D1002C98D1032082460AE05A4641
:108350002100380000F0B8F8002803D00120824640
:1083600020203866012087F85D00002087F85C0037
:108370005046C0B2BDE8FE8F00300140003C0040D6
:108380008CC000082DE9F04105000E0090461C004D
:10839000069F286880683040B04201D1012000E08B
:1083A00000204146C9B2884239D014F1010FF0D003
:1083B000FDF72EFEC01BA04201D2002CE9D1286897
:1083C000406830F0E000296848606868B0F5827F56
:1083D0000DD1A868B0F5004F03D0A868B0F5806F44
:1083E00005D12868006830F0400029680860A86A54
:1083F000B0F5005F0BD12868006830F400502968A0
:1084000008602868006850F400502968086001205E
:1084100085F85D00002085F85C00032000E0002066
:10842000BDE8F0812DE9F04106000F0014001D00A9
:10843000DDF81880306880683840A04241D0B7F538
:10844000C06F03D1002C01D13068007B15F1010F02
:10845000F0D0FDF7DDFDB0EB0800A84201D2002D01
:10846000E8D13068406830F0E000316848607068FA
:10847000B0F5827F0DD1B068B0F5004F03D0B06881
:10848000B0F5806F05D13068006830F04000316889
:108490000860B06AB0F5005F0BD13068006830F456
:1084A0000050316808603068006850F4005031684E
:1084B0000860012086F85D00002086F85C0003203B
:1084C00000E00020BDE8F0817CB504000D0016003E
:1084D00000962B0000224FF4C0512000FFF7A2FFAE
:1084E000002805D0206E50F02000206603201FE0F9
:1084F00000962B00002280212000FFF743FF002878
:1085000005D0206E50F020002066032010E0009679
:108510002B0000224FF4C0612000FFF783FF0028EA
:1085200005D0206E50F020002066032000E00020DF
:1085300076BD000010B410F00703DFF87041226828
:108540004FF6FF010A40DFF8681151EA03210A43A0
:10855000226010BC7047DFF854010068C0F30220AD
:10856000704710B4020052B2002A06D40A01DFF8A4
:108570004431040064B21A5509E00A01DFF83831C9
:10858000040064B214F00F04234403F8042C10BC5C
:10859000704770B4030013F00704D4F107000528F6
:1085A00001D3042001E0D4F10700251D072D01D2DD
:1085B000002500E0E51E012616FA00F0401E0140ED
:1085C000A94016FA05F56D1E2A401143080070BC3B
:1085D0007047BFF34F8FDFF8D4100A6812F4E062DF
:1085E000DFF8D80002430A60BFF34F8F00BFFDE7FA
:1085F00010B50400601EB0F1807F01D3012011E0AE
:10860000601EDFF8BC1008600F215FF0FF30FFF73D
:10861000A8FF0020DFF8AC1008600720DFF8A810E2
:108620000860002010BD10B50400072C0CD0062CEB
:108630000AD0052C08D0042C06D0032C04D0A72186
:10864000DFF88800FCF72DF92000FFF773FF10BD5D
:108650002DE9F04104000D0016000027102E04D370
:10866000BF21DFF86800FCF71CF9102D04D3C021EE
:10867000DFF85800FCF715F9FFF76DFF8046320070
:1086800029004046FFF785FF0100200040B2FFF7B8
:1086900068FFBDE8F08180B5FFF79BFF01BD10B515
:1086A00004002000FFF7A4FF10BD00000CED00E067
:1086B0000000FA0500E400E018ED00E00400FA050F
:1086C00014E000E018E000E010E000E08CBB0008DF
:1086D00038B5040000251349086800281DD04FF460
:1086E0007A700968B0FBF1F00F490968B1FBF0F04E
:1086F000FFF7D5FF00280DD1102C08D20022210051
:108700005FF0FF30FFF7A4FF0848046007E0012096
:10871000050004E00120050001E00120050028001B
:10872000C0B232BD0400002008000020000000207C
:1087300081B07A48016851F001010160006810F0D1
:108740000100009000987648016851F08051016066
:10875000006810F080500090009801B0704781B020
:108760000168704A914209D16F490A6852F48052F7
:108770000A60096811F480510091009901B07047B6
:1087800010B586B004001422002101A800F08EFC70
:1087900020686649884221D16548016851F002018C
:1087A0000160006810F0020000900098C020019065
:1087B00012200290012003900320049004200590D1
:1087C00001A95C48FCF74AFB5548016851F40011C7
:1087D0000160006810F400100090009806B010BD11
:1087E00010B586B0040014220021684600F05EFC3B
:1087F00020685149884235D14848016851F4805178
:108800000160006810F480500590059848480168A0
:1088100051F001010160006810F001000590059819
:10882000E02000900220019000200290032003909D
:108830000520049069465FF09040FCF70FFB102084
:1088400000900120019000200290002003906946D2
:108850005FF09040FCF702FB012210215FF0904096
:10886000FCF78AFC06B010BD10B586B004001422D7
:108870000021684600F01AFC20683049884224D163
:108880002648016851F480410160006810F480407E
:10889000059005982648016851F0010101600068C3
:1088A00010F00100059005984FF4C0600090022080
:1088B0000190002002900320039007200490694655
:1088C0005FF09040FCF7CAFA26E020681C49884215
:1088D00022D11348016851F400310160006810F49E
:1088E0000030059005981248016851F001010160BF
:1088F000006810F00100059005980C2000900220FF
:108900000190002002900320039007200490694604
:108910005FF09040FCF7A2FA06B010BD6010024074
:1089200058100240003002404810024000540040FD
:108930004C10024000040048003001400038014063
:1089400000440040F8B586B004000D002800C0B215
:108950000F2804DB2821DFF8D003FBF7A2FF012159
:10896000002201AE3000FDF76FFB0F21002202AEA6
:108970003000FDF769FB002210215FF09040FCF70A
:10898000FBFBDFF8A87332200090012302AA01A9A3
:108990003800FFF781FB0600322000902B00DBB28D
:1089A00013F00F0302AA21003800FFF775FB070040
:1089B0003743012210215FF09040FCF7DDFB0A20D5
:1089C000FCF734FC3800C0B207B0F0BD3EB5DFF8AC
:1089D000600300788DF805000121002201AC200021
:1089E000FDF732FB0024002210215FF09040FCF7DD
:1089F000C3FB00259DF80400082817D02800C0B24A
:108A0000FE2813DA6D1C32200090012301AA0DF11B
:108A10000501DFF81803FFF73FFB204304009DF832
:108A2000040010F008008DF80400E3E70122102193
:108A30005FF09040FCF7A0FB0A20FCF7F7FB280052
:108A4000C0B2FE2801DB012004002000C0B23EBD00
:108A5000F8B586B00400DFF8DC0200788DF8040079
:108A60000F21002202AD2800FDF7EEFA00221021AE
:108A70005FF09040FCF780FBDFF8B05232200090AE
:108A8000012302AA01A92800FFF706FB06003220F5
:108A900000900223220002A92800FFF7FDFA070038
:108AA0003743207880280ED1607800280BD0322000
:108AB0000090637813F00F03A21C02A92800FFF7AF
:108AC000EBFA38430700012210215FF09040FCF7D9
:108AD00053FB0A20FCF7AAFB3800C0B207B0F0BD78
:108AE00018B589B0DFF8500200788DF800001E211B
:108AF000002201AC2000FDF7A7FA012401216846FD
:108B0000FFF720FF00280ED1FFF760FF00280AD1F1
:108B100001A8FFF79DFF002805D19DF80400552806
:108B200001D1002004002000C0B20AB010BD18B569
:108B3000C1B06846DFF804120A68026001A8DFF8D5
:108B400000124FF48072FCF7B9FC0124042168463E
:108B5000FFF7F8FE002812D1FFF738FF00280ED1EA
:108B600001A8FFF775FF002809D19DF8040000282F
:108B700005D19DF80500002801D100200400200047
:108B8000C0B242B010BD18B5C1B06846DFF8B4112C
:108B90000A68026001A8DFF8B0114FF48072FCF798
:108BA0008DFC012404216846FFF7CCFE002812D179
:108BB000FFF70CFF00280ED101A8FFF749FF00289E
:108BC00009D19DF80400002805D19DF80500002872
:108BD00001D1002004002000C0B242B010BD10B589
:108BE00004002000C0B2012802D0022803D005E012
:108BF000FFF79DFF03E0FFF7C6FF00E0012010BD77
:108C00002DE9F04788B004000D0016001E21002257
:108C10006F463800FDF718FA8E272900C9B22000E8
:108C2000FFF790FE002849D1FFF7D0FE002845D17C
:108C30006846FFF70DFF002840D19DF80000307016
:108C40003078802838D168464178042936DB40786E
:108C5000C01E707096F801800DF1020916F1020A2B
:108C6000424649465046FCF719FC6846717808446C
:108C7000807886F8FC00684671780844C07886F8E9
:108C8000FD00684671780844007986F8FE0096F881
:108C9000FDA04FF4807196F8FC0001FB0A0A717880
:108CA000B01C00F031F85146020009B212B29142F4
:108CB00004D131780F0001E0307807003800C0B2ED
:108CC00008B0BDE8F0872DE9F041C2B00400684665
:108CD0001E49D1E90023C0E9002302AA0521684604
:108CE000FFF78EFF0500082602A89DF8091008442A
:108CF000871FA046320039004046FCF7CFFB280012
:108D0000C0B242B0BDE8F08138B504000D002A00C1
:108D1000D2B221000E48FEF781FC80F47F4090F033
:108D2000FF0080B232BD000068C200085C0D002068
:108D30002A5200082B520008425500084CC5000872
:108D40008CB9000850C500088CBA00083CC5000862
:108D50000C0E002018B585B0142100226C462000AE
:108D6000FDF772F9002210215FF09040FCF704FA41
:108D7000102000900120019000200290022003901A
:108D800069465FF09040FCF769F8012210215FF01E
:108D90009040FCF7F1F99620FCF748FA00221021E8
:108DA0005FF09040FCF7E8F93220FCF73FFA01222F
:108DB00010215FF09040FCF7DFF90A20FCF736FA4B
:108DC00006B010BDBBBBE1B1B2F5803F80F07E8044
:108DD000022A1ED98C46B1FBF2F102FB11C31B041F
:108DE00043EA1043B3FBF2FC02FB1C3380B240EABF
:108DF0000343B3FBF2F002FB103240EA0C400023C5
:108E00007047022A05D98446B0FBF2F002FB10C27B
:108E100070474AB105D100F0010249085FEA30000D
:108E2000704700220023704700F04AB90B0002008F
:108E3000002100207047904271EB030CF6D3B3F58C
:108E4000803F2FD2F0B5B3FA83F7B1FA81F4A7F1DE
:108E50000F0E3D1B5340CEF1200602FA0EF2F341F5
:108E60005340B5F10F0746D80F3C2C444140C4F1A4
:108E70002006A040F1414140B1FBF3F603FB16117F
:108E8000A2FB0645001BA94102D2761E801859415B
:108E900080EA010221FA0EF362FA0EF200215A4032
:108EA0003046F0BD30B4B1FBF3FC03FB1C11A2FB58
:108EB0000C45001BA94103D2ACF1010C80185941AB
:108EC00030BC02460B46604600217047B2F1807FFD
:108ED00065D3F0B5B2FA82F7B1FA81F4C7F10F06A3
:108EE0003D1B22FA06F307F1110EF24120355A40DC
:108EF000B5F10F07B8D94140C4F12006A040F141B7
:108F00004140B1FBF3FC03FB1C11A2FB0C45001B11
:108F1000A94103D2BCF1010C801859410F2F12D383
:108F20000F3FC90341EA5041B1FBF3F603FB1611B1
:108F3000A2FB0645D4EBC030A94102D2761E8018B0
:108F4000594146EACC3C07B34140C7F12006B8403E
:108F5000F1414140B1FBF3F603FB1611A2FB0645BC
:108F6000001BA94102D2761E8018594180EA0102F5
:108F700021FA0EF3C7F1200462FA0EF20CFA07F0A0
:108F80005A402CFA04F13043F0BD80EA010221FA84
:108F90000EF3002162FA0EF260465A40F0BD8C4694
:108FA000B1FBF2F102FB11C31B0243EA1063B3FBF6
:108FB000F2FC02FB1C331B024CEA002043EA106364
:108FC000B3FBF2FC02FB1C331B024CEA002043EA19
:108FD0001063B3FBF2FC02FB1C331B024CEA0020C3
:108FE00043EA1063B3FBF2FC02FB1C324CEA0020A4
:108FF00000237047C9B202788A421AB11CBF10F828
:10900000012FF9E718BF0020704700002DE9F0415B
:1090100005000E00140000275FF01F08002C09D087
:10902000082C07D0102C05D0182C03D05F211E4827
:10903000FBF737FC4046B0F10108002805D018F0D6
:109040001F003100C140C807F4D52000002817D008
:1090500008280FD0102807D0182812D1B8F1070F10
:1090600001D3012007000EE0B8F1080F01D3012061
:10907000070008E0B8F1100F01D30120070002E05B
:1090800001E0012007003800C0B2002808D128689C
:1090900046612868806830F018002043296888609D
:1090A0003800C0B2BDE8F0811CBC000810B5044611
:1090B00010460A4601462046FCF7C6FF204610BD72
:1090C0007047F0B503000A000020117833F8214002
:1090D00048F68F110C40D178002905D0022906D01E
:1090E00009D3032904D009E054F4007408E007E030
:1090F00054F4C06404E054F4806401E001210800E9
:1091000048F2800555EA0401167823F8261048F63F
:109110008F76117833F82170374011780F432F4341
:10912000117823F82170117B002940F0A880517834
:10913000002941D01900B3F85070CF19117817EBFE
:10914000C10111F58061B2F806C01FFA8CFC5FEA1C
:109150005C0C5FEA4C0CA1F800C0117833F82110C8
:109160008C461FFA8CFC5FEA4C6C0AD5177833F8F2
:1091700027703E4046F4004656F0C006177823F8A4
:109180002760D17801290CD0117833F8216048F696
:10919000BF710E4096F020063543117823F8215018
:1091A00041E1117833F8216048F6BF710E40354334
:1091B000117823F8215036E11900B3F85070CF1917
:1091C000117817EBC10101F20441B2F806C01FFA91
:1091D0008CFC5FEA5C0C5FEA4C0CA1F800C0190043
:1091E000B3F850C011EB0C0C11781CEBC10E0EF251
:1091F000064E116900290DD1BEF8007048F2FF310A
:109200000F40AEF80070BEF8001051F40041AEF807
:10921000001013E011693E2909D211694908177C31
