:020000040800F2
:100000000812002041C2000889C000088BC0000807
:1000100093C0000895C0000897C0000800000000C9
:1000200000000000000000000000000099C000086F
:100030009BC00008000000009DC000089FC0000891
:1000400009C300080DC3000811C3000815C3000848
:1000500019C300081DC30008B5C0000821C300086B
:1000600025C3000829C300082DC3000831C30008B8
:1000700035C3000839C300083DC3000841C3000868
:1000800045C3000849C300084DC3000851C3000818
:1000900055C3000859C300085DC3000861C30008C8
:1000A00065C3000869C300086DC3000871C3000878
:1000B00075C30008000000000000000079C30008BC
:1000C0007DC30008000000000000000081C300089C
:1000D0000000000085C3000889C30008000000007C
:1000E0008DC3000891C3000800000000000000005C
:1000F0000000000000000000000000000000000000
:1001000000000000000000000000000095C300088F
:10011000000000000000000099C300089DC3000813
:10012000A1C30008A5C30008A9C30008ADC3000807
:10013000B1C3000800000000000000000000000043
:10014000B5C30008B9C30008BDC30008A7C00008B4
:10015000C1C30008C5C30008C9C30008CDC3000857
:10016000D1C30008D5C30008D9C3000800000000AF
:10017000DDC30008E1C3000800000000000000002B
:10018000E5C30008E9C30008EDC300080000000053
:100190000000001000000003FFC000001E00380037
:1001A0000070F0040000C0F801000180F8000003B6
:1001B00000F8000006007F00000C007F800018009F
:1001C000FFE0001800E0F0003000E060003001E0E7
:1001D00000003007E0000060EF80000061FE0000DA
:1001E0000061FE00000061FE00000060EE00000003
:1001F000600F0000007007C000003001E000003018
:1002000000E000003800E000001800F070001C0062
:10021000F5E0000E003FC0000600FF00000701F0FF
:10022000000003C1F8000000E1F001000078600662
:1002300000001F0018000007FFE0000000FE0000A3
:1002400000000000000000000000000000000000AE
:10025000000000000000000000000000000000009E
:10026000000000000000000000000000000000008E
:10027000000000000000000000000000000000007E
:1039C0000000000000000000000000002DE9F04FA2
:1039D0009BB05FF0000800F073FE00F0CAFC00F03E
:1039E0009BFD00F026FD00F043FD00F06DFD00F0B2
:1039F000EFFD00F088FE00F0A7FE01F01EF90020A8
:103A000000F020FF282000902823DFF8002C0C2154
:103A1000002001F059F8012000901023DFF8F02B6E
:103A20000821322001F006F800F0E1FE4FF4FA50D0
:103A300001F022F9012000900C23DFF8D82B172188
:103A4000282000F0F7FFA6A40120009010232200F8
:103A50002321372000F0EEFF00F0C9FEDFF8B80B9D
:103A600000F046FC0A2001F007F900F0D9F98DF8C2
:103A700004009DF80400002807D10C23DFF89C2BDC
:103A80002A21192000F06DFAF3E700200100C9B2E5
:103A90000F290DDADFF8881B0200D2B21144C97A6F
:103AA0003039DFF8802B0300DBB2D154401CEDE746
:103AB000DFF8745B10232A003221192000F051FA3C
:103AC000DFF8686B002030705FF0000A3078002863
:103AD00004D0022800F0A48043D303E100F009FEE3
:103AE00000283DD1012000F0FDFD002838D1DFF88D
:103AF000409B484600F001FE802831D1002089F823
:103B00000700DFF830BB5946484601F041F900286C
:103B100011D1002080464046C0B210280BDA404642
:103B2000C0B21BF8000030304146C9B20BF80100AA
:103B300018F10108EFE7DFF8000B0168096831F0C0
:103B40004001006801600C23DFF8F02A37211120C2
:103B500000F007FA012030704FF4FA7001F08CF891
:103B6000B2E700F02DFA07003800C0B2FF2853D0AA
:103B70003800C0B223281AD03800C0B22A2816D084
:103B8000DFF8BC0A0178491C0170DFF8B82A17F188
:103B900030010078104400F8011C012000900C2333
:103BA00028212D2000F046FF00F021FE34E03800EF
:103BB000C0B22A2823D1DFF88C9ADFF8841A0020BB
:103BC0000A784A4402F8010C0878002803D00878E3
:103BD000401E087001E0002008700C23DFF85C2A0A
:103BE0003721112000F0BDF9012000900C234A4636
:103BF00028212D2000F01EFF00F0F9FD0CE0380018
:103C0000C0B2232808D1022030700C23DFF8382AF4
:103C10003721112000F0A5F96E2001F02DF853E7AF
:103C200000F0CEF907003800C0B2FF2853D03800AA
:103C3000C0B223281AD03800C0B22A2816D0DFF824
:103C40000C0A0178491C0170DFF8042A17F13001D1
:103C50000078104400F8011C012000900C2328215A
:103C60002D2000F0E7FE00F0C2FD34E03800C0B2C5
:103C70002A2823D1DFF8D899DFF8D01900200A7854
:103C80004A4402F8010C0878002803D00878401E46
:103C9000087001E0002008700C23DFF8AC29372100
:103CA000112000F05EF9012000900C234A462821E3
:103CB0002D2000F0BFFE00F09AFD0CE03800C0B2ED
:103CC000232808D1032030701023DFF888292D2104
:103CD000192000F046F96E2000F0CEFFF4E600BF98
:103CE0002E0000005046C0B205286DDA42F210796D
:103CF0004A46DFF86419DFF8640900F026FA02A8E2
:103D0000DFF85C19642201F0FFF81AF1010A02A839
:103D100000F0FAF95FF0000B5846C0B210280EDA36
:103D20004FF47A730122DFF80C095946C9B20144F5
:103D3000DFF8300901F094F91BF1010BECE7DFF833
:103D4000280900F0E1F9DFF8080900F0DDF9DFF8F3
:103D50001C0900F0D9F9DFF8EC0800F0D5F9DFF81C
:103D6000100900F0D1F9DFF8BC0800F0CDF90FF22E
:103D7000442B4A46594690A000F0E7F90028B1D0FC
:103D800001200090102322002821372000F052FE4D
:103D900000F02DFD0A2000F06FFF4A465946DFF87B
:103DA000D40800F0D2F900289CD0494683A000F046
:103DB0003FFA002896D01023DFF8BC2832211920C2
:103DC00000F0CFF8002082464FF4FA7000F054FF64
:103DD0005046C0B200280AD01023DFF8A0282F21B7
:103DE000192000F0BEF84FF4FA6000F045FF1023F0
:103DF0002A003221192000F0B4F8DFF8540800F04E
:103E000097F9DFF8400800F093F90020DFF8301848
:103E100008700020DFF8341808700020307053E676
:103E20007CB5002000F00EFD282000902823DFF84C
:103E3000DC270C21002000F047FE01200090102319
:103E4000DFF8CC270821322000F0F4FD012000909B
:103E50000C23DFF8C0271721282000F0EBFDB2A4C7
:103E600001200090102322002321372000F0E2FDE2
:103E700000F0BDFC4FA542F2107632002900ABA045
:103E800000F063F900286AD001200090102322007E
:103E900023213C2000F0CEFD00F0A9FC0A2000F018
:103EA000EBFE32002900DFF8D80700F04EF90028B9
:103EB00053D001200090102322002321412000F044
:103EC000B9FD00F094FC0A2000F0D6FE3200290073
:103ED000DFF8B00700F039F900283CD0012000904D
:103EE000102322002321462000F0A4FD00F07FFCD7
:103EF0000A2000F0C1FE32002900DFF8600700F060
:103F000024F9002825D0012000901023220023212D
:103F10004B2000F08FFD00F06AFC0A2000F0ACFEA0
:103F200032002900DFF8600700F00FF900280ED0FA
:103F300001200090102322002321502000F07AFD60
:103F400000F055FC0A2000F097FE012008E0002058
:103F500006E0002004E0002002E0002000E0002055
:103F600076BDF8B504000D0016001F00002000F01B
:103F700069FC282000902823DFF890260C210020DF
:103F800000F0A2FD012000901023DFF8842602211A
:103F90003E2000F04FFD012000903B00DBB23200DC
:103FA0002100C9B22800C0B200F044FD00F01FFC9F
:103FB000F1BD00004F4B0000220000003230300005
:103FC00010B5DFF8C84601220821200001F0B8FE34
:103FD00000224FF400615FF0904001F0B1FE00223A
:103FE0000121200001F0ACFE08215FF0904001F0BB
:103FF00091FE012801D1012085E00221200001F07D
:1040000089FE012801D104207DE001215FF090406C
:1040100001F080FE012801D1072074E04FF4807187
:104020005FF0904001F076FE012801D12A206AE07D
:1040300000220821200001F083FE01224FF40061DC
:104040005FF0904001F07CFE00220121200001F091
:1040500077FE08215FF0904001F05CFE012801D15D
:10406000022050E00221200001F054FE012801D17D
:10407000052048E001215FF0904001F04BFE01284F
:1040800001D108203FE04FF480715FF0904001F0D3
:1040900041FE012801D1002035E000220821200046
:1040A00001F04EFE00224FF400615FF0904001F0FD
:1040B00047FE01220121200001F042FE08215FF0AD
:1040C000904001F027FE012801D103201BE00221CE
:1040D000200001F01FFE012801D1062013E001217C
:1040E0005FF0904001F016FE012801D109200AE09E
:1040F0004FF480715FF0904001F00CFE012801D177
:10410000232000E0FF2010BD10B50400200001F0C6
:1041100071FE02004FF47A7392B22100DFF8440579
:1041200000F09EFF10BD00002E0000004154000072
:1041300010B50400200001F05DFE0021814203DA89
:1041400000226254491CF9E710BD2DE9F34F81B0FC
:10415000140000250026DFF838753800FFF7E8FF67
:1041600001F064FE804601F061FE8146019801F095
:1041700041FEDFF8F0A44FF47A73020092B2019985
:10418000504600F06DFF4FF47A730222B7A15046FB
:1041900000F066FFDFF8FCB44FF47A730122594651
:1041A000504600F0CAFF002807D001F03FFEB0EBF8
:1041B00008008442EED2002038E001F037FE80464D
:1041C0009BF800003100C9B27854761C01F02EFE35
:1041D000B0EB0800A04223D24FF47A730122594673
:1041E000504600F0AAFF002809D19BF800003100DA
:1041F000C9B27854761C01F019FE8146E6E701F059
:1042000015FEB0EB09006528E0D30299380001F0F3
:1042100013FE002802D00120050001E00020050067
:104220002800C0B20028B5D0280040B2BDE8FE8FFB
:104230002DE9F14F0C0000250026DFF854743800FA
:10424000FFF776FF01F0F2FD804601F0EFFD8146B9
:10425000DFF810A4DFF83CB44FF47A73012259461A
:10426000504600F06AFF002807D001F0DFFDB0EBF8
:1042700008008442ECD2002038E001F0D7FD8046EF
:104280009BF800003100C9B27854761C01F0CEFDD5
:10429000B0EB0800A04223D24FF47A7301225946B2
:1042A000504600F04AFF002809D19BF80000310079
:1042B000C9B27854761C01F0B9FD8146E6E701F0F9
:1042C000B5FDB0EB09006528E0D30099380001F096
:1042D000B3FD002802D00120050001E00020050008
:1042E0002800C0B20028B3D0280040B2BDE8F28F49
:1042F0002DE9F843040000255FF00009C84E3000A6
:10430000FFF716FF200001F075FD0200D54F4FF4B6
:104310007A7392B22100380000F0A2FE4FF47A7353
:10432000022252A1380000F09BFEDFF86C834FF4AC
:10433000FA6301224146380000F0FFFE002807D151
:1043400098F8000030304946C9B2705419F101099B
:104350004846C0B21F28E8DB4FF4FA630122414609
:10436000380000F0EAFE0028F6D0280040B2BDE890
:10437000F28318B5ABB04421002205AC200001F057
:1043800071FD142100226C46200001F06BFD5421C8
:10439000002216AC200001F065FD222005904FF4AC
:1043A0008070089001200E901020099002200F903C
:1043B00002201090012011900A20129007201390E3
:1043C000022014900220159005A801F07FFD00281E
:1043D00001D000F073F90F2000900320019000201D
:1043E000029000200390002004900321684602F010
:1043F00078F9002801D000F061F942F243001690EC
:1044000000201E9000201F90002021900020269068
:1044100016A802F085FB002801D000F04FF94FF4F8
:10442000007002F029FF002801D000F047F92CB0FD
:1044300010BD80B599489A4901600121017141F28E
:10444000210181600821C160012141714FF6FF7196
:10445000016120214161802181610121016202F01D
:104460005DFF002801D000F029F901BD0D0A000010
:1044700010B58C4C8C4820608C4860600020A06097
:104480000120E06000202061002060610020A06128
:104490000020E06100202062200003F06DF8002879
:1044A00001D000F00BF90021200003F03BFB0028B5
:1044B00001D000F003F90021200003F07CFB00286C
:1044C00001D000F0FBF810BD80B55B487849016071
:1044D0004FF482714160002181604FF4E061C1605E
:1044E00000210161002141614FF4007181612821A7
:1044F000C161002101620021416200218162072126
:10450000C162002101630021416303F09DFB00288B
:1045100001D000F0D3F801BD10B586B014210022FF
:104520006C46200001F09EFC6248016851F00401D5
:104530000160016811F0040105910599016851F0CD
:1045400001010160016811F00101059105990168FF
:1045500051F002010160016811F002010591059915
:10456000016851F080010160006810F08000059042
:10457000059840F20910009000200190022002905E
:1045800069465FF0904001F04DFA02200090002053
:104590000190022002903D4C6946200001F042FA51
:1045A000092000900120019001200290694620001E
:1045B00001F038FA4FF400600090012001900120D2
:1045C000029069465FF0904001F02CFA06B010BDF1
:1045D00080B52448384901604FF4165141600021EC
:1045E00081600021C160002101610C214161002135
:1045F00081610021C161002101620021416200F05E
:10460000C7FC002801D000F059F801BD8C0100085A
:10461000B0C2000850C20008B8C2000800C20008BA
:10462000680A0020C00D0020C0C20008FE0D002056
:10463000F00D0020B00D0020DC0C00205CC2000852
:10464000FF0D0020D00D002068C20008000E0020E1
:10465000E00D002074C20008C8C2000810C20008A3
:104660006CBF00085C0C0020D0C20008D8C2000853
:10467000E0C2000820C20008E8C2000880C20008AA
:1046800078C1000898C100088CC2000800040048E6
:1046900080060020FC0D0020740800208C0D0020F6
:1046A00000300240400D002000540040EC9C90106F
:1046B000003001404C100240003801407047704704
:1046C00010B50024032003F0BCFE002003F00EFF11
:1046D000002802D00120040001E003F037FF200091
:1046E000C0B210BD10B504002000C0B204F05BF9E8
:1046F00010BD80B504F0D8F802BD10B5040020004C
:1047000004F0C5F910BD80B504F008FA01BD30B45D
:10471000002513E050F8042BD30744BFA9F101038F
:104720009A18091F042942F8045BFAD213468C0731
:1047300044BF15809B1CC90748BF1D7050F8041B5F
:104740000029E7D130BC7047DFF85C03016831F025
:1047500080710160016851F080710160DFF84C03E5
:104760000168490849000160016851F001010160D8
:10477000DFF83C030021016000BF00BF00BF0068FC
:10478000002801D0002000E00120704771B581B001
:10479000DFF81C532C68019E02F03BF9DFF814137C
:1047A000B0FBF1F0464301962868001B019988424E
:1047B000FAD373BD3EB504000D002800C0B2002836
:1047C00003D040208DF8040002E000208DF80400A2
:1047D0008DF8054064200090022301AA7821DFF8BB
:1047E000D80202F0A4FF0120FFF7D0FF37BD38B593
:1047F00000252800C0B2082823DA0021B5F15000B6
:10480000C0B2FFF7D7FF00210220FFF7D3FF00213E
:104810001020FFF7CFFF002004002000C0B2802846
:104820000DDA0121DFF894022200D2B200EBC200BF
:104830002A00D2B2805CFFF7BDFF641CEDE76D1C5F
:10484000D7E731BD70B5040000263000C0B208289B
:1048500020DA0021B6F15000C0B2FFF7ABFF002113
:104860000220FFF7A7FF00211020FFF7A3FF002081
:1048700005002800C0B280280ADADFF840022900CB
:10488000C9B200EBC1003100C9B244546D1CF0E75D
:10489000761CDAE7FFF7ABFF70BDF0B5030000242C
:1048A0001800C0B2802803DA0800C0B2402800DB3C
:1048B00043E00800C0B2082590FBF5F5D5F10705E7
:1048C0000800C0B2082790FBF7F607FB1606012088
:1048D000D6F1070710FA07F71000C0B2002816D06B
:1048E000DFF8D8011C00E4B200EBC404AC465FFA68
:1048F0008CFC9E465FFA8EFE00EBCE00AE465FFA61
:104900008EFE10F80E00384304F80C0015E0DFF8B6
:10491000AC011C00E4B200EBC404AC465FFA8CFCB2
:104920009E465FFA8EFE00EBCE00AE465FFA8EFE2C
:1049300010F80E00B84304F80C00F0BD2DE9F84F54
:1049400005000E001F000A9C8DF80060B2F1200ADD
:104950005FF0000B58463900C0B2C9B2884267D236
:104960003800C0B20C281CD12000C0B200280BD0E7
:1049700053495246D2B20C20424301EB0200594641
:10498000C9B2405C814624E04D495246D2B20C2067
:10499000424301EB02005946C9B2405CC043814624
:1049A00017E02000C0B2002809D046485146C9B2DD
:1049B000090108445946C9B2405C814609E04148B2
:1049C0005146C9B2090108445946C9B2405CC043C6
:1049D0008146002080464046C0B2082825DA5FEABA
:1049E000096007D501223100C9B22800C0B2FFF723
:1049F00054FF06E000223100C9B22800C0B2FFF720
:104A00004CFF5FEA4909761C3100C9B29DF80000ED
:104A1000091A3800C0B2814204D19DF80000060096
:104A20006D1C02E018F10108D5E71BF1010B91E7BD
:104A3000BDE8F18FF8B504000D0016001F003078B6
:104A400000282FD03800C0B2022190FBF1F0D0F145
:104A500080002100C9B2884210DA002004007D19CC
:104A60003800C0B2D0F140002900C9B2884205DA4E
:104A70000020040025000020FFF7E4FE9DF8180048
:104A800000903B00DBB232782900C9B22000C0B2EE
:104A9000FFF754FF3800C0B2022190FBF1F0041977
:104AA000761CCCE7F1BD0000FCED00E0001000E05A
:104AB000041000E040420F00400D00200C000020D8
:104AC000E0B20008F0AC00082DE9F84F04000D003A
:104AD00016001F00DDF828B03800C0B2C01D082144
:104AE00090FBF1F95FF0000A50465946C9B280B216
:104AF00089B288422AD20020804640463900C9B295
:104B000080B289B288421ED2404680B2082190FB12
:104B1000F1F1524692B2484680B2424306EB02009F
:104B2000405C802118F007021141084208D00122A0
:104B30001AEB0501C9B218EB0400C0B2FFF7ADFED5
:104B400018F10108D9E71AF1010ACDE7BDE8F18FA4
:104B500080B50021AE20FFF72DFE00210020FFF7D9
:104B600029FE00211020FFF725FE00214020FFF73D
:104B700021FE00218120FFF71DFE0021CF20FFF73D
:104B800019FE0021A120FFF715FE0021C020FFF72C
:104B900011FE0021A620FFF70DFE0021A820FFF73F
:104BA00009FE00213F20FFF705FE0021D320FFF77B
:104BB00001FE00210020FFF7FDFD0021D520FFF7B9
:104BC000F9FD00218020FFF7F5FD0021D920FFF736
:104BD000F1FD0021F120FFF7EDFD0021DA20FFF7C4
:104BE000E9FD00211220FFF7E5FD0021DB20FFF7A2
:104BF000E1FD00214020FFF7DDFD00212020FFF72F
:104C0000D9FD00210220FFF7D5FD00218D20FFF7FF
:104C1000D1FD00211420FFF7CDFD0021A420FFF7D6
:104C2000C9FD0021A620FFF7C5FD0021AF20FFF739
:104C3000C1FD0020FFF706FE01BD80B500F001F8C0
:104C400001BD80B5FFF784FF01BD30B40EE00268FE
:104C5000436802440830DC0744BFA9F10104E318AB
:104C600052F8045B43F8045B091FF9D150F8041BA8
:104C70000029ECD130BC704770B5040001F0D6F8C3
:104C80000500260016F1010F02D0044800688619BD
:104C900001F0CCF8401BB042FAD370BD04000020F4
:104CA000F8B50200100080B242F2107398426DD243
:104CB00012F00F008DF800006B46C2F3031058701D
:104CC000100080B2001210F00F009870100080B237
:104CD000000BD870D8789C7820185C7804190625C9
:104CE0009DF8000005FB04048DF800409DF80000CD
:104CF0000A2490FBF4F49DF800000A2590FBF5F6D9
:104D000005FB16008DF800005D78D878092610FBA9
:104D100006409E78052716FB070045195D705878F8
:104D20000A2590FBF5F558780A2690FBF6F706FB66
:104D3000170058709878400050FA85F0987098786D
:104D40000A2690FBF6F698780A2790FBF7FC07FBFB
:104D50001C009870D878800050FA86F0D870D87807
:104D60000A2790FBF7F7D8785FF00A0C90FBFCFE5F
:104D70000CFB1E00D870D878087098784870587866
:104D800088709DF80000C870002000E00120F2BD8E
:104D90002DE9FF4104000D00A079232880F2A080B6
:104DA000E079002840F09C80217862784FF4807090
:104DB000424352FA81F080B200906E46A178E278C8
:104DC0004FF480704243501880B27060217962794C
:104DD0004FF480704243501880B2B060A179E279FC
:104DE0004FF480704243501880B2F0600099F2682E
:104DF0004FF42473B7684FF4E450474303FB027247
:104E000073684FF4AD5000FB0322511800910098D5
:104E100042F21071B0FBF1F1009842F21072B0FB57
:104E2000F2F302FB13000090F36841F6F75000FB29
:104E30000313B76842F2185000FB07337768062067
:104E400000FB07337360706842F21073B0FBF3F33A
:104E50007068B0FBF2F702FB17007060F76841F270
:104E60008D2000FB0737D6F808C02A2000FB0C77FE
:104E7000B760B06842F21077B0FBF7FCB068B0FBE7
:104E8000F2F702FB1700B060F76840F2191000FB60
:104E900007C7F760F06842F21077B0FBF7F7F068E9
:104EA000B0FBF2FE02FB1E02F2605FF00308404618
:104EB00040B2002812D4404640B27FF0030110FBFC
:104EC00001F0284410F10C01404640B256F8200091
:104ED00080B2FFF7E5FEB8F10108E8E7002000E046
:104EE000012004B0BDE8F08162B38B0708D0521EE8
:104EF00011F8013B00F8013B00F024808B07F6D14C
:104F0000830740F0208000BF103A07D330B4B1E8E7
:104F10003810103AA0E83810F9D230BC530724BF3B
:104F2000B1E80810A0E8081044BF51F8043B40F86D
:104F3000043BD20724BF31F8022B20F8022B44BFD8
:104F40000B7803707047121F17D35B0009D151F81B
:104F5000043B20F8023B1B0C121F20F8023BF6D248
:104F60000BE051F8043B00F8013B1B0A20F8023B20
:104F70001B0C121F00F8013BF3D238BF121D521E4A
:104F800024BF11F8013B00F8013BF8D87047030239
:104F900010B50400002C01D1012060E0A0690028B8
:104FA00015D02068DFF8D812884225D02068DFF8B5
:104FB000D412884220D02068DFF8CC1288421BD05F
:104FC00040F23F11DFF8C402FFF779FB14E02068DC
:104FD000DFF8AC1288420FD02068DFF8A8128842B0
:104FE0000AD02068DFF8A012884205D04FF4A271E1
:104FF000DFF89802FFF763FB606F002805D10020FF
:1050000084F87000200003F03DFB242060672068D6
:1050100000684008400021680860200000F038F96E
:10502000012801D101201AE0606A002802D0200086
:1050300000F07FFB2068406830F4904021684860B1
:105040002068806830F02A00216888602068006845
:1050500050F0010021680860200000F079FC10BDCC
:105060002DE9FC4706000D0017009846706F2028B8
:1050700060D1002D03D0380080B2002801D101207A
:1050800059E096F87000012801D1022053E0012078
:1050900086F870000020F0672120706700F0C6FEDF
:1050A0008146A6F85070A6F85270B068B0F5805FDF
:1050B00005D13069002802D10024AA4602E02C0064
:1050C0005FF0000AB6F85200002820D0CDF800802A
:1050D0004B4600228021300000F06EFC002801D0F9
:1050E000032028E0002C08D1BAF80000C005C00D4C
:1050F000316808851AF1020A03E0207831680885D2
:10510000641CB6F85200401EA6F85200DAE7CDF84B
:1051100000804B4600224021300000F04DFC00286A
:1051200001D0032007E020207067002086F870007F
:10513000002000E00220BDE8F6872DE9F84F834605
:105140000D0016001F00DBF87800202840F0958045
:10515000002D03D0300080B2002801D101208DE065
:105160009BF87000012801D1022087E001208BF814
:1051700070000020CBF87C002220CBF8780000F0F3
:1051800055FE8046ABF85860ABF85A60DBF8080073
:10519000B0F5805F0CD1DBF81000002804D140F29C
:1051A000FF10ABF85C0027E0FF20ABF85C0023E0C9
:1051B000DBF8080000280BD1DBF81000002803D131
:1051C000FF20ABF85C0017E07F20ABF85C0013E039
:1051D000DBF80800B0F1805F0BD1DBF8100000288D
:1051E00003D17F20ABF85C0006E03F20ABF85C0009
:1051F00002E00020ABF85C00BBF85C90DBF8080034
:10520000B0F5805F06D1DBF81000002802D1002441
:10521000AA4602E02C005FF0000ABBF85A00002802
:1052200023D00097434600222021584600F0C4FBBB
:10523000002801D0032021E0002C09D1DBF8000078
:10524000808C19EA0000AAF800001AF1020A06E0B0
:10525000DBF80000808C19EA00002070641CBBF8A9
:105260005A00401EABF85A00D7E72020CBF8780050
:1052700000208BF87000002000E00220BDE8F28FD3
:10528000003801400044004000800040E0BE0008BB
:105290002DE9F84F0400002500265FF00008606843
:1052A000DFF89016884205D340F62D31DFF88006EE
:1052B000FFF705FAA068B0F1805F0CD0A068002865
:1052C00009D0A068B0F5805F05D040F62E31DFF838
:1052D0006006FFF7F4F9DFF860B6206858450DD195
:1052E000E06800282CD0E068B0F5005F28D040F6D8
:1052F0003131DFF83C06FFF7E2F921E0E068B0F574
:10530000805F10D0E06800280DD0E068B0F5405F05
:1053100009D0E068B0F5005F05D040F63531DFF820
:105320001006FFF7CCF9206A002809D0206AB0F5F2
:10533000006F05D040F63631DFF8F405FFF7BFF90E
:10534000206900280DD02069B0F5806F09D0206950
:10535000B0F5C06F05D040F63931DFF8D405FFF75E
:10536000AEF9606930F00C00002802D160690028B5
:1053700005D140F63A31DFF8B805FFF7A0F9A0698A
:10538000002811D0A069B0F5807F0DD0A069B0F5DC
:10539000007F09D0A069B0F5407F05D040F63B31D1
:1053A000DFF88C05FFF78BF9E069002809D0E06988
:1053B000B0F5004F05D040F63C31DFF87405FFF73B
:1053C0007EF9A1682069014360690143E0690143F6
:1053D00020680268DFF8640502400A432068026022
:1053E0002068426832F44052E0680243206842601C
:1053F000D4F818902068584502D0206A50EA09096C
:105400002068806830F4306059EA000021688860C4
:105410002068DFF81415884216D1DFF824050068EB
:1054200010F00300002805D0022805D006D3032879
:1054300006D007E0012743E0022741E004273FE0D0
:1054400008273DE010273BE02068DFF8E0148842A1
:1054500017D1DFF8EC04006810F00C00002806D02B
:10546000042808D0082804D00C2806D007E000271C
:1054700026E0022724E0042722E0082720E0102766
:105480001EE0206858451AD1DFF8B404006810F413
:105490004060002809D0B0F5806F0AD0B0F5006FE9
:1054A00005D0B0F5406F06D007E0002708E00227DE
:1054B00006E0042704E0082702E0102700E0102798
:1054C0002068584540F07F803800C0B2002806D0E0
:1054D000022808D004280AD008280CD00FE001F0D8
:1054E0009BFA80460DE0DFF85C04804609E001F09D
:1054F00025FA804605E04FF40040804601E0012097
:105500000600B8F1000F00F00C81616803204143F0
:10551000884505D361684FF480504143414502D22C
:1055200001200600FDE03800C0B2002806D00228A5
:1055300014D0042820D008282ED036E001F06CFAD0
:1055400002004FF48073606840080021E3FB020111
:105550006268002303F01AFB050028E06268520825
:105560000023DFF8E403002110185941626800238A
:1055700003F00CFB05001AE001F0E0F902004FF423
:105580008073606840080021E3FB02016268002329
:1055900003F0FCFA05000AE06068400810F500001E
:1055A0006168B0FBF1F0050001E001200600B5F5EF
:1055B000407F05D3B5F5801F02D22068C560B0E0FA
:1055C00001200600ADE0E069B0F5004F5BD1380086
:1055D000C0B2002808D0012812D002281CD004280C
:1055E00025D008282FD038E001F016FA6168490864
:1055F00011EB40016068B1FBF0F080B205002EE0D5
:1056000001F017FA6168490811EB40016068B1FBCD
:10561000F0F080B2050022E06068DFF8301311EB93
:1056200050016068B1FBF0F080B2050017E001F0B6
:1056300085F96168490811EB40016068B1FBF0F041
:1056400080B205000BE06068400810F580306168AA
:10565000B0FBF1F080B2050001E001200600102D42
:105660000ED3B5F5803F0BD24FF6F0712940C5F34C
:10567000420001438A46504680B22168C86050E02B
:10568000012006004DE03800C0B2002808D00128F3
:1056900011D002281AD0042822D008282BD034E0B8
:1056A00001F0BAF9616810EB51006168B0FBF1F0EC
:1056B00080B205002BE001F0BCF9616810EB5100ED
:1056C0006168B0FBF1F080B2050020E060689D49A0
:1056D00011EB50016068B1FBF0F080B2050016E0FC
:1056E00001F02CF9616810EB51006168B0FBF1F03A
:1056F00080B205000BE06068400810F5004061686A
:10570000B0FBF1F080B2050001E001200600102D91
:1057100005D3B5F5803F02D22068C56001E00120C5
:10572000060000202066002060663000C0B2BDE8A0
:10573000F28F10B50400606AB0F5807F04D340F6A4
:1057400055417B48FEF7BBFF94F82400C00713D5F2
:10575000A06A002808D0A06AB0F5003F04D040F647
:105760005A417348FEF7ABFF2068416831F40031BD
:10577000A06A01432068416094F82400800713D593
:10578000E06A002808D0E06AB0F5803F04D040F617
:1057900061416748FEF793FF2068416831F480312A
:1057A000E06A01432068416094F82400400713D563
:1057B000206B002808D0206BB0F5802F04D040F675
:1057C00068415B48FEF77BFF2068416831F4802127
:1057D000206B01432068416094F82400000713D532
:1057E000606B002808D0606BB0F5004F04D040F625
:1057F0006F414F48FEF763FF2068416831F4004174
:10580000606B01432068416094F82400C00613D502
:10581000A06B002808D0A06BB0F5805F04D040F6E4
:1058200076414348FEF74BFF2068816831F4805190
:10583000A06B01432068816094F82400800613D592
:10584000E06B002808D0E06BB0F5005F04D040F6B4
:105850007D413748FEF733FF2068816831F40051FD
:10586000E06B01432068816094F82400400640D535
:1058700020682D49884208D020682C49884204D0ED
:1058800040F684412A48FEF71AFF206C002808D011
:10589000206CB0F5801F04D040F685412448FEF707
:1058A0000EFF2068416831F48011206C01432068AC
:1058B0004160206CB0F5801F1BD1606C002810D0B7
:1058C000606CB0F5001F0CD0606CB0F5800F08D094
:1058D000606CB0F5C00F04D040F68A411448FEF762
:1058E000EEFE2068416831F4C001606C014320681D
:1058F000416094F82400000613D5A06C002808D05D
:10590000A06CB0F5002F04D040F692410848FEF795
:10591000D6FE2068416831F40021A06C0143206864
:10592000416010BD0000000000380140004400400C
:10593000E0BE00088196980000800040F369FFEF08
:10594000881002400024F400000024F40048E8011C
:1059500038B504000020E06700F068FA0500206810
:10596000006800070DD57FF07E4000902B000022DC
:105970005FF40011200000F01FF8002801D0032080
:1059800019E02068006840070DD57FF07E40009048
:105990002B0000225FF48001200000F00DF80028A9
:1059A00001D0032007E0202060672020A0670020AE
:1059B00084F87000002032BD2DE9F04105000E0092
:1059C00090461F00069C2868C0693040B04201D153
:1059D000012000E000204146C9B288421ED114F1E6
:1059E000010FF0D000F022FAC01B844201D3002C3A
:1059F000E9D12868006830F4D07029680860286808
:105A0000806840084000296888602020686720205E
:105A1000A867002085F87000032000E00020BDE8A2
:105A2000F08155002DE9F84F05000E000027B5F173
:105A3000904F10D0DFF8740385420CD0DFF870036C
:105A4000854208D0DFF86C03854204D0B321DFF82B
:105A50006803FEF734FE3068000404D03068000CA0
:105A60000004002804D0B421DFF84C03FEF727FE21
:105A70007068002834D07068012831D0706811280F
:105A80002ED0706802282BD07068122828D0706839
:105A9000DFF82813884223D07068DFF82413884287
:105AA0001ED07068DFF81C13884219D07068DFF8C8
:105AB0001813884214D07068DFF8101388420FD092
:105AC0007068DFF80C1388420AD07068032807D08A
:105AD00070680B2804D0B521DFF8DC02FEF7EFFD7B
:105AE000B06800280AD0B068012807D0B068022842
:105AF00004D0B621DFF8C002FEF7E1FD3068F840BF
:105B0000002800F005815FF00108316818FA07F0FD
:105B100001400C00002C00F0F9807068022802D0CF
:105B20007068122835D1B5F1904F10D0DFF87C02A3
:105B300085420CD0DFF87802854208D0DFF8740285
:105B4000854204D0C521DFF87002FEF7B8FD306948
:105B5000102804D3C621DFF86002FEF7B0FD38003C
:105B6000C00805EB8000016A0F2217F00700C0B2E1
:105B7000800082409143326917F00700C0B2800074
:105B8000824011438B463800C00805EB8000C0F806
:105B900020B0D5F800A05FF003093800C0B2400083
:105BA00019FA00F03AEA000A317911F003013800DD
:105BB000C0B24000814051EA0A0AC5F800A07068EE
:105BC000012808D07068022805D07068112802D01A
:105BD000706812282BD1F06800280DD0F0680128D9
:105BE0000AD0F068022807D0F068032804D0DA2130
:105BF000DFF8C401FEF763FDA9683800C0B24000B9
:105C000019FA00F08143F2683800C0B240008240C7
:105C10001143A960686818FA07F830EA080072684A
:105C2000C2F30012BA4010438246C5F804A0D5F86A
:105C30000CB03800C0B2400019FA00F93BEA090B79
:105C4000B1683800C0B24000814051EA0B0BC5F882
:105C50000CB07068C00059D5DFF87801016851F0C8
:105C600001010160006810F0010000900098DFF869
:105C700068213800800852F820100F2317F0030025
:105C8000C0B2800083409943B5F1904F01D1002309
:105C90000CE0DFF81801854201D1012306E0DFF8AE
:105CA0001001854201D1022300E0072317F0030011
:105CB000C0B28000834019433800800842F82010A9
:105CC000DFF818211068A0437368DB0300D5204378
:105CD0001060DFF80C211168A14373689B0300D5A5
:105CE000214311603F4A1068A0437368DB0200D56E
:105CF000204310603C49D1F800B03BEA040B7268C5
:105D0000920201D554EA0B0BC1F800B07F1CF5E6F6
:105D1000BDE8F18F38B504000D00280080B20028DE
:105D200004D14FF4C9712448FEF7C9FC2069290049
:105D300089B2084201D0012000E00020C0B232BD8B
:105D400070B504000E001500300080B2002804D1A8
:105D50004FF4D9711848FEF7B2FC2800C0B20028F1
:105D600008D02800C0B2012804D040F2B311124874
:105D7000FEF7A5FC2800C0B2002803D0300080B296
:105D8000A06102E0300080B2A06270BD10B50400D6
:105D900016480168220092B2114206D0210089B251
:105DA0000160200080B200F023F810BD000400481C
:105DB00000080048001C0048B0BC0008000011109A
:105DC000000021100000311000001210000022100D
:105DD0000000321060100240080001400004014041
:105DE00004040140080401400C0401401404014073
:105DF0007047000000F10103810704D010F8011B77
:105E0000820781B1FAD10268A2F10131914311F008
:105E1000803104BF50F8042FF6E709BAB1FA81F1D6
:105E200000EBD100401CC01A704700000148006818
:105E3000704700BFF80D002070B50D462C7834B9BE
:105E400070BD11F8013F1678B34206D0401C2146C0
:105E500002F0B4FF28B101462A4612F8013F002B98
:105E6000EFD170BD62F30F2262F31F42401810F0B1
:105E7000030308D0C91A1FD3DB0748BF00F8012D60
:105E800028BF20F8022D130030B4144615461039EF
:105E900028BF20E93C00FAD8490728BF20E90C00B8
:105EA00048BF40F8042D890028BF20F8022D48BFC4
:105EB00000F8012D30BC7047C91818BF00F8012D3B
:105EC000CB0728BF00F8012D704700002DE9FE4FD9
:105ED0000400002C02D1012000F001BC2068002841
:105EE00009D0207810F03F0F05D14FF4CF71DFF8C3
:105EF000480AFEF7E4FBDFF82C7A3D6815F00C0544
:105F0000DFF82C8AD8F8009019F003092078C00631
:105F100040F1FA80A069002808D0A069012805D0C6
:105F200040F2A711DFF8100AFEF7C9FBE069B0F5EF
:105F3000807F05D34FF4D471DFF8FC09FEF7BFFB77
:105F4000206A002826D0206A102823D0206A202822
:105F500020D0206A30281DD0206A40281AD0206A1C
:105F6000502817D0206A602814D0206A702811D0D9
:105F7000206A80280ED0206A90280BD0206AA028A2
:105F800008D0206AB02805D040F2A911DFF8A8098E
:105F9000FEF795FB002D04D00C2D78D1B9F1010F3F
:105FA00075D1DFF87CA9DAF80000800704D5A06974
:105FB000002801D1012092E3DAF80000000704D59F
:105FC000DAF8000010F0F00005E0DFF8680900687A
:105FD000000910F0F000216A88421ED2206A00F009
:105FE0003BFD002801D0012079E3DAF8000050F0F1
:105FF0000800CAF80000DAF8001031F0F001206A59
:106000000143CAF80010DFF8440A016831F47F4107
:10601000E26951EA022101601DE0DAF8000050F067
:106020000800CAF80000DAF8001031F0F001206A28
:106030000143CAF80010DFF8140A016831F47F4107
:10604000E26951EA02210160206A00F005FD0028A2
:1060500001D0012043E300F071FCDFF8F4193A6845
:10606000C2F30312895C11F01F01C840DFF8B818B1
:106070000860DFF8B808006802F038FA8DF8000010
:106080009DF8000000283FD09DF8000027E3A0699C
:10609000002826D0DFF88878386850F00100386092
:1060A000FFF7C4FE06003868800706D4FFF7BEFE7F
:1060B000801B0328F7D3032011E3386850F0080051
:1060C0003860396831F0F001206A01433960DFF847
:1060D0007C09016831F47F41E26951EA02210160E3
:1060E00012E0DFF83C783868400840003860FFF77D
:1060F0009DFE06003868800706D5FFF797FE801BD7
:106100000328F7D30320EAE22078C00766D5606849
:1061100000280DD06068B0F5803F09D06068B0F508
:10612000A02F05D040F21121DFF80C08FEF7C7FAC6
:10613000082D04D00C2D0CD1B9F1030F09D1DFF8D3
:10614000E0070068800349D56068002846D1012037
:10615000C5E26068B0F5803F06D1DFF8C40701688A
:1061600051F48031016018E06068B0F5A02F0AD1C9
:10617000DFF8AC07016851F480210160016851F437
:106180008031016009E0DFF89807016831F480315F
:106190000160016831F480210160606800280ED040
:1061A000FFF744FE0600DFF878070068800315D487
:1061B000FFF73CFE801B6528F5D303208FE2FFF735
:1061C00035FE0600DFF858070068800306D5FFF7A4
:1061D0002DFE801B6528F5D3032080E22078800700
:1061E00063D5E068002809D0E068B0F5807F05D06D
:1061F0004FF41171DFF84007FEF761FA206920289B
:1062000005D340F24521DFF83007FEF758FA042D98
:1062100004D00C2D16D1B9F1020F13D1DFF800070D
:106220000068400504D5E068002801D1012056E24D
:10623000DFF81808016831F0F851226951EA02616B
:10624000016032E0E06800281CD0DFF8D4763868BE
:1062500050F480703860FFF7E9FD060038684005AB
:1062600006D4FFF7E3FD801B0328F7D3032036E2B3
:10627000DFF8D807016831F0F851226951EA02616C
:10628000016012E0DFF89876386830F4807038608A
:10629000FFF7CCFD06003868400506D5FFF7C6FDC0
:1062A000801B0328F7D3032019E22078000734D598
:1062B0006069002808D06069012805D040F2852176
:1062C000DFF87406FEF7FBF96069002812D0DFF8EA
:1062D0006476386850F001003860FFF7A7FD0600CB
:1062E0003868800719D4FFF7A1FD801B0328F7D376
:1062F0000320F4E1DFF83C7638684008400038605D
:10630000FFF794FD06003868800706D5FFF78EFD7D
:10631000801B0328F7D30320E1E12078400740F1F8
:106320008F800027A06800280BD0A068012808D023
:10633000A068052805D04FF43671DFF8FC05FEF79C
:10634000BEF9DFF8A0A7DAF80000C0000DD4DAF833
:10635000000050F08050CAF80000DAF8000010F099
:1063600080500190019801200700DFF87CB7DBF82E
:106370000000C00513D4DBF8000050F48070CBF8A7
:106380000000FFF753FD0600DBF80000C00506D44F
:10639000FFF74CFD801B0328F6D303209FE1A06884
:1063A000012806D1DFF84407016851F001010160BE
:1063B00017E0A06805280AD1DFF83007016851F01E
:1063C00004010160016851F00101016009E0DFF89A
:1063D0001C070168490849000160016831F00401A7
:1063E0000160A068002810D0FFF720FD0600DFF84C
:1063F000FC060068800719D4FFF718FD801B41F2E6
:1064000089318842F3D3032069E1FFF70FFD0600CD
:10641000DFF8D8060068800708D5FFF707FD801B66
:1064200041F289318842F3D3032058E13800C0B2E9
:10643000012805D1DAF8000030F08050CAF80000D9
:106440002078800634D5606A002808D0606A012868
:1064500005D040F23D31DFF8E004FEF730F9606A24
:10646000002812D0DFF88876386850F001003860D4
:10647000FFF7DCFC06003868800719D4FFF7D6FC6C
:10648000801B0328F7D3032029E1DFF864763868FE
:10649000400840003860FFF7C9FC060038688007F4
:1064A00006D5FFF7C3FC801B0328F7D3032016E1B2
:1064B000A06A00280BD0A06A012808D0A06A022890
:1064C00005D040F26631DFF87004FEF7F8F8A06AF4
:1064D000002800F003810C2D00F0CE80A06A022875
:1064E00040F0A780E06A00280ED0E06A01280BD0B7
:1064F000E06A022808D0E06A032805D04FF45C71F6
:10650000DFF83404FEF7DBF8206B002802D0206BA4
:10651000092805D340F27131DFF81C04FEF7CFF8EB
:10652000606B082802D3606B572805D340F27231A4
:10653000DFF80404FEF7C3F8A06B022802D3A06BB7
:10654000202805D34FF45D71DFF8EC03FEF7B7F8B0
:10655000E06B02280ED0E06B04280BD0E06B06281D
:1065600008D0E06B082805D040F27631DFF8C80388
:10657000FEF7A5F8206C02280ED0206C04280BD062
:10658000206C062808D0206C082805D040F277310E
:10659000DFF8A403FEF793F8DFF884A3DAF800002D
:1065A00030F08070CAF80000FFF740FC0700DAF80E
:1065B0000000800106D5FFF739FCC01B0328F6D385
:1065C00003208CE0D8F80010DFF828050140E06ACD
:1065D0000143206B401E51EA0011606B51EA00211B
:1065E000E06B4008401E51EA4051206C4008401EBC
:1065F00051EA4061A06B51EAC061C8F80010DAF8B6
:10660000000050F08070CAF80000D8F8000050F088
:106610008070C8F80000FFF709FC0600DAF80000F7
:1066200080015BD4FFF702FC801B0328F6D3032014
:1066300055E0DFF8EC72386830F080703860386808
:10664000000105D4D8F8000080088000C8F80000D8
:10665000D8F80010DFF8A0040140C8F80010FFF7D8
:10666000E5FB06003868800138D5FFF7DFFB801BAB
:106670000328F7D3032032E0A06A012801D10120CA
:106680002DE0D8F80000814619F00300E16A884245
:1066900022D119F07000216B491EB0EB011F1BD1F4
:1066A00019F4FE40616BB0EB012F15D119F0784061
:1066B000A16BB0EBC16F0FD119F4C000E16B4908B9
:1066C000491EB0EB415F07D119F0C060216C490849
:1066D000491EB0EB416F01D0012000E00020BDE871
:1066E000FE8F2DE9F04104000D00002C01D10120A6
:1066F00013E12068002802D02068102805D340F25A
:106700002E41DFF83402FDF7DAFF002D0DD0012D08
:106710000BD0022D09D0032D07D0042D05D040F257
:106720002F41DFF81402FDF7CAFFDFF8D073386895
:1067300010F00700A8420BD23868C008C0002843F8
:106740003860386810F00700A84201D00120E4E06A
:106750002078C0074FD5606800280DD060680128F8
:106760000AD06068022807D06068032804D040F28D
:1067700046417148FDF7A3FF6068032805D16848CA
:106780000068800119D40120C7E06068022805D1A3
:1067900063480068800310D40120BEE060680028D0
:1067A00005D15F480068800707D40120B5E05C4848
:1067B0000068400501D40120AFE0DFF86881D8F817
:1067C00000108908890060680143C8F80010FFF7CD
:1067D0002DFB0600D8F8000010F00C006168B0EB4B
:1067E000810F08D0FFF722FB801B41F289318842DC
:1067F000F0D3032091E02078800726D5A0680028F8
:106800001CD0A068802819D0A068902816D0A06855
:10681000A02813D0A068B02810D0A068C0280DD040
:10682000A068D0280AD0A068E02807D0A068F02887
:1068300004D040F2A2414048FDF741FF39490A68BF
:1068400032F0F002A06802430A60386810F00700D6
:1068500085420BD23868C008C000284338603868C9
:1068600010F00700A84201D0012056E02078400730
:106870001ED5E068002814D0E068B0F5806F10D015
:10688000E068B0F5A06F0CD0E068B0F5C06F08D03C
:10689000E068B0F5E06F04D040F2C1412648FDF752
:1068A0000EFF20490A6832F4E062E06802430A60A1
:1068B000207800071FD52069002814D02069B0F582
:1068C000806F10D02069B0F5A06F0CD02069B0F5B2
:1068D000C06F08D02069B0F5E06F04D04FF4996123
:1068E0001548FDF7ECFE0F48016831F4605122694C
:1068F00051EAC201016000F021F85549094A1268C5
:10690000C2F30312895C11F01F01C84006490860F8
:106910000648006801F0EAFDC0B2BDE8F081000061
:106920000010024008100240080000200000002073
:106930000C10024094100240C8BD00082DE9F0413F
:1069400000260020DFF8B811096811F00C01DFF80B
:10695000B4C1DCF8007017F00307002903D00C293C
:106960001AD1012F18D1DFF8A0E1DEF800805FEA2C
:10697000087806D4DFF8DCE0DEF800E0CEF3032E82
:1069800003E0DEF800E0CEF3031E604E56F82E6002
:1069900000290CD130000AE0042903D1DFF870E1AE
:1069A000704604E0082902D1DFF868E170460C293E
:1069B0002DD1DCF800E01EF0030E73469E46BEF1BA
:1069C000020F03D0BEF1030F03D005E0DFF840E172
:1069D00003E0DFF840E100E0B646DCF80020C2F357
:1069E0000212521C1500DCF80020C2F3062202FB42
:1069F0000EFEBEFBF5F2DCF800C0CCF3416C1CF1DE
:106A0000010C5FEA4C0C6446B2FBF4FC6046BDE846
:106A1000F08141480068704780B5FFF7FAFF3F49B1
:106A2000374A1268C2F30222895C11F01F01C84084
:106A300002BD80B5FFF7EDFF3849314A1268C2F355
:106A4000C222895C11F01F01C84002BD041002403F
:106A500030C20008941002407CB504000025214E8D
:106A60003068C00003D500F001FC01000FE0306881
:106A700050F080503060306810F0805000900098E6
:106A800000F0F4FB0100306830F080503060B1F568
:106A9000007F09D1812C15D3A12C02D3022005003F
:106AA00010E0012005000DE0812C02D30320050039
:106AB00008E0802C02D10220050003E0702C01D1F7
:106AC000012005000D480268D208D2002A43026066
:106AD000006810F00700A84201D0012000E000206B
:106AE00076BD000058100240007000409010024037
:106AF000981002408C809D01FFFFEEFE00200240B6
:106B0000081002400C10024000100240D8C00008DB
:106B10000024F40000127A0008000020F8C20008E7
:106B20002DE9F84F05005FF0000800272868DFF81E
:106B3000C414084204D1CB21DFF8BC04FDF7BFFD2B
:106B40002868000537D5E86B00280CD0E86BB0F555
:106B5000000F08D0E86BB0F5400F04D0D321DFF868
:106B60009804FDF7ACFDE86B00280DD0B0F5000FE0
:106B700003D0B0F5400F0DD00DE0DFF880040168C0
:106B800051F48031016008E00021281D00F040FA36
:106B9000804602E001E0012080464046C0B2002865
:106BA00008D1DFF860140A6832F44002E86B02434F
:106BB0000A6000E047462868800340F190805FF05B
:106BC0000009286D002811D0286DB0F5807F0DD008
:106BD000286DB0F5007F09D0286DB0F5407F05D055
:106BE0004FF4A371DFF81004FDF769FDDFF810A47E
:106BF000DAF80000C0000DD4DAF8000050F0805040
:106C0000CAF80000DAF8000010F0805000900098F8
:106C100001208146DFF8F0B3DBF8000050F480700B
:106C2000CBF80000FFF702F90600DBF80000C00512
:106C300006D4FFF7FBF8801B0328F6D30320804619
:106C40004046C0B200283FD1DFF8C0B3DBF80000F7
:106C500010F440700400002C15D0286D844212D02E
:106C6000DBF8000030F440700400DBF8000050F462
:106C70008030CBF80000DBF8000030F48030CBF837
:106C80000000CBF80040E0070FD5FFF7CFF8060073
:106C9000DBF80000800708D4FFF7C8F8801B41F23A
:106CA00089318842F4D3032080464046C0B2002890
:106CB00008D1DBF8001031F44071286D0143CBF8A6
:106CC000001002E0474600E047464846C0B20128AF
:106CD00005D1DAF8000030F08050CAF800002878BA
:106CE000C00719D5286A00280ED0286A01280BD0C1
:106CF000286A032808D0286A022805D040F29B1190
:106D0000DFF8F402FDF7DBFCDFF8F8120A689208FE
:106D10009200286A02430A602878800719D5686AB9
:106D200000280ED0686A04280BD0686A0C2808D0A6
:106D3000686A082805D040F2A511DFF8BC02FDF70B
:106D4000BEFCDFF8C0120A6832F00C02686A024327
:106D50000A60287880061CD5A86A002811D0A86A85
:106D6000B0F5806F0DD0A86AB0F5406F09D0A86A61
:106D7000B0F5006F05D040F2D911DFF87C02FDF7C5
:106D80009EFCDFF880120A6832F44062A86A02436F
:106D90000A60286880051CD5686B002811D0686BD4
:106DA000B0F5802F0DD0686BB0F5002F09D0686B5F
:106DB000B0F5402F05D04FF4F171DFF83C02FDF73C
:106DC0007EFCDFF840120A6832F44022686B02430E
:106DD0000A60286840051CD5A86B002811D0A86B54
:106DE000B0F5801F0DD0A86BB0F5001F09D0A86BBF
:106DF000B0F5401F05D040F2E911DFF8FC01FDF7C6
:106E00005EFCDFF800120A6832F44012A86B0243FD
:106E10000A602878400618D5E86A00280DD0E86A8C
:106E2000B0F5805F09D0E86AB0F5005F05D040F2A8
:106E3000F111DFF8C401FDF742FCDFF8C8110A6860
:106E400032F44052E86A02430A602868C00518D547
:106E5000286B00280DD0286BB0F5803F09D0286B37
:106E6000B0F5003F05D040F20921DFF88C01FDF7B5
:106E700026FCDFF890110A6832F44032286B024396
:106E80000A602868800435D5286C002811D0286C49
:106E9000B0F1806F0DD0286CB0F1006F09D0286C74
:106EA000B0F1406F05D040F22221DFF84C01FDF730
:106EB00006FCDFF850110A6832F04062286C024389
:106EC0000A60286CB0F1006F06D1DFF8300101686C
:106ED00051F4801101600DE0286CB0F1806F09D190
:106EE0000121281D00F094F880464046C0B20028D9
:106EF00000D047462868400335D5686C002811D07B
:106F0000686CB0F1806F0DD0686CB0F1006F09D083
:106F1000686CB0F1406F05D04FF41A71DFF8D800FB
:106F2000FDF7CDFBDFF8DC100A6832F04062686CD8
:106F300002430A60686CB0F1006F06D1DFF8BC0054
:106F4000016851F4801101600DE0686CB0F1806F50
:106F500009D10121281D00F05BF880464046C0B2EF
:106F6000002800D047462868400426D5A86C002891
:106F70000DD0A86CB0F1805F09D0A86CB0F1405F73
:106F800005D04FF42271DFF87000FDF798FBDFF8B1
:106F900074100A6832F04052A86C02430A60A86C70
:106FA000B0F1805F09D10221281D00F031F8804640
:106FB0004046C0B2002800D047462868000414D5D7
:106FC000E86C002809D0E86CB0F1804F05D04FF490
:106FD0002D71DFF82400FDF772FBDFF828100A6836
:106FE00032F08042E86C02430A603800C0B2BDE86B
:106FF000F28F000063EF060094BB00080C10024003
:10700000581002408810024000700040901002406A
:107010002DE9F04105000C000027286800280ED05B
:10702000286801280BD02868022808D0286803287F
:1070300005D040F64F31DFF81002FDF740FB6868DD
:10704000002802D06868092805D34FF43561DFF8BD
:10705000F801FDF734FBA868082802D3A868572870
:1070600004D340F651317848FDF729FBA8697749E8
:10707000084203D0A8697649084204D040F652314C
:107080007148FDF71CFB7349086810F0030F12D01C
:10709000086810F003002A68904209D12868002887
:1070A00006D00868C0F30210401C6968884232D0DC
:1070B000012007002FE02868012804D01BD30328F3
:1070C0000FD007D317E064480068800701D401207F
:1070D000070012E060480068400501D40120070065
:1070E0000BE05D480268920304D40068400301D4B9
:1070F0000120070001E0012007003800C0B200288D
:1071000009D10A6832F07302286802436868401E99
:1071100052EA00120A603800C0B2002840F08F80A6
:10712000DFF83481D8F8000030F08060C8F8000043
:10713000FEF77CFE0600D8F80000000106D5FEF739
:1071400075FE801B0328F6D3032007003800C0B269
:10715000002874D1002C16D1E868022802D3E86810
:10716000202804D340F6A5313748FDF7A8FA3B495B
:107170000A683B480240A86852EA0022E86852EADE
:10718000C0620A603EE0012C1ED1286902280DD0A1
:10719000286904280AD02869062807D02869082801
:1071A00004D040F6C9312848FDF789FA2B490A680E
:1071B0002C480240A86852EA002228694008401E74
:1071C00052EA40520A601DE0686902280DD06869E1
:1071D00004280AD06869062807D06869082804D0FE
:1071E00040F6DB311848FDF76AFA1C490A681E4868
:1071F0000240A86852EA002268694008401E52EA2C
:1072000040620A60D8F8000050F08060C8F80000C2
:10721000FEF70CFE0600D8F80000000106D4FEF7C9
:1072200005FE801B0328F6D3032007003800C0B2F8
:10723000002804D109490A68A86902430A60380095
:10724000C0B2BDE8F081000094BB0008000011014D
:10725000FFFFEEFE0C100240001002401010024032
:10726000FF80FF07FF809FFFFF80FFF9DFF8980096
:10727000006810F4C060704738B50500B5F5007FB0
:1072800007D0B5F5806F04D0A821DFF88000FDF7A6
:1072900016FAB5F5007F26D1DFF86C00016811F40D
:1072A000C061B1F5007F2CD0016831F4C06151F4A8
:1072B00000710160DFF85800016832204143DFF8B7
:1072C0005400B1FBF0F0401C0400DFF84C000168F2
:1072D000490503D5002C01D0641EF6E7006840057F
:1072E0000FD503200EE0DFF82000016811F4C06123
:1072F000B1F5806F05D0016831F4C06151F480614F
:107300000160002032BD00000070004004BB000896
:107310000800002040420F001470004010B5040027
:10732000002C01D1012080E020684049884203D030
:1073300070213F48FDF7C3F9607F002804D1002089
:107340002077200001F019F90220607720790028C9
:1073500006D02079012803D07E213548FDF7AFF90A
:107360002079002809D13348216848612068806865
:1073700030F018002168886008E0E268A168200009
:1073800001F028FD002801D001204EE0607900289E
:1073900006D06079012803D090212548FDF78FF9A8
:1073A0006079002804D15FF0FF302168086102E0B5
:1073B000206921680861606900280CD06069202874
:1073C00009D06069402806D06069602803D09C21FC
:1073D0001748FDF774F92068816831F06001606931
:1073E000014320688160A069002806D0A069802838
:1073F00003D0A0210E48FDF762F92068816831F0C2
:107400008001A069014320688160206A012809D0B9
:10741000206A022806D0206A032803D0A521044848
:10742000FDF74DF901206077002010BD00300240CB
:1074300024BC0008B71DC1042DE9F04104000D0073
:1074400016005FF00008022060772068806850F026
:10745000010021688860206A012812D01FD3032808
:1074600001D015D31BE000200700B74205D255F824
:107470002700216808607F1CF7E7206800688046C5
:107480000DE032002900200000F00EF8804606E0F2
:1074900032002900200000F053F88046FFE7012069
:1074A00060774046BDE8F081F0B40026B6EB920F5D
:1074B00014D211F8263001EB86077F783F0457EA93
:1074C000036701EB86039B7857EA032701EB8603EA
:1074D000DB781F4303681F60761CE7E712F0030F99
:1074E0002AD012F00303012B03D111F826300768CC
:1074F0003B7012F00303022B0AD111F8263001EB86
:1075000086077F7857EA03273C0003681D002C801C
:1075100012F00303032B0FD111F8263001EB86077D
:107520007F7857EA03273C0003681D002C8001EB9D
:1075300086039B7807683B7000680068F0BC704762
:1075400070B40024B4EB520F0BD231F82450660013
:1075500001EB4606768856EA054605682E60641CEF
:10756000F0E7D50704D505682B0031F824501D80BD
:107570000068006870BC704710B50400002C01D191
:107580000120D3E02068DFF8241388420AD0206865
:10759000DFF81C13884205D04FF4EF71DFF81403B5
:1075A000FDF78DF8A068B0F5806F05D340F2DF11CC
:1075B000DFF80003FDF783F8E068012808D0E068F1
:1075C000022805D04FF4F071DFF8E802FDF777F8F4
:1075D0002069002809D02069B0F5004F05D040F29D
:1075E000E111DFF8D002FDF76AF86069B0F5807F3D
:1075F00005D34FF4F171DFF8BC02FDF760F8A06924
:1076000000281AD0A069012817D0A069022814D038
:10761000A069032811D0A06904280ED0A06905280C
:107620000BD0A069062808D0A069072805D040F231
:10763000E311DFF88002FDF742F8E069002809D085
:10764000E069B0F5002F05D04FF4F271DFF8640265
:10765000FDF735F8206A002809D0206AB0F5003F10
:1076600005D040F2E511DFF84C02FDF728F894F858
:107670004100002805D1002084F84000200000F0DF
:107680008DFF242084F841002068006840084000F5
:1076900021680860606830F07060216808612068C7
:1076A000806830F4004021688860E068012805D1D6
:1076B000A06850F400402168886004E0A06850F49D
:1076C000044021688860E068022803D14FF400601C
:1076D000216848602068406840F0007050F4004025
:1076E000216848602068C06830F400402168C860A4
:1076F000216960690143A06951EA00212068C160E5
:10770000E169206A0143206801602068006850F048
:1077100001002168086000206064202084F8410096
:1077200000202063002084F84200002010BD2DE9D5
:10773000F84304000D0016001F00DDF8208094F8C7
:107740004100202840F0AF8094F84000012801D18A
:107750000220A9E0012084F84000FEF767FB814683
:10776000CDF80090192301224FF40041200000F0D1
:10777000B9F8002801D0012096E0212084F84100CA
:10778000102084F842000020606466626785002053
:107790006063608DB0F5807F0ED3FF202085DFF819
:1077A000180100905FF08073228DD2B2290089B257
:1077B000200000F060F90DE0608D2085DFF8F80012
:1077C00000905FF00073228DD2B2290089B22000B0
:1077D00000F051F9608D002847D04A46414620000C
:1077E00000F0AFF8002801D001205DE0606A007869
:1077F00021688862606A401C6062608D401E6085FE
:10780000208D401E2085608D0028E3D0208D00282B
:10781000E0D1CDF80090434600228021200000F006
:1078200061F8002801D001203EE0608DB0F5807F36
:107830000DD3FF202085002000905FF08073228D03
:10784000D2B2290089B2200000F015F9C2E7608D9C
:107850002085002000905FF00073228DD2B22900B5
:1078600089B2200000F007F9B4E74A4641462000FB
:1078700000F093F8002801D0012015E020202168B5
:10788000C86120684168DFF8340001402068416029
:10789000202084F84100002084F84200002084F871
:1078A0004000002000E00220BDE8F28300540040C8
:1078B000005C00403CBD00080020008000E800FEA5
:1078C00001688969890702D500210268916201680F
:1078D0008969C90705D40168896951F00101026805
:1078E000916170472DE9F04105000E0090461C00A3
:1078F000069F286880693040B04201D1012000E035
:1079000000204146C9B2884218D114F1010FF0D0CD
:10791000FEF78CFAC01B844201D3002CE9D1686CBD
:1079200050F020006864202085F84100002085F890
:107930004200002085F84000012000E00020BDE862
:10794000F08170B505000C0016002868806980077A
:1079500021D432002100280000F048F8002801D08E
:10796000012019E014F1010FEFD0FEF75FFA801B40
:10797000844201D3002CE8D1686C50F02000686488
:10798000202085F84100002085F84200002085F87D
:107990004000012000E0002070BD70B505000C0023
:1079A00016002868806980061ED432002100280055
:1079B00000F01CF8002801D0012016E0FEF736FA8E
:1079C000801B844201D3002CEBD1686C50F0200066
:1079D0006864202085F84100002085F842000020DE
:1079E00085F84000012000E0002070BD70B5050062
:1079F0000C00160028688069C0063AD5286880699E
:107A0000800618D414F1010FF8D0FEF70FFA801B8E
:107A1000844201D3002CF1D1686C50F020006864DE
:107A2000202085F84100002085F84200002085F8DC
:107A3000400001201EE010202968C861202029682C
:107A4000C8612800FFF73CFF286841682E480140C4
:107A500028684160686C50F004006864202085F854
:107A60004100002085F84200002085F840000120F8
:107A700000E0002070BD2DE9F04106000F009046A7
:107A80001C00069D30682149884208D03068204992
:107A9000884204D041F6AC011E48FCF710FEB4F158
:107AA000807F09D0B4F1007F06D0002C04D041F6CD
:107AB000AD011848FCF703FE174885420CD0174863
:107AC000854209D00F48854206D0002D04D041F6EA
:107AD000AE011048FCF7F3FD30684068104951EAE8
:107AE00055518843390089B28905890D08434146BB
:107AF000C9B250EA01402043284331684860BDE8DC
:107B0000F08100000020008000E800FE00540040EA
:107B1000005C00403CBD0008004000800024008064
:107B2000FF63FF0338B505000C002868434988420D
:107B300007D028684249884203D064214148FCF7B5
:107B4000BEFD002C06D0B4F5805F03D065213D4812
:107B5000FCF7B5FD95F8410020282AD195F84000A2
:107B6000012801D1022025E0012085F840002420D1
:107B700085F84100286800684008400029680860CE
:107B80002868006830F48050296808602868006818
:107B90002043296808602868006850F001002968BF
:107BA0000860202085F84100002085F84000002072
:107BB00000E0022032BD38B504000D0020681F49E6
:107BC000884207D020681E49884203D092211D4870
:107BD000FCF775FD102D03D393211A48FCF76FFDB8
:107BE00094F84100202827D194F84000012801D1C1
:107BF000022022E0012084F84000242084F8410083
:107C0000206800684008400021680860206801681A
:107C100031F4706151EA0521206801602068006834
:107C200050F0010022681060202084F841000020FC
:107C300084F84000002000E0022032BD00540040E3
:107C4000005C004074BA000810B50400002C01D19B
:107C500001202EE12068DFF83C1588420AD0206818
:107C6000DFF83415884205D04FF4A271DFF82C05F7
:107C7000FCF725FD6068002809D06068B0F5827FB8
:107C800005D040F24511DFF81405FCF718FDA06897
:107C900000280DD0A068B0F5806F09D0A068B0F5BD
:107CA000004F05D04FF4A371DFF8F004FCF707FD97
:107CB000E068B0F5706F35D0E068B0F5606F31D036
:107CC000E068B0F5506F2DD0E068B0F5406F29D076
:107CD000E068B0F5306F25D0E068B0F5206F21D0B6
:107CE000E068B0F5106F1DD0E068B0F5006F19D0F6
:107CF000E068B0F5E06F15D0E068B0F5C06F11D066
:107D0000E068B0F5A06F0DD0E068B0F5806F09D0E5
:107D1000E068B0F5407F05D040F24711DFF87C0401
:107D2000FCF7CDFCA069B0F5007F0CD0A06900285D
:107D300009D0A069B0F5802F05D04FF4A471DFF809
:107D40005C04FCF7BCFC606B082808D0606B002862
:107D500005D040F24911DFF84404FCF7B0FCE069BB
:107D600000281AD0E069082817D0E069102814D03C
:107D7000E069182811D0E06920280ED0E069282891
:107D80000BD0E069302808D0E069382805D04FF4DE
:107D9000A571DFF80804FCF792FC206A002808D0DF
:107DA000206A802805D040F24B11DFF8F003FCF781
:107DB00086FC606A002808D0606A102805D04FF45D
:107DC000A671DFF8D803FCF77AFC606A002817D1A7
:107DD0002069002808D02069022805D040F24F1100
:107DE000DFF8B803FCF76BFC6069002808D0606915
:107DF000012805D04FF4A871DFF8A003FCF75FFC61
:107E00000020A06294F85D00002805D1002084F8CD
:107E10005C00200000F0F2FB022084F85D00206886
:107E2000006830F040002168086040F20172E068AC
:107E3000904201D3002101E04FF48051E068B0F599
:107E4000706F05D0E068B0F5E06F01D00020A0624F
:107E5000206B002807D1E068904202D30220206303
:107E600001E0012020636268A068024320690243A8
:107E700060690243A06910F400700243E0690243A4
:107E8000206A0243A06A024320680260A269120CC1
:107E900012F00402606A0243606B0243E06802432E
:107EA0000A432068426000202066012084F85D00BB
:107EB000002010BD2DE9FE4F07000D00160098466A
:107EC0000C9C5FF001095FF0000AB868002805D03B
:107ED00040F2BF41DFF8C402FCF7F1FB97F85C0009
:107EE000012801D1022053E1012087F85C00FDF751
:107EF0009DFF834697F85D008DF80000786802903A
:107F0000ADF80280ADF804809DF8000001280DD086
:107F10000298B0F5827F06D1B868002803D19DF899
:107F20000000042802D00220824629E1002D05D05D
:107F3000002E03D0404680B2002802D101208246A4
:107F40001EE197F85D00042802D0052087F85D0047
:107F5000002038663E64A7F84680A7F84480BD63D9
:107F6000A7F83E80A7F83C800020F8640020386520
:107F700040F20170F968814203D2BDF80410022971
:107F800006D33968496831F480513A68516005E098
:107F90003968496851F480513A6851603968096814
:107FA000490605D43968096851F040013A68116002
:107FB000F968814250D37868002803D0BDF80200E8
:107FC000012809D1B86B00883968C860B86B801C7B
:107FD000B863F88F401EF887F88F002804D1B7F8EF
:107FE0004600002800F0C18038688068800711D5FD
:107FF000F88F00280ED0B9F1010F0BD1B86B0088B3
:108000003968C860B86B801CB863F88F401EF88769
:108010000020814638688068C00711D5B7F846004F
:1080200000280DD03868C068396C0880386C801C16
:108030003864B7F84600401EA7F846000120814684
:10804000FDF7F4FEB0EB0B00A042C5D314F1010F15
:10805000C2D00320824693E07868002803D0BDF8A0
:108060000200012817D1F88F02280AD3B86B0088C4
:108070003968C860B86B801CB863F88F801EF887B9
:1080800009E0B86B007839680873B86B401CB863B6
:10809000F88F401EF887F88F002803D1B7F8460004
:1080A000002862D03868806880071FD5F88F0028C4
:1080B0001CD0B9F1010F19D1F88F02280AD3B86B7F
:1080C00000883968C860B86B801CB863F88F801E60
:1080D000F88709E0B86B007839680873B86B401C02
:1080E000B863F88F401EF8870020814638688068A2
:1080F000C0072CD5B7F84600002828D0B7F84600AE
:10810000022816D33868C068396C0880386C801C27
:108110003864B7F84600801EA7F84600B7F8460056
:10812000022812D23868406850F48050396848609C
:108130000BE03868007B396C0870386C401C386480
:10814000B7F84600401EA7F8460001208146FDF71B
:108150006DFEB0EB0B00A04202D314F1010F01D170
:10816000002C98D1032082460AE05A4621003800AC
:1081700000F0B8F8002803D001208246202038669D
:10818000012087F85D00002087F85C005046C0B2EF
:10819000BDE8FE8F00300140003C004054BE0008A6
:1081A0002DE9F04105000E0090461C00069F28684E
:1081B00080683040B04201D1012000E000204146FB
:1081C000C9B2884239D014F1010FF0D0FDF72EFE6C
:1081D000C01BA04201D2002CE9D12868406830F0D1
:1081E000E000296848606868B0F5827F0DD1A86812
:1081F000B0F5004F03D0A868B0F5806F05D12868AE
:10820000006830F0400029680860A86AB0F5005F97
:108210000BD12868006830F400502968086028688D
:10822000006850F4005029680860012085F85D005E
:10823000002085F85C00032000E00020BDE8F0810C
:108240002DE9F04106000F0014001D00DDF8188034
:10825000306880683840A04241D0B7F5C06F03D184
:10826000002C01D13068007B15F1010FF0D0FDF733
:10827000DDFDB0EB0800A84201D2002DE8D1306846
:10828000406830F0E000316848607068B0F5827F87
:108290000DD1B068B0F5004F03D0B068B0F5806F75
:1082A00005D13068006830F0400031680860B06A7D
:1082B000B0F5005F0BD13068006830F400503168D1
:1082C00008603068006850F4005031680860012090
:1082D00086F85D00002086F85C00032000E00020A6
:1082E000BDE8F0817CB504000D00160000962B005F
:1082F00000224FF4C0512000FFF7A2FF002805D054
:10830000206E50F02000206603201FE000962B0016
:10831000002280212000FFF743FF002805D0206EB7
:1083200050F020002066032010E000962B00002271
:108330004FF4C0612000FFF783FF002805D0206EB6
:1083400050F020002066032000E0002076BD0000F1
:1083500010B410F00703DFF8704122684FF6FF01F8
:108360000A40DFF8681151EA03210A43226010BC79
:108370007047DFF854010068C0F30220704710B462
:10838000020052B2002A06D40A01DFF84431040088
:1083900064B21A5509E00A01DFF83831040064B20A
:1083A00014F00F04234403F8042C10BC704770B47D
:1083B000030013F00704D4F10700052801D30420BB
:1083C00001E0D4F10700251D072D01D2002500E0B2
:1083D000E51E012616FA00F0401E0140A94016FADB
:1083E00005F56D1E2A401143080070BC7047BFF3AD
:1083F0004F8FDFF8D4100A6812F4E062DFF8D8007B
:1084000002430A60BFF34F8F00BFFDE710B50400C1
:10841000601EB0F1807F01D3012011E0601EDFF803
:10842000BC1008600F215FF0FF30FFF7A8FF0020AD
:10843000DFF8AC1008600720DFF8A8100860002003
:1084400010BD10B50400072C0CD0062C0AD0052C4A
:1084500008D0042C06D0032C04D0A721DFF8880014
:10846000FCF72DF92000FFF773FF10BD2DE9F04157
:1084700004000D0016000027102E04D3BF21DFF8E2
:108480006800FCF71CF9102D04D3C021DFF8580058
:10849000FCF715F9FFF76DFF8046320029004046D2
:1084A000FFF785FF0100200040B2FFF768FFBDE83D
:1084B000F08180B5FFF79BFF01BD10B504002000DF
:1084C000FFF7A4FF10BD00000CED00E00000FA056E
:1084D00000E400E018ED00E00400FA0514E000E01C
:1084E00018E000E010E000E054B9000838B50400DE
:1084F00000251349086800281DD04FF47A700968D8
:10850000B0FBF1F00F490968B1FBF0F0FFF7D5FFC0
:1085100000280DD1102C08D2002221005FF0FF307E
:10852000FFF7A4FF0848046007E00120050004E00D
:108530000120050001E0012005002800C0B232BD85
:1085400004000020080000200000002081B06648E0
:10855000016851F001010160006810F00100009015
:1085600000986248016851F080510160006810F085
:1085700080500090009801B0704781B001685C4A5B
:10858000914209D15B490A6852F480520A60096835
:1085900011F480510091009901B0704710B586B078
:1085A00004001422002101A800F064FC2068524954
:1085B000884221D15148016851F0020101600068F0
:1085C00010F0020000900098C0200190122002904C
:1085D00001200390032004900420059001A948483D
:1085E000FDF720FA4148016851F40011016000686C
:1085F00010F400100090009806B010BD10B586B0C1
:10860000040014220021684600F034FC20683D4933
:10861000884235D13448016851F4805101600068C6
:1086200010F48050059005983448016851F001011C
:108630000160006810F0010005900598E0200090AE
:108640000220019000200290032003900520049056
:1086500069465FF09040FDF7E5F910200090012099
:108660000190002002900020039069465FF0904046
:10867000FDF7D8F9012210215FF09040FDF760FB73
:1086800006B010BD10B586B004001422002101A868
:1086900000F0F0FB20681C49884223D11248016891
:1086A00051F480410160006810F48040009000980F
:1086B0001248016851F001010160006810F00100EA
:1086C000009000984FF4C0600190022002900020BA
:1086D0000390032004900720059001A95FF09040CB
:1086E000FDF7A0F906B010BD60100240581002401E
:1086F0000030024048100240005400404C1002403C
:10870000000400480030014000380140F8B586B050
:1087100004000D002800C0B20F2804DB2821DFF878
:10872000D003FBF7CCFF0121002201AE3000FDF7A2
:1087300099FB0F21002202AE3000FDF793FB0022CF
:1087400010215FF09040FDF7FBFADFF8A8733220AC
:108750000090012302AA01A93800FFF7ABFB060035
:10876000322000902B00DBB213F00F0302AA21008D
:108770003800FFF79FFB07003743012210215FF00D
:108780009040FDF7DDFA0A20FCF776FA3800C0B217
:1087900007B0F0BD3EB5DFF8600300788DF8050046
:1087A0000121002201AC2000FDF75CFB0024002227
:1087B00010215FF09040FDF7C3FA00259DF80400FA
:1087C000082817D02800C0B2FE2813DA6D1C32200A
:1087D0000090012301AA0DF10501DFF81803FFF74E
:1087E00069FB204304009DF8040010F008008DF898
:1087F0000400E3E7012210215FF09040FDF7A0FAAA
:108800000A20FCF739FA2800C0B2FE2801DB01205B
:1088100004002000C0B23EBDF8B586B00400DFF809
:10882000DC0200788DF804000F21002202AD280040
:10883000FDF718FB002210215FF09040FDF780FA51
:10884000DFF8B05232200090012302AA01A92800CB
:10885000FFF730FB0600322000900223220002A91D
:108860002800FFF727FB07003743207880280ED128
:10887000607800280BD032200090637813F00F034B
:10888000A21C02A92800FFF715FB384307000122AC
:1088900010215FF09040FDF753FA0A20FCF7ECF945
:1088A0003800C0B207B0F0BD18B589B0DFF850028B
:1088B00000788DF800001E21002201AC2000FDF799
:1088C000D1FA012401216846FFF720FF00280ED1CC
:1088D000FFF760FF00280AD101A8FFF79DFF0028DD
:1088E00005D19DF80400552801D100200400200086
:1088F000C0B20AB010BD18B5C1B06846DFF80412A6
:108900000A68026001A8DFF800124FF48072FCF7D9
:10891000FBFA012404216846FFF7F8FE002812D173
:10892000FFF738FF00280ED101A8FFF775FF0028D8
:1089300009D19DF80400002805D19DF80500002804
:1089400001D1002004002000C0B242B010BD18B513
:10895000C1B06846DFF8B4110A68026001A8DFF808
:10896000B0114FF48072FCF7CFFA0124042168465D
:10897000FFF7CCFE002812D1FFF70CFF00280ED124
:1089800001A8FFF749FF002809D19DF8040000283D
:1089900005D19DF80500002801D100200400200029
:1089A000C0B242B010BD10B504002000C0B2012812
:1089B00002D0022803D005E0FFF79DFF03E0FFF798
:1089C000C6FF00E0012010BD2DE9F04788B004008B
:1089D0000D0016001E2100226F463800FDF742FAF6
:1089E0008E272900C9B22000FFF790FE002849D148
:1089F000FFF7D0FE002845D16846FFF70DFF00289D
:108A000040D19DF8000030703078802838D1684619
:108A10004178042936DB4078C01E707096F80180DA
:108A20000DF1020916F1020A424649465046FCF78A
:108A30005BFA684671780844807886F8FC006846DE
:108A400071780844C07886F8FD006846717808445B
:108A5000007986F8FE0096F8FDA04FF4807196F834
:108A6000FC0001FB0A0A7178B01C00F031F8514695
:108A7000020009B212B2914204D131780F0001E034
:108A8000307807003800C0B208B0BDE8F0872DE9A3
:108A9000F041C2B0040068461E49D1E90023C0E994
:108AA000002302AA05216846FFF78EFF050008266D
:108AB00002A89DF809100844871FA046320039001B
:108AC0004046FCF711FA2800C0B242B0BDE8F08180
:108AD00038B504000D002A00D2B221000E48FEF77E
:108AE000ABFC80F47F4090F0FF0080B232BD00000C
:108AF00030C00008DC0C00208E4F00088F4F0008AB
:108B0000225A000800C3000854B7000804C3000834
:108B100054B80008F0C200088C0D002018B585B0CC
:108B2000142100226C462000FDF79CF90022102140
:108B30005FF09040FDF704F91020009001200190B3
:108B4000002002900220039069465FF09040FCF7FD
:108B500069FF012210215FF09040FDF7F1F89620A7
:108B6000FCF78AF8002210215FF09040FDF7E8F84A
:108B70003220FCF781F8012210215FF09040FDF7D0
:108B8000DFF80A20FCF778F806B010BDBBBBE1B1F6
:108B9000B2F5803F80F07E80022A1ED98C46B1FB60
:108BA000F2F102FB11C31B0443EA1043B3FBF2FCD6
:108BB00002FB1C3380B240EA0343B3FBF2F002FB3A
:108BC000103240EA0C4000237047022A05D984463F
:108BD000B0FBF2F002FB10C270474AB105D100F0C1
:108BE000010249085FEA3000704700220023704705
:108BF00000F04AB90B0002000021002070479042AB
:108C000071EB030CF6D3B3F5803F2FD2F0B5B3FA76
:108C100083F7B1FA81F4A7F10F0E3D1B5340CEF15B
:108C2000200602FA0EF2F3415340B5F10F0746D881
:108C30000F3C2C444140C4F12006A040F14141408A
:108C4000B1FBF3F603FB1611A2FB0645001BA9417D
:108C500002D2761E8018594180EA010221FA0EF3F1
:108C600062FA0EF200215A403046F0BD30B4B1FB3A
:108C7000F3FC03FB1C11A2FB0C45001BA94103D212
:108C8000ACF1010C8018594130BC02460B466046DD
:108C900000217047B2F1807F65D3F0B5B2FA82F758
:108CA000B1FA81F4C7F10F063D1B22FA06F307F172
:108CB000110EF24120355A40B5F10F07B8D94140A5
:108CC000C4F12006A040F1414140B1FBF3FC03FB9D
:108CD0001C11A2FB0C45001BA94103D2BCF1010CE5
:108CE000801859410F2F12D30F3FC90341EA504159
:108CF000B1FBF3F603FB1611A2FB0645D4EBC03023
:108D0000A94102D2761E8018594146EACC3C07B3ED
:108D10004140C7F12006B840F1414140B1FBF3F6B4
:108D200003FB1611A2FB0645001BA94102D2761EC9
:108D30008018594180EA010221FA0EF3C7F120049C
:108D400062FA0EF20CFA07F05A402CFA04F13043A2
:108D5000F0BD80EA010221FA0EF3002162FA0EF260
:108D600060465A40F0BD8C46B1FBF2F102FB11C3E4
:108D70001B0243EA1063B3FBF2FC02FB1C331B0231
:108D80004CEA002043EA1063B3FBF2FC02FB1C3305
:108D90001B024CEA002043EA1063B3FBF2FC02FB27
:108DA0001C331B024CEA002043EA1063B3FBF2FCC5
:108DB00002FB1C324CEA002000237047C9B2027843
:108DC0008A421AB11CBF10F8012FF9E718BF002022
:108DD000704700002DE9F04105000E001400002747
:108DE0005FF01F08002C09D0082C07D0102C05D0EC
:108DF000182C03D05F211E48FBF761FC4046B0F100
:108E00000108002805D018F01F003100C140C80734
:108E1000F4D52000002817D008280FD0102807D03C
:108E2000182812D1B8F1070F01D3012007000EE076
:108E3000B8F1080F01D30120070008E0B8F1100FC6
:108E400001D30120070002E001E001200700380003
:108E5000C0B2002808D1286846612868806830F0D0
:108E600018002043296888603800C0B2BDE8F0814E
:108E7000E4B9000810B5044610460A4601462046EB
:108E8000FCF7F0FF204610BD7047F0B503000A0064
:108E90000020117833F8214048F68F110C40D1782A
:108EA000002905D0022906D009D3032904D009E0FE
:108EB00054F4007408E007E054F4C06404E054F48F
:108EC000806401E00121080048F2800555EA0401B0
:108ED000167823F8261048F68F76117833F821702B
:108EE000374011780F432F43117823F82170117BFD
:108EF000002940F0A8805178002941D01900B3F82A
:108F00005070CF19117817EBC10111F58061B2F8DB
:108F100006C01FFA8CFC5FEA5C0C5FEA4C0CA1F8FF
:108F200000C0117833F821108C461FFA8CFC5FEAE0
:108F30004C6C0AD5177833F827703E4046F400464B
:108F400056F0C006177823F82760D17801290CD095
:108F5000117833F8216048F6BF710E4096F0200674
:108F60003543117823F8215041E1117833F821601D
:108F700048F6BF710E403543117823F8215036E191
:108F80001900B3F85070CF19117817EBC10101F235
:108F90000441B2F806C01FFA8CFC5FEA5C0C5FEA81
:108FA0004C0CA1F800C01900B3F850C011EB0C0C28
:108FB00011781CEBC10E0EF2064E116900290DD17D
:108FC000BEF8007048F2FF310F40AEF80070BEF8F6
:108FD000001051F40041AEF8001013E011693E2971
:108FE00009D211694908177CFF0700D5491C8F0277
:108FF000AEF8007006E0116949098F0257F4004786
:10900000AEF80070117833F821100F00BFB27F0462
:109010000AD5177833F827703E4046F4404656F09C
:109020008006177823F82760117833F821604BF613
:109030008F710E4096F4805696F4005635431178A1
:1090400023F82150D3E0117833F82110314041F456
:10905000014151F08001177823F827101900B3F867
:109060005070CF19117817EBC10111F58061B2F87A
:1090700008C01FFA8CFC5FEA5C0C5FEA4C0CA1F89C
:1090800000C01900B3F850C011EB0C0C11781CEBA8
:10909000C10101F20441B2F80AE01FFA8EFE5FEA54
:1090A0005E0E5FEA4E0EA1F800E05178002949D12A
:1090B000117833F821100F00BFB27F040BD5177859
:1090C00033F82770374047F4404757F0800792F84D
:1090D00000C023F82C70117833F821100F00BFB2B4
:1090E0007F060BD5177833F82770374047F40047D1
:1090F00057F0C00792F800C023F82C70117833F8AD
:1091000021100E4046F4004656F0C006117823F8B0
:109110002160117833F821604BF68F710E4096F480
:10912000805696F400562E43117823F8216011786A
:1091300033F8216048F6BF710E403543117823F8AB
:10914000215054E0117833F821100F00BFB27F0492
:109150000BD5177833F82770374047F4404757F05E
:10916000800792F800C023F82C70117833F8211092
:109170000F00BFB27F060BD5177833F82770374042
:1091800047F4004757F0C00792F800C023F82C704E
:10919000117833F821100E4046F4404656F0800610
:1091A000117823F82160D17801290CD0117833F897
:1091B000216048F6BF710E4096F020062E431178CC
:1091C00023F8216009E0117833F8216048F6BF7177
:1091D0000E402E43117823F82160117833F8216076
:1091E0004BF68F710E403543117823F82150C0B2F1
:1091F000F0BDF8B505000E007078012840F0DA8067
:109200003069B169884204D23469B069001BB06129
:1092100002E0B4690020B061307B002811D1230046
