:020000040800F2
:1000000050100020F1950008899500088B95000894
:100010008D9500088F95000891950008000000005C
:1000200000000000000000000000000093950008A0
:100030009595000800000000979500089995000824
:10004000AD960008B1960008B5960008B99600086C
:10005000BD960008C1960008C5960008C99600081C
:10006000CD960008D1960008D5960008D9960008CC
:10007000DD960008E1960008E5960008E99600087C
:10008000ED960008F1960008F5960008F99600082C
:10009000FD960008019700080597000809970008D9
:1000A0000D97000811970008159700081997000888
:1000B0001D970008000000000000000021970008C4
:1000C00025970008000000000000000029970008A4
:1000D000000000002D970008319700080000000084
:1000E0003597000839970008000000000000000064
:1000F0000000000000000000000000000000000000
:100100000000000000000000000000003D97000813
:10011000000000000000000041970008459700081B
:10012000499700084D970008519700085597000817
:1001300059970008000000000000000000000000C7
:100140005D970008619700086597000869970008A7
:100150006D97000871970008759700087997000857
:100160007D9700088197000885970008000000002F
:10017000899700088D97000800000000000000002B
:1001800091970008959700089997000800000000D3
:100190000000001000000003FFC000001E00380037
:1001A0000070F0040000C0F801000180F8000003B6
:1001B00000F8000006007F00000C007F800018009F
:1001C000FFE0001800E0F0003000E060003001E0E7
:1001D00000003007E0000060EF80000061FE0000DA
:1001E0000061FE00000061FE00000060EE00000003
:1001F000600F0000007007C000003001E000003018
:1002000000E000003800E000001800F070001C0062
:10021000F5E0000E003FC0000600FF00000701F0FF
:10022000000003C1F8000000E1F001000078600662
:1002300000001F0018000007FFE0000000FE0000A3
:1002400000000000000000000000000000000000AE
:10025000000000000000000000000000000000009E
:10026000000000000000000000000000000000008E
:10027000000000000000000000000000000000007E
:1039C0000000000000000000000000002DE9F84F9A
:1039D000B4B05FF0000900F095FF00F047FD00F083
:1039E0009DFE00F0B5FD00F011FE00F033FE00F08A
:1039F00063FE00F0F1FE00F013FF00F0A6FF00F000
:103A0000BFFF01F036FA002001F038F828200090BE
:103A10002823DFF8E42B0C21002001F071F90120AC
:103A200000901023DFF8202C0821322001F01EF92D
:103A300000F0F9FFDFF8300A00F0D3FB4FF4FA5042
:103A400001F020FA012000900C23DFF8B02B1721A1
:103A5000282001F00BF9C4A40120009010232200BB
:103A60002321372001F002F900F0DDFFDFF8C40A5E
:103A700000F0B4FC0A2001F005FA00F02FFA8DF8EE
:103A800004009DF80400002807D10C23DFF8A82AC1
:103A90002A21192000F0C3FAF3E700200100C9B27F
:103AA0000F290DDADFF8041C0200D2B21144C97AE2
:103AB0003039DFF8882A0300DBB2D154401CEDE72F
:103AC000DFF87C5A10232A003221192000F0A7FACF
:103AD000DFF8706A00203070DFF8D4ABDFF8688A56
:103AE00000224146504601F0B6FA0022DFF85C1A87
:103AF000504601F049FBDFF8081B98F802000870F7
:103B0000DFF8002B98F80100107098F80000DFF83B
:103B1000F83A18701078002802D1087805280BDBD5
:103B20001078142802D10878052805DB1078282899
:103B30000BD10878052808DADFF8100B00F051FBEC
:103B4000BAA000F04EFB042030705FF0000830781F
:103B5000002807D0022800F0A78046D3032800F0F1
:103B6000058194E100F0E7FE00283DD1012000F03E
:103B7000DBFE002838D1DFF8D8AA504600F0DFFE7F
:103B8000802831D100208AF80700DFF828BB594689
:103B9000504601F02AFC002811D1002081464846F9
:103BA000C0B210280BDA4846C0B21BF80000303013
:103BB0004946C9B20BF8010019F10109EFE7DFF836
:103BC000540C0168096831F040010068016010235D
:103BD000DFF8382B2D21192000F021FA0320307056
:103BE0004FF4FA7001F04EF976E700F047FA07005B
:103BF0003800C0B2FF2853D03800C0B223281AD0F2
:103C00003800C0B22A2816D0DFF8040B0178491C0E
:103C10000170DFF8002B17F130010078104400F834
:103C2000011C012000900C2328212D2001F01EF8FA
:103C300000F0F9FE34E03800C0B22A2823D1DFF8C2
:103C4000D01ADFF8D0AA00200A78524402F8010CFA
:103C50000878002803D00878401E087001E0002092
:103C600008700C23DFF8B02A3721112000F0D7F9B3
:103C7000012000900C23524628212D2000F0F6FF51
:103C800000F0D1FE0CE03800C0B2232808D1022099
:103C900030700C23DFF83C2B3721112000F0BFF9E6
:103CA000502001F0EFF817E700F0E8F907003800BE
:103CB000C0B2FF2853D03800C0B223281AD0380031
:103CC000C0B22A2816D0DFF8500B0178491C0170C9
:103CD000DFF8482B17F130010078104400F8011C80
:103CE000012000900C2328212D2000F0BFFF00F0C0
:103CF0009AFE34E03800C0B22A2823D1DFF8181B1E
:103D0000DFF818AB00200A78524402F8010C08785A
:103D1000002803D00878401E087001E000200870D9
:103D20000C23DFF8B02A3721112000F078F90120A8
:103D300000900C23524628212D2000F097FF00F020
:103D400072FE0CE03800C0B2232808D10320307086
:103D50001023DFF8B8292D21192000F060F9502038
:103D600001F090F8B8E600BF2E0000004046C0B257
:103D7000052860DA1BA8DFF8E41A642201F0F2FBE0
:103D80004046C0B2032853DA0A2001F07BF81BA892
:103D900000F018FA012001F075F85FF0000A5046B3
:103DA000C0B2102811DA4FF47A730122DFF8040947
:103DB0005146C9B20144DFF8A80A01F054FC0120C1
:103DC00001F060F81AF1010AE9E70FF2A42A42F2C1
:103DD000107B5A465146A7A000F023FA002827D0AE
:103DE000012000901023220028213C2000F03EFFFB
:103DF00000F019FE0A2001F045F85A465146DFF856
:103E0000640A00F00EFA002812D059469AA000F079
:103E10007EFA00280CD01023DFF84C2A322119201A
:103E200000F0FDF80020804605E000BF0D0A00000C
:103E300018F101089AE74FF4FA7001F023F84046B0
:103E4000C0B200280AD01023DFF8202A2F21192021
:103E500000F0E5F84FF4FA6001F014F810232A009E
:103E60003221192000F0DBF8DFF8B00900F0CCF9BE
:103E7000DFF8A00800F0C8F90020DFF894180870F7
:103E80000020DFF8941908700020307024E602A8A2
:103E9000DFF8DC19642201F065FB0FF2D41A42F25C
:103EA000107B5A46514602A800F0BBF9002812D0F8
:103EB0005A465146DFF8AC0900F0B3F900280AD0A1
:103EC00041F288316CA000F022FA002803D0DFF81C
:103ED000A40900F086F900203070FDE57CB50020D3
:103EE00000F0CCFD282000902823DFF80C270C21BF
:103EF000002000F005FF012000901023DFF8482784
:103F00000821322000F0B2FE012000900C23DFF8DF
:103F1000EC261721282000F0A9FEB9A4012000906A
:103F2000102322002321372000F0A0FE00F07BFDAB
:103F30004FA542F2107632002900B2A000F071F9CC
:103F400000286AD0012000901023220023213C2069
:103F500000F08CFE00F067FD0A2000F093FF3200B5
:103F60002900DFF8140900F05CF9002853D0012083
:103F70000090102322002321412000F077FE00F062
:103F800052FD0A2000F07EFF32002900DFF8EC0825
:103F900000F047F900283CD00120009010232200B7
:103FA0002321462000F062FE00F03DFD0A2000F0D3
:103FB00069FF32002900DFF8C80800F032F9002854
:103FC00025D0012000901023220023214B2000F057
:103FD0004DFE00F028FD0A2000F054FF32002900B9
:103FE000DFF8A00800F01DF900280ED00120009095
:103FF000102322002321502000F038FE00F013FD92
:104000000A2000F03FFF012008E0002006E0002029
:1040100004E0002002E0002000E0002076BDF8B5BA
:1040200004000D0016001F00002000F027FD2820CE
:1040300000902823DFF8C0250C21002000F060FE4E
:10404000012000901023DFF8002602213E2000F01E
:104050000DFE012000903B00DBB232002100C9B20E
:104060002800C0B200F002FE00F0DDFCF1BD00004F
:104070004F4B0000220000003230300010B5DFF856
:10408000084801220821200001F0B2FF00224FF46D
:1040900000615FF0904001F0ABFF002201212000A1
:1040A00001F0A6FF02215FF0904001F096FF012889
:1040B00001D1012085E00221200001F08EFF0128BE
:1040C00001D104207DE001215FF0904001F085FFE7
:1040D000012801D1072074E04FF480715FF0904017
:1040E00001F07BFF012801D12A206AE0002208218B
:1040F000200001F07DFF01224FF400615FF090404D
:1041000001F076FF00220121200001F071FF022161
:104110005FF0904001F061FF012801D1022050E0E2
:104120000221200001F059FF012801D1052048E0BB
:1041300001215FF0904001F050FF012801D10820DB
:104140003FE04FF480715FF0904001F046FF01289E
:1041500001D1002035E000220821200001F048FFB5
:1041600000224FF400615FF0904001F041FF012216
:104170000121200001F03CFF02215FF0904001F09E
:104180002CFF012801D103201BE00221200001F0B7
:1041900024FF012801D1062013E001215FF09040A7
:1041A00001F01BFF012801D109200AE04FF48071C2
:1041B0005FF0904001F011FF012801D1232000E0C1
:1041C000FF2010BD10B50400200001F02DFF0200FB
:1041D0004FF47A7392B22100DFF8840601F043FABB
:1041E00010BD10B50400200001F01EFF02004FF4C6
:1041F0007A7392B22100DFF8940601F034FA10BD10
:104200002E0000004154000010B50400200001F011
:104210000BFF0021814203DA00226254491CF9E7B6
:1042200010BD2DE9F34F81B0140000250026DFF802
:1042300060763800FFF7E8FF01F012FF804601F0DA
:104240000FFF8146019801F0EFFEDFF814A64FF44E
:104250007A73020092B20199504601F004FA4FF4C9
:104260007A7302225CA1504601F0FDF9DFF824B612
:104270004FF47A7301225946504601F061FA002842
:1042800007D001F0EDFEB0EB08008442EED2002032
:104290003BE001F0E5FE80469BF800003100C9B22A
:1042A0007854761C01F0DCFEB0EB0800A04223D26B
:1042B0004FF47A7301225946504601F041FA002822
:1042C00009D19BF800003100C9B27854761C01F086
:1042D000C7FE8146E6E701F0C3FEB0EB09006528A2
:1042E000E0D30299380001F0C1FE002802D001207D
:1042F000050001E0002005002800C0B20028B5D06C
:104300003800FFF76EFF280040B2BDE8FE8F2DE9B0
:10431000F14F0C0000250026DFF874753800FFF718
:1043200073FF01F09DFE804601F09AFE8146DFF8A2
:1043300030A5DFF860B54FF47A7301225946504634
:1043400001F0FEF9002807D001F08AFEB0EB08006A
:104350008442ECD200203BE001F082FE80469BF8D4
:1043600000003100C9B27854761C01F079FEB0EB40
:104370000800A04223D24FF47A73012259465046D6
:1043800001F0DEF9002809D19BF800003100C9B224
:104390007854761C01F064FE8146E6E701F060FE89
:1043A000B0EB09006528E0D30099380001F05EFE0B
:1043B000002802D00120050001E0002005002800AF
:1043C000C0B20028B3D03800FFF70BFF280040B27E
:1043D000BDE8F28F000000000D0A00002DE9F8434F
:1043E000040000255FF00009B04E3000FFF70CFF1D
:1043F000200001F019FE0200DFF864744FF47A73B4
:1044000092B22100380001F02EF94FF47A730222A3
:10441000BDA1380001F027F9DFF87C844FF4FA637E
:1044200001224146380001F08BF9002807D198F8A5
:10443000000030304946C9B2705419F101094846AC
:10444000C0B21F28E8DB4FF4FA630122414638006E
:1044500001F076F90028F6D03000FFF7C2FE280000
:1044600040B2BDE8F28300007496000818B5ABB006
:104470004421002205AC200001F00EFE1421002290
:104480006C46200001F008FE5421002216AC2000EA
:1044900001F002FE2A2005904FF480700890012060
:1044A0000A9001200E901020099002200F90022007
:1044B0001090012011900A201290072013900220E2
:1044C00014900220159005A801F01AFE002801D0D2
:1044D00000F0FAF90F2000900320019000200290D4
:1044E00000200390002004900321684602F055F953
:1044F000002801D000F0E8F9DFF8A00316900020B2
:104500001E9000201F90002021904FF400702A90F0
:1045100016A802F0DBFA002801D000F0D5F94FF41C
:10452000007002F013FD002801D000F0CDF92CB08E
:1045300010BD00007C960008A0950008040C002027
:1045400084960008460C0020E00B00203C0C002064
:1045500010B586B01421002201AC200001F09CFDB2
:10456000042100226C46200001F096FD504CCC48FE
:104570002060002060607F20A060FF20E0600020BD
:104580002061002060610020A0610020E061200027
:1045900000F08CFC002801D000F096F90C208DF87A
:1045A000040000208DF8050000208DF80600002092
:1045B000049000200590002201A9200000F0D0FC0A
:1045C000002801D000F080F906208DF800000620B8
:1045D0008DF8010004208DF8020000208DF8030002
:1045E00000226946200000F069FD002801D000F09B
:1045F0006BF906B010BD00008C01000800960008A1
:10460000490C00204A0C00204B0C002080B5A54826
:10461000A54901600121017141F221018160082158
:10462000C160012141714FF6FF710161202141619B
:10463000802181610121016202F0CCFC002801D0BF
:1046400000F042F901BD00006C960008B09500082A
:10465000340C002010B5954C95482060954860605A
:104660000020A0600120E060002020610020606147
:104670000020A0610020E06100202062200002F004
:1046800091FD002801D000F01FF90021200002F068
:10469000A9FF002801D000F017F90021200002F046
:1046A000D3FF002801D000F00FF910BDF40700205F
:1046B000BC0B0020F40B002080B556487E490160F9
:1046C0004FF482714160002181604FF4E061C1606C
:1046D00000210161002141614FF4007181612821B5
:1046E000C161002101620021416200218162072134
:1046F000C162002101630021416302F0D7FF00285D
:1047000001D000F0E1F801BD0D0A00000C96000890
:10471000470C0020140C00201896000810B586B035
:10472000142100226C46200001F0B6FC63480168A9
:1047300051F004010160016811F00401059105992F
:10474000016851F001010160016811F0010105915A
:104750000599016851F002010160016811F0020140
:1047600005910599016851F080010160006810F021
:1047700080000590059840F2031000900020019001
:104780000220029069465FF0904001F04BFB02204E
:10479000009000200190022002903B4C69462000CE
:1047A00001F040FB2920009001200190012002909F
:1047B0006946200001F036FB4FF4006000900120B4
:1047C00001900120029069465FF0904001F02AFBC1
:1047D00006B010BD2496000880B521483849016014
:1047E0004FF416514160002181600021C160002119
:1047F00001610C214161002181610021C161002121
:1048000001620021416200F0F1FE002801D000F0B9
:104810005BF801BDE80A0020480C0020240C0020B1
:1048200080B51A48274901604FF4165141600021B4
:1048300081600021C160002101610C2141610021E2
:1048400081610021C161002101620021416200F00B
:10485000CDFE002801D000F037F801BD20930008FC
:10486000E8090020C09500088C96000830960008E2
:10487000849300083C960008E89400080895000816
:10488000D09500084896000800040048680A0020F7
:104890000C040020440C002000060020430002000D
:1048A00000280040980B0020003002404C0B0020F4
:1048B00000540040EC9C9010003001404C1002402D
:1048C0000038014000440040704730B4002513E038
:1048D00050F8042BD30744BFA9F101039A18091F0C
:1048E000042942F8045BFAD213468C0744BF1580B2
:1048F0009B1CC90748BF1D7050F8041B0029E7D155
:1049000030BC704710B50024032003F0D4F9002018
:1049100003F000FA002802D00120040001E003F0B7
:1049200029FA2000C0B210BD10B504002000C0B2AA
:1049300003F06AFC10BD80B503F0E7FB02BD10B5C3
:104940000400200003F0D4FC10BD80B503F014FD7A
:1049500001BD30B40EE00268436802440830DC0751
:1049600044BFA9F10104E31852F8045B43F8045B67
:10497000091FF9D150F8041B0029ECD130BC704755
:10498000DFF85C03016831F080710160016851F06B
:1049900080710160DFF84C0301684908490001603B
:1049A000016851F001010160DFF83C030021016062
:1049B00000BF00BF00BF0068002801D0002000E059
:1049C0000120704771B581B0DFF81C532C68019E3F
:1049D00001F0F3FFDFF81413B0FBF1F0464301964A
:1049E0002868001B01998842FAD373BD3EB50400C4
:1049F0000D002800C0B2002803D040208DF804002C
:104A000002E000208DF804008DF80540642000903D
:104A1000022301AA7821DFF8D80202F029FC012044
:104A2000FFF7D0FF37BD38B500252800C0B20828F1
:104A300023DA0021B5F15000C0B2FFF7D7FF002103
:104A40000220FFF7D3FF00211020FFF7CFFF002047
:104A500004002000C0B280280DDA0121DFF89402A2
:104A60002200D2B200EBC2002A00D2B2805CFFF773
:104A7000BDFF641CEDE76D1CD7E731BD70B50400C8
:104A800000263000C0B2082820DA0021B6F150001C
:104A9000C0B2FFF7ABFF00210220FFF7A7FF002104
:104AA0001020FFF7A3FF002005002800C0B28028D7
:104AB0000ADADFF840022900C9B200EBC100310078
:104AC000C9B244546D1CF0E7761CDAE7FFF7ABFF80
:104AD00070BDF0B5030000241800C0B2802803DACE
:104AE0000800C0B2402800DB43E00800C0B208253F
:104AF00090FBF5F5D5F107050800C0B2082790FB3B
:104B0000F7F607FB16060120D6F1070710FA07F79C
:104B10001000C0B2002816D0DFF8D8011C00E4B2A3
:104B200000EBC404AC465FFA8CFC9E465FFA8EFE36
:104B300000EBCE00AE465FFA8EFE10F80E00384352
:104B400004F80C0015E0DFF8AC011C00E4B200EB47
:104B5000C404AC465FFA8CFC9E465FFA8EFE00EB06
:104B6000CE00AE465FFA8EFE10F80E00B84304F891
:104B70000C00F0BD2DE9F84F05000E001F000A9C47
:104B80008DF80060B2F1200A5FF0000B5846390042
:104B9000C0B2C9B2884267D23800C0B20C281CD15A
:104BA0002000C0B200280BD053495246D2B20C208C
:104BB000424301EB02005946C9B2405C814624E001
:104BC0004D495246D2B20C20424301EB02005946F5
:104BD000C9B2405CC043814617E02000C0B2002843
:104BE00009D046485146C9B2090108445946C9B2DC
:104BF000405C814609E041485146C9B20901084478
:104C00005946C9B2405CC0438146002080464046B8
:104C1000C0B2082825DA5FEA096007D50122310011
:104C2000C9B22800C0B2FFF754FF06E000223100ED
:104C3000C9B22800C0B2FFF74CFF5FEA4909761CF1
:104C40003100C9B29DF80000091A3800C0B2814293
:104C500004D19DF8000006006D1C02E018F1010867
:104C6000D5E71BF1010B91E7BDE8F18FF8B5040022
:104C70000D0016001F00307800282FD03800C0B279
:104C8000022190FBF1F0D0F180002100C9B28842EE
:104C900010DA002004007D193800C0B2D0F14000C5
:104CA0002900C9B2884205DA00200400250000204E
:104CB000FFF7E4FE9DF8180000903B00DBB232786D
:104CC0002900C9B22000C0B2FFF754FF3800C0B2BB
:104CD000022190FBF1F00419761CCCE7F1BD000035
:104CE000FCED00E0001000E0041000E040420F0086
:104CF0004C0B00200C000020AC8C0008BC86000887
:104D00002DE9F84F04000D0016001F00DDF828B053
:104D10003800C0B2C01D082190FBF1F95FF0000A15
:104D200050465946C9B280B289B288422AD2002080
:104D3000804640463900C9B280B289B288421ED24C
:104D4000404680B2082190FBF1F1524692B24846AB
:104D500080B2424306EB0200405C802118F007025B
:104D60001141084208D001221AEB0501C9B218EB23
:104D70000400C0B2FFF7ADFE18F10108D9E71AF13F
:104D8000010ACDE7BDE8F18F80B50021AE20FFF725
:104D90002DFE00210020FFF729FE00211020FFF743
:104DA00025FE00214020FFF721FE00218120FFF792
:104DB0001DFE0021CF20FFF719FE0021A120FFF7E3
:104DC00015FE0021C020FFF711FE0021A620FFF7ED
:104DD0000DFE0021A820FFF709FE00213F20FFF76C
:104DE00005FE0021D320FFF701FE00210020FFF780
:104DF000FDFD0021D520FFF7F9FD00218020FFF700
:104E0000F5FD0021D920FFF7F1FD0021F120FFF78A
:104E1000EDFD0021DA20FFF7E9FD00211220FFF768
:104E2000E5FD0021DB20FFF7E1FD00214020FFF739
:104E3000DDFD00212020FFF7D9FD00210220FFF732
:104E4000D5FD00218D20FFF7D1FD00211420FFF7B3
:104E5000CDFD0021A420FFF7C9FD0021A620FFF70A
:104E6000C5FD0021AF20FFF7C1FD0020FFF706FEC2
:104E700001BD80B500F001F801BD80B5FFF784FFEA
:104E800001BD030270B5040001F0EAF80500260038
:104E900016F1010F02D004480068861901F0E0F80D
:104EA000401BB042FAD370BD0400002038B50400A6
:104EB0000125002C51D094F82100002805D10020B4
:104EC00084F82000200002F0ADFF022084F82100C9
:104ED000CA2021684862532021684862200000F0FF
:104EE00096F905002800C0B2002836D120688168F4
:104EF000DFF8C00301402068816020688168626833
:104F000020690243A0690243114320688160E06880
:104F10002168086120680069A16850EA01402168A1
:104F20000861200000F099F905002800C0B20028AF
:104F300013D12068C06C800880002168C864206894
:104F4000C16CE2696069024311432068C164FF20BB
:104F500021684862012084F821002800C0B232BDD7
:104F60002DE9F04705000E00140095F820000128F7
:104F700001D102206DE0012085F82000022085F893
:104F80002100CA2029684862532029684862280005
:104F900000F03DF980464046C0B200284AD1002CBE
:104FA00020D128688068400601D40020F070307855
:104FB00000F08AF98246707800F086F98146B07870
:104FC00000F082F95FFA8AFA5FFA89F95FEA092943
:104FD00059EA0A49C0B250EA0909F07859EA8059F9
:104FE0004F4610E028688068400601D40020F07029
:104FF00030787178090251EA0041B0780143F078C5
:1050000051EA80510F00DFF8B0023840296808608B
:105010002868806830F48020296888602868816862
:10502000F26830690243114328688160280000F06B
:1050300014F98046FF20296848624046C0B2002823
:1050400002D1012085F82100002085F8200040468B
:10505000C0B2BDE8F087F8B505000E00140028685E
:10506000806A7060286800694004400CB06028685D
:105070000768DFF8440207403800000C10F03F00DA
:1050800030703800000A10F07F00707017F07F0059
:10509000B0703800800D10F00100F070002C0BD1C2
:1050A000307800F01FF93070707800F01BF97070E4
:1050B000B07800F017F9B0700020F2BD2DE9F04192
:1050C00005000E00140095F82000012801D10220EF
:1050D00058E0012085F82000022085F82100002CEE
:1050E00007D17078C00604D5707810F0EF000A3050
:1050F0007070002C16D1F07800F0E6F880467078D9
:1051000000F0E2F80700B07800F0DEF85FFA88F807
:10511000FFB23F0257EA0847C0B20743307857EA68
:10512000403709E0F07877783F0257EA0047B078D7
:105130000743307857EA4037CA202968486253202D
:1051400029684862280000F062F880464046C0B2F4
:10515000002808D1DFF86401384029684860280039
:1051600000F07BF88046FF20296848624046C0B2C4
:10517000002802D1012085F82100002085F82000B8
:105180004046C0B2BDE8F081F8B505000E0014003D
:1051900028684768DFF8240107403800000CF070E9
:1051A0003800000A10F01F00707017F03F00B07058
:1051B0003800400B10F007003070002C0BD1F07855
:1051C00000F090F8F070707800F08CF87070B078A3
:1051D00000F088F8B0700020F2BD38B504002068F7
:1051E000C06830F0A0002168C86000F039FF0500F9
:1051F0002068C068800608D400F032FF401B40F2EF
:10520000E9318842F4D3032000E0002032BD70B5BC
:10521000040000262068C06840061BD45FF0FF3001
:105220002168C86000F01CFF05002068C0684006C7
:1052300010D43000C0B203280CD000F011FF401B86
:1052400040F2E9318842F0D303200600032084F8BD
:105250002100EAE73000C0B270BD70B5040000253F
:105260001748016831F080010160164E30688006F1
:105270000AD42000FFF7B1FF002817D0032084F8DC
:1052800021000320050011E0306830F0200030607C
:105290002000FFF7A2FF002804D0032084F821009B
:1052A00003200500306850F0200030602800C0B2B4
:1052B00070BD0000BFFF8FFF7F7F7F003FFFFF00BB
:1052C0000C280040082800400100002208000300CC
:1052D000DBB20A2B02D3521C0A38F8E750EA02105C
:1052E000C0B270470100C9B209090A2211FB02F1DC
:1052F00010F00F004018C0B27047F8B5020010005F
:1053000080B242F2107398426DD212F00F008DF805
:1053100000006B46C2F303105870100080B20012F8
:1053200010F00F009870100080B2000BD870D87881
:105330009C7820185C78041906259DF8000005FB70
:1053400004048DF800409DF800000A2490FBF4F45A
:105350009DF800000A2590FBF5F605FB16008DF878
:1053600000005D78D878092610FB06409E78052756
:1053700016FB070045195D7058780A2590FBF5F576
:1053800058780A2690FBF6F706FB170058709878B5
:10539000400050FA85F0987098780A2690FBF6F64F
:1053A00098780A2790FBF7FC07FB1C009870D878C8
:1053B000800050FA86F0D870D8780A2790FBF7F76B
:1053C000D8785FF00A0C90FBFCFE0CFB1E00D87036
:1053D000D878087098784870587888709DF80000E0
:1053E000C870002000E00120F2BD2DE9FF4104005B
:1053F0000D00A079232880F2A080E079002840F0F9
:105400009C80217862784FF48070424352FA81F098
:1054100080B200906E46A178E2784FF480704243EB
:10542000501880B27060217962794FF480704243E5
:10543000501880B2B060A179E2794FF48070424395
:10544000501880B2F0600099F2684FF42473B76886
:105450004FF4E450474303FB027273684FF4AD50BE
:1054600000FB032251180091009842F21071B0FB2A
:10547000F1F1009842F21072B0FBF2F302FB13005C
:105480000090F36841F6F75000FB0313B76842F24F
:10549000185000FB07337768062000FB0733736062
:1054A000706842F21073B0FBF3F37068B0FBF2F770
:1054B00002FB17007060F76841F28D2000FB073790
:1054C000D6F808C02A2000FB0C77B760B06842F21B
:1054D0001077B0FBF7FCB068B0FBF2F702FB1700E7
:1054E000B060F76840F2191000FB07C7F760F0687A
:1054F00042F21077B0FBF7F7F068B0FBF2FE02FB68
:105500001E02F2605FF00308404640B2002812D449
:10551000404640B27FF0030110FB01F0284410F137
:105520000C01404640B256F8200080B2FFF7E5FE7D
:10553000B8F10108E8E7002000E0012004B0BDE870
:10554000F081550062B38B0708D0521E11F8013B61
:1055500000F8013B00F024808B07F6D1830740F070
:10556000208000BF103A07D330B4B1E83810103AA9
:10557000A0E83810F9D230BC530724BFB1E80810B6
:10558000A0E8081044BF51F8043B40F8043BD207A0
:1055900024BF31F8022B20F8022B44BF0B78037094
:1055A0007047121F17D35B0009D151F8043B20F854
:1055B000023B1B0C121F20F8023BF6D20BE051F805
:1055C000043B00F8013B1B0A20F8023B1B0C121F96
:1055D00000F8013BF3D238BF121D521E24BF11F850
:1055E000013B00F8013BF8D87047000010B50400FB
:1055F000002C01D1012035E0A0690028FFD1606FA7
:10560000002805D1002084F87000200002F045FC3D
:105610002420606720680068400840002168086016
:10562000200000F030F9012801D101201AE0606A61
:10563000002802D0200000F0FBFA2068406830F417
:105640009040216848602068806830F02A00216816
:1056500088602068006850F0010021680860200020
:1056600000F053FB10BD2DE9FC4706000D001700AC
:105670009846706F202860D1002D03D0380080B28A
:10568000002801D1012059E096F87000012801D1CD
:10569000022053E0012086F870000020F0672120EE
:1056A000706700F0DDFC8146A6F85070A6F85270D5
:1056B000B068B0F5805F05D13069002802D10024C0
:1056C000AA4602E02C005FF0000A002086F8700075
:1056D000B6F85200002820D0CDF800804B460022BA
:1056E0008021300000F045FB002801D0032025E098
:1056F000002C08D1BAF80000C005C00D316808853B
:105700001AF1020A03E0207831680885641CB6F8B3
:105710005200401EA6F85200DAE7CDF800804B4652
:1057200000224021300000F024FB002801D003209B
:1057300004E020207067002000E00220BDE8F6872A
:105740002DE9F84F83460D0016001F00DBF87800A6
:10575000202840F09580002D03D0300080B2002832
:1057600001D101208DE09BF87000012801D10220B9
:1057700087E001208BF870000020CBF87C0022200D
:10578000CBF8780000F06CFC8046ABF85860ABF8C2
:105790005A60DBF80800B0F5805F0CD1DBF8100030
:1057A000002804D140F2FF10ABF85C0027E0FF2096
:1057B000ABF85C0023E0DBF8080000280BD1DBF835
:1057C0001000002803D1FF20ABF85C0017E07F2019
:1057D000ABF85C0013E0DBF80800B0F1805F0BD1A0
:1057E000DBF81000002803D17F20ABF85C0006E056
:1057F0003F20ABF85C0002E00020ABF85C00BBF897
:105800005C90DBF80800B0F5805F06D1DBF8100093
:10581000002802D10024AA4602E02C005FF0000A12
:1058200000208BF87000BBF85A00002823D00097A6
:10583000434600222021584600F09BFA002801D060
:1058400003201EE0002C09D1DBF80000808C19EA4F
:105850000000AAF800001AF1020A06E0DBF80000D6
:10586000808C19EA00002070641CBBF85A00401EAE
:10587000ABF85A00D7E72020CBF87800002000E0F2
:105880000220BDE8F28F2DE9F84F04000025002624
:105890005FF00009DFF8781320688842FFD0A26823
:1058A0002069024360690243E0690243206803689B
:1058B000DFF86003034013432068036020684368F7
:1058C00033F44053E068034320684360D4F818A0E1
:1058D0002068884202D0206A50EA0A0A206880685C
:1058E00030F430605AEA0000226890602068DFF8E7
:1058F0002823904216D1DFF82403006810F003003B
:10590000002805D0022805D006D3032806D007E0DA
:10591000012741E002273FE004273DE008273BE064
:10592000102739E02068DFF8F822904216D1BB48F2
:10593000006810F00C00002806D0042808D00828C1
:1059400004D00C2806D007E0002725E0022723E03A
:10595000042721E008271FE010271DE02068884267
:1059600019D1AE48006810F44060002809D0B0F5A5
:10597000806F0AD0B0F5006F05D0B0F5406F06D04B
:1059800007E0002708E0022706E0042704E00827D4
:1059900002E0102700E01027206888427CD1380000
:1059A000C0B2002806D0022808D0042809D0082850
:1059B0000BD00EE001F004F881460CE099488146D6
:1059C00009E000F090FF814605E04FF40040814679
:1059D00001E001200600B9F1000F00F010816168BC
:1059E00003204143894505D361684FF4805041430A
:1059F000494502D20120060001E13800C0B200286A
:105A000006D0022814D004281FD008282DD035E055
:105A100000F0D6FF80464FF4807260684008002195
:105A2000E2FB08016268002302F0DEFC050027E0CB
:105A30006268520800237C480021101859416268AE
:105A4000002302F0D1FC05001AE000F04CFF804674
:105A50004FF48072606840080021E2FB0801626830
:105A6000002302F0C1FC05000AE06068400810F560
:105A700000006168B0FBF1F0050001E001200600C4
:105A8000B5F5407F05D3B5F5801F02D22068C5600B
:105A9000B5E001200600B2E0E069B0F5004F5DD14D
:105AA0003800C0B2002808D0012813D002281ED028
:105AB000042826D0082831D03AE000F081FF804643
:105AC0006068400810EB48006168B0FBF1F080B2FC
:105AD00005002FE000F081FF80466068400810EB71
:105AE00048006168B0FBF1F080B2050022E0606818
:105AF0004E4911EB50016068B1FBF0F080B2050037
:105B000018E000F0F0FE80466068400810EB4800A6
:105B10006168B0FBF1F080B205000BE060684008FE
:105B200010F580306168B0FBF1F080B2050001E053
:105B300001200600102D0ED3B5F5803F0BD24FF695
:105B4000F0712940C5F3420001438B46584680B2AC
:105B50002168C86053E00120060050E03800C0B260
:105B6000002808D0012812D002281CD0042824D0F4
:105B700008282ED037E000F023FF8046606818EB3D
:105B800050006168B0FBF1F080B205002DE000F03C
:105B900024FF8046606818EB50006168B0FBF1F0AC
:105BA00080B2050021E060681E4911EB5001606879
:105BB000B1FBF0F080B2050017E000F094FE8046E3
:105BC000606818EB50006168B0FBF1F080B205002E
:105BD0000BE06068400810F500406168B0FBF1F030
:105BE00080B2050001E001200600102D05D3B5F5B7
:105BF000803F02D22068C56001E00120060000203D
:105C00002066002060663000C0B2BDE8F28F000060
:105C100000800040F369FFEF003801408810024027
:105C2000004400400024F400000024F40048E8018F
:105C300090F82410C90707D501684A6832F4003289
:105C4000816A0A4301684A6090F82410890707D5E1
:105C500001684A6832F48032C16A0A4301684A60C6
:105C600090F82410490707D501684A6832F4802269
:105C7000016B0A4301684A6090F82410090707D5B0
:105C800001684A6832F40042416B0A4301684A6085
:105C900090F82410C90607D501688A6832F480524A
:105CA000816B0A4301688A6090F82410890607D541
:105CB00001688A6832F40052C16B0A4301688A6045
:105CC00090F82410490613D501684A6832F480120E
:105CD000016C0A4301684A60016CB1F5801F07D16D
:105CE00001684A6832F4C002416C0A4301684A60A4
:105CF00090F82410090607D501684A6832F400229A
:105D0000816C0A4301684A60704738B5040000207E
:105D1000E06700F0A5F905002068006800070DD5D0
:105D20007FF07E4000902B0000225FF400112000E5
:105D300000F01FF8002801D0032019E02068006857
:105D400040070DD57FF07E4000902B0000225FF4CD
:105D50008001200000F00DF8002801D0032007E0AA
:105D6000202060672020A067002084F870000020B9
:105D700032BD2DE9F04105000E0090461F00069C43
:105D80002868C0693040B04201D1012000E0002005
:105D90004146C9B2884241D114F1010FF0D000F060
:105DA0005FF9C01B844201D3002C14D1286800681D
:105DB00030F4D07029680860286880684008400086
:105DC00029688860202068672020A867002085F85F
:105DD0007000032023E0286800684007D0D52868B9
:105DE000C0690005CCD54FF40060296808622868B6
:105DF000006830F4D070296808602868806840081E
:105E0000400029688860202068672020A86720203B
:105E1000E867002085F87000032000E00020BDE85E
:105E2000F0810000F8B4030000250868E84000286D
:105E300000F0D18001260F6816FA05F007403A00FD
:105E4000002A00F0C6804868012808D04868022867
:105E500005D04868112802D0486812281DD19F68D3
:105E60005FF0030C2800C0B240001CFA00FC37EAC7
:105E70000C07D1F80CC02800C0B240001CFA00FC8E
:105E80005CEA07079F605868AE40B0434E68C6F3AF
:105E90000016AE40304304005C60DE680327280033
:105EA000C0B2400017FA00F08643D1F808C02800BD
:105EB000C0B240001CFA00FC5CEA0606DE604868DE
:105EC000022802D0486812281ED12800C00803EB1F
:105ED0008000046A5FF00F0C15F00700C0B280006C
:105EE0001CFA00FC34EA0C04D1F810C015F00700CD
:105EF000C0B280001CFA00FC5CEA04042600280002
:105F0000C00803EB800006621C682800C0B2400095
:105F10008740BC430F7917F003072800C0B2400048
:105F200087403C431C604868C00052D5364806682C
:105F300056F001060660006810F00100009000981D
:105F4000324F2800800857F820605FF00F0C15F0E2
:105F50000300C0B280001CFA00FC36EA0C06B3F164
:105F6000904F01D100240AE02948834201D1012445
:105F700005E02848834201D1022400E0072415F0FF
:105F80000300C0B28000844026432800800847F800
:105F90002060214C206890434F68FF0300D51043D8
:105FA00020601E4E346894434F68BF0300D51443ED
:105FB00034601B4E306890434F68FF0200D5104399
:105FC0003060184E346894434F68BF0200D51443C4
:105FD00034606D1C29E7F1BC7047020010690B00AA
:105FE0009BB2184201D0012000E00020C0B27047EF
:105FF0001300DBB2002B03D00B009BB2836102E0E5
:106000000B009BB2836270476010024008000140A1
:106010000004004800080048000401400404014056
:10602000080401400C04014000F10103810704D081
:1060300010F8011B820781B1FAD10268A2F1013187
:10604000914311F0803104BF50F8042FF6E709BAEC
:10605000B1FA81F100EBD100401CC01A704700007A
:1060600001480068704700BF400C002070B50D4625
:106070002C7834B970BD11F8013F1678B34206D0C0
:10608000401C214602F0C8FA28B101462A4612F8FF
:10609000013F002BEFD170BD62F30F2262F31F426C
:1060A000401810F0030308D0C91A1FD3DB0748BFFC
:1060B00000F8012D28BF20F8022D130030B414463B
:1060C0001546103928BF20E93C00FAD8490728BFF7
:1060D00020E90C0048BF40F8042D890028BF20F8B3
:1060E000022D48BF00F8012D30BC7047C91818BFF9
:1060F00000F8012DCB0728BF00F8012D70470000E4
:106100002DE9FE4F0500002D01D1012043E3DFF80A
:10611000E898D9F8004014F00C04DFF8E888D8F8C3
:10612000007017F003072878C00640F1C680002CE5
:1061300003D00C2C7AD1012F78D1DFF8B8A8DAF887
:106140000000800704D5A869002801D1012022E3BE
:10615000DAF80000000704D5DAF8000010F0F000CB
:1061600005E0DFF830090068000910F0F000296A46
:1061700088421ED2286A00F047FC002801D0012086
:1061800009E3DAF8000050F00800CAF80000DAF875
:10619000001031F0F001286A0143CAF80010DFF85E
:1061A000F808016831F47F41EA6951EA022101608F
:1061B0001FE0DAF8000050F00800CAF80000DAF832
:1061C000001031F0F001286A0143CAF80010DFF82E
:1061D000C808016831F47F41EA6951EA022101608F
:1061E000002C06D1286A00F00FFC002801D0012005
:1061F000D1E200F078FBDFF8A418D9F80020C2F350
:106200000312895C11F01F01C840DFF8F017086025
:10621000DFF8EC07006801F07DFD8DF800009DF8C7
:106220000000002849D09DF80000B4E2A8690028C9
:106230002DD0DFF8C097D9F8000050F00100C9F860
:106240000000FFF70DFF0600D9F80000800706D414
:10625000FFF706FF801B0328F6D303209BE2D9F843
:10626000000050F00800C9F80000D9F8001031F023
:10627000F001286A0143C9F80010DFF81C08016822
:1062800031F47F41EA6951EA0221016015E0DFF84B
:106290006497D9F8000040084000C9F80000FFF7F3
:1062A000DFFE0600D9F80000800706D5FFF7D8FE0C
:1062B000801B0328F6D303206DE22878C00754D54D
:1062C000082C03D00C2C0BD1032F09D1DFF82407A5
:1062D0000068800349D56868002846D101205AE249
:1062E0006868B0F5803F06D1DFF80807016851F40F
:1062F0008031016018E06868B0F5A02F0AD1DFF89E
:10630000F406016851F480210160016851F4803184
:10631000016009E0DFF8DC06016831F480310160DA
:10632000016831F480210160686800280ED0FFF711
:1063300097FE0600DFF8BC060068800315D4FFF75F
:106340008FFE801B6528F5D3032024E2FFF788FE2B
:106350000600DFF8A0060068800306D5FFF780FE80
:10636000801B6528F5D3032015E22878800752D5D5
:10637000042C03D00C2C15D1022F13D1DFF8740696
:106380000068400504D5E868002801D1012002E238
:10639000DFF80407016831F0F8512A6951EA026117
:1063A000016038E0E86800281FD0DFF84896D9F887
:1063B000000050F48070C9F80000FFF751FE06009D
:1063C000D9F80000400506D4FFF74AFE801B0328D9
:1063D000F6D30320DFE1DFF8C006016831F0F851A1
:1063E0002A6951EA0261016015E0DFF80896D9F8E0
:1063F000000030F48070C9F80000FFF731FE06009D
:10640000D9F80000400506D5FFF72AFE801B0328B7
:10641000F6D30320BFE1287800072ED5686900284D
:1064200015D0DFF87096D9F8000050F00100C9F8D7
:106430000000FFF715FE0600D9F8000080071CD405
:10644000FFF70EFE801B0328F6D30320A3E1DFF83D
:106450004496D9F8000040084000C9F80000FFF752
:10646000FFFD0600D9F80000800706D5FFF7F8FD0C
:10647000801B0328F6D303208DE12878400740F1E4
:1064800081805FF00009DFF818A6DAF80000C0008C
:106490000DD4DAF8000050F08050CAF80000DAF8A5
:1064A000000010F080500190019801208146DFF833
:1064B000F4B5DBF80000C00513D4DBF8000050F49D
:1064C0008070CBF80000FFF7CBFD0600DBF8000082
:1064D000C00506D4FFF7C4FD801B0328F6D30320B4
:1064E00059E1A868012806D1DFF8BC05016851F020
:1064F0000101016017E0A86805280AD1DFF8A805A6
:10650000016851F004010160016851F0010101606E
:1065100009E0DFF894050168490849000160016855
:1065200031F004010160A868002810D0FFF798FD41
:106530000600DFF874050068800719D4FFF790FDA6
:10654000801B41F289318842F3D3032023E1FFF716
:1065500087FD0600DFF850050068800708D5FFF7C3
:106560007FFD801B41F289318842F3D3032012E181
:106570004846C0B2012805D1DAF8000030F080505A
:10658000CAF80000287880062ED5686A002815D041
:10659000DFF81895D9F8000050F00100C9F80000A4
:1065A000FFF75EFD0600D9F8000080071CD4FFF756
:1065B00057FD801B0328F6D30320ECE0DFF8EC94B2
:1065C000D9F8000040084000C9F80000FFF748FD76
:1065D0000600D9F80000800706D5FFF741FD801BB3
:1065E0000328F6D30320D6E0A86A002800F0D28062
:1065F000A86A022840F0A380D8F80000070017F02E
:106600000300E96A884222D117F07000296B491E05
:10661000B0EB011F1BD117F4FE40696BB0EB012FEB
:1066200015D117F07840A96BB0EBC16F0FD117F4FB
:10663000C000E96B4908491EB0EB415F07D117F074
:10664000C060296C4908491EB0EB416F57D00C2C33
:1066500053D0DFF8A0A3DAF80000400101D50120F3
:1066600099E0DAF8000030F08070CAF80000FFF717
:10667000F7FC8146DAF80000800107D5FFF7F0FC4F
:10668000B0EB09000328F5D3032084E0D8F800100C
:10669000DFF81C040140E86A0143286B401E51EA00
:1066A0000011686B51EA0021E86B4008401E51EA76
:1066B0004051286C4008401E51EA4061A86B51EAE5
:1066C000C061C8F80010DAF8000050F08070CAF815
:1066D0000000D8F8000050F08070C8F80000FFF704
:1066E000BFFC0600DAF80000800153D4FFF7B8FCC5
:1066F000801B0328F6D303204DE001204BE0DFF898
:10670000F492D9F80000800144D4D9F8000050F088
:106710008070C9F80000D8F8000050F08070C8F808
:106720000000FFF79DFC0600D9F80000800131D47D
:10673000FFF796FC801B0328F6D303202BE00C2CDC
:1067400026D0DFF8B092D9F8000030F08070C9F898
:106750000000D9F80000000105D4D8F80000800836
:106760008000C8F80000D8F80010DFF848030140A6
:10677000C8F80010FFF774FC0600D9F8000080018B
:1067800008D5FFF76DFC801B0328F6D3032002E039
:10679000012000E00020BDE8FE8F2DE9F04104005B
:1067A0000D00002C01D101209BE0DFF80C7338684C
:1067B00010F00700A8420BD23868C008C000284378
:1067C0003860386810F00700A84201D0012088E046
:1067D0002078C00742D56068032806D1DFF814028C
:1067E000006880011CD401207BE06068022806D18B
:1067F000DFF800020068800312D4012071E06068B5
:10680000002806D1DFF8EC010068800708D40120D9
:1068100067E0DFF8E0010068400501D4012060E096
:10682000DFF8D481D8F80010890889006068014336
:10683000C8F80010FFF714FC0600D8F8000010F0AC
:106840000C006168B0EB810F08D0FFF709FC801BDA
:1068500041F289318842F0D3032042E0207880075A
:1068600006D565490A6832F0F002A06802430A6062
:10687000386810F0070085420BD23868C008C000A5
:1068800028433860386810F00700A84201D0012082
:1068900027E02078400706D557490A6832F4E062BD
:1068A000E06802430A602078000707D55248016873
:1068B00031F46051226951EAC201016000F013F81D
:1068C000DFF8D8114C4A1268C2F30312895C11F048
:1068D0001F01C840494908604948006801F01AFA98
:1068E000C0B2BDE8F0812DE9F04100260020424908
:1068F000096811F00C01DFF80CC1DCF8007017F02A
:106900000307002903D00C291AD1012F18D1DFF871
:10691000E4E0DEF800805FEA087806D4DFF874E18E
:10692000DEF800E0CEF3032E03E0DEF800E0CEF365
:10693000031E624E56F82E6000290CD130000AE08A
:10694000042903D1DFF878E1704604E0082902D178
:10695000DFF870E170460C292DD1DCF800E01EF064
:10696000030E73469E46BEF1020F03D0BEF1030F25
:1069700003D005E0DFF848E103E0DFF848E100E09C
:10698000B646DCF80020C2F30212521C1500DCF8F7
:106990000020C2F3062202FB0EFEBEFBF5F2DCF87D
:1069A00000C0CCF3416C1CF1010C5FEA4C0C644656
:1069B000B2FBF4FC6046BDE8F08110480068704707
:1069C00080B5FFF7FAFF40490B4A1268C2F3022272
:1069D000895C11F01F01C84002BD80B5FFF7EDFFD3
:1069E0003949054A1268C2F3C222895C11F01F01BD
:1069F000C84002BD001002400810024008000020FC
:106A0000000000200C1002407CB504000025244E3C
:106A10003068C00003D500F093FA01000FE0306841
:106A200050F080503060306810F080500090009836
:106A300000F086FA0100306830F080503060B1F527
:106A4000007F09D1812C15D3A12C02D3022005008F
:106A500010E0012005000DE0812C02D30320050089
:106A600008E0802C02D10220050003E0702C01D147
:106A70000120050010480268D208D2002A430260B3
:106A8000006810F00700A84201D0012000E00020BB
:106A900076BD00009410024004100240E09500080A
:106AA00058100240007000409010024098100240C0
:106AB0008C809D01FFFFEEFE0020024048940008FC
:106AC0000024F40000127A009C9600082DE9F84F8B
:106AD000050000275FF000082868000527D5E86B4F
:106AE00000280DD0B0F5000F03D0B0F5400F0DD049
:106AF0000DE0DFF8B002016851F48031016008E078
:106B00000021281D00F058F9070002E001E00120F3
:106B100007003800C0B2002808D1DFF898120A68D0
:106B200032F44002E86B02430A6000E0B84628688D
:106B300080037AD55FF00009DFF86CA2DAF8000074
:106B4000C0000DD4DAF8000050F08050CAF8000000
:106B5000DAF8000010F08050009000980120814683
:106B6000DFF848B2DBF8000050F48070CBF800008A
:106B7000FFF776FA0600DBF80000C00506D4FFF741
:106B80006FFA801B0328F6D3032007003800C0B239
:106B900000283FD1DFF818B2DBF8000010F4407095
:106BA0000400002C15D0286D844212D0DBF80000C0
:106BB00030F440700400DBF8000050F48030CBF873
:106BC0000000DBF8000030F48030CBF80000CBF898
:106BD0000040E0070FD5FFF743FA0600DBF800009E
:106BE000800708D4FFF73CFA801B41F289318842C4
:106BF000F4D3032007003800C0B2002808D1DBF826
:106C0000001031F44071286D0143CBF8001002E010
:106C1000B84600E0B8464846C0B2012805D1DAF8C7
:106C2000000030F08050CAF800002878C00707D56F
:106C3000DFF880110A6892089200286A02430A600D
:106C40002878800707D5DFF86C110A6832F00C024B
:106C5000686A02430A602878800607D5DFF8541175
:106C60000A6832F44062A86A02430A602868800514
:106C700007D5DFF840110A6832F44022686B0243FE
:106C80000A602868400507D5DFF828110A6832F441
:106C90004012A86B02430A602878400607D5DFF847
:106CA00014110A6832F44052E86A02430A60286804
:106CB000C00507D5DFF8FC100A6832F44032286BB3
:106CC00002430A602868800420D5DFF8E8100A68CB
:106CD00032F04062286C02430A60286CB0F1006F09
:106CE00006D1DFF8C000016851F4801101600DE0A9
:106CF000286CB0F1806F09D10121281D00F05CF8EB
:106D000007003800C0B2002800D0B8462868400309
:106D100020D5DFF8A0100A6832F04062686C0243A8
:106D20000A60686CB0F1006F06D1DFF87800016886
:106D300051F4801101600DE0686CB0F1806F09D1F1
:106D40000121281D00F038F807003800C0B20028E3
:106D500000D0B8462868400415D5DFF858100A68F6
:106D600032F04052A86C02430A60A86CB0F1805F18
:106D700009D10221281D00F01FF807003800C0B219
:106D8000002800D0B8462868000407D5DFF8241092
:106D90000A6832F08042E86C02430A604046C0B2A2
:106DA000BDE8F28F0C100240581002400070004005
:106DB00090100240881002402DE9F04105000C00BF
:106DC00000275A49086810F0030F12D0086810F025
:106DD00003002A68904209D12868002806D0086874
:106DE000C0F30210401C6968884232D001200700BD
:106DF0002FE02868012804D01BD303280FD007D325
:106E000017E049480068800701D40120070012E01C
:106E100045480068400501D4012007000BE04248C6
:106E20000268920304D40068400301D401200700E3
:106E300001E0012007003800C0B2002809D10A682B
:106E400032F07302286802436868401E52EA00125A
:106E50000A603800C0B2002861D1DFF8CC80D8F8D1
:106E6000000030F08060C8F80000FFF7F9F8060075
:106E7000D8F80000000106D5FFF7F2F8801B0328C0
:106E8000F6D3032007003800C0B2002847D1002CF9
:106E90000BD127490A6827480240A86852EA002215
:106EA000E86852EAC0620A601CE0012C0DD120495A
:106EB0000A6821480240A86852EA0022286940086E
:106EC000401E52EA40520A600CE019490A681B4809
:106ED0000240A86852EA002268694008401E52EA4F
:106EE00040620A60D8F8000050F08060C8F80000E6
:106EF000FFF7B6F80600D8F80000000106D4FFF747
:106F0000AFF8801B0328F6D3032007003800C0B277
:106F1000002804D106490A68A86902430A603800BB
:106F2000C0B2BDE8F0810000001002400C10024029
:106F300010100240FF80FF07FF809FFFFF80FFF9D6
:106F4000DFF88000006810F4C06070470200B2F5FE
:106F5000007F26D1DFF86C00036813F4C063B3F53B
:106F6000007F2CD0036833F4C06353F400730360D4
:106F7000DFF85400036832204343DFF85000B3FBCE
:106F8000F0F0401C0100DFF8480003685B0503D502
:106F9000002901D0491EF6E7006840050FD50320FF
:106FA0000EE0DFF82000036813F4C063B3F5806FD0
:106FB00005D0036833F4C06353F48063036000209A
:106FC00070470000007000400800002040420F00A1
:106FD0001470004010B50400002C01D101203DE0E8
:106FE000607F002804D100202077200000F0D9FE27
:106FF000022060772079002809D11948216848616A
:107000002068806830F018002168886008E0E26835
:10701000A168200001F00BFB002801D001201DE039
:107020006079002804D15FF0FF302168086102E038
:107030002069216808612068816831F06001606919
:107040000143206881602068816831F08001A06977
:1070500001432068816001206077002010BD00009E
:10706000B71DC1042DE9F04104000D0016005FF0CA
:107070000008022060772068806850F001002168D5
:107080008860206A012812D01FD3032801D015D3AD
:107090001BE000200700B74205D255F82700216801
:1070A00008607F1CF7E72068006880460DE032002A
:1070B0002900200000F00EF8804606E0320029008A
:1070C000200000F053F88046FFE70120607740463B
:1070D000BDE8F081F0B40026B6EB920F14D211F89F
:1070E000263001EB86077F783F0457EA036701EB00
:1070F00086039B7857EA032701EB8603DB781F435F
:1071000003681F60761CE7E712F0030F2AD012F025
:107110000303012B03D111F8263007683B7012F0EE
:107120000303022B0AD111F8263001EB86077F7882
:1071300057EA03273C0003681D002C8012F003036C
:10714000032B0FD111F8263001EB86077F7857EA21
:1071500003273C0003681D002C8001EB86039B780D
:1071600007683B7000680068F0BC704770B400248A
:10717000B4EB520F0BD231F82450660001EB4606F7
:10718000768856EA054605682E60641CF0E7D50748
:1071900004D505682B0031F824501D800068006874
:1071A00070BC704710B50400002C01D101205EE0D6
:1071B00094F84100002805D1002084F84000200008
:1071C00000F000FE242084F8410020680068400898
:1071D000400021680860606830F0706021680861D4
:1071E0002068806830F4004021688860E0680128E9
:1071F00005D1A06850F400402168886004E0A068D0
:1072000050F4044021688860E068022803D14FF4FC
:107210000060216848602068406840F0007050F4C9
:107220000040216848602068C06830F40040216850
:10723000C860216960690143A06951EA00212068A2
:10724000C160E169206A014320680160206800682C
:1072500050F001002168086000206064202084F85C
:10726000410000202063002084F84200002010BD6F
:107270002DE9F84304000D0016001F00DDF8208002
:1072800094F84100202840F0AF8094F84000012895
:1072900001D10220A9E0012084F84000FEF7E0FEC1
:1072A0008146CDF80090192301224FF400412000BF
:1072B00000F0B4F8002801D0012096E0212084F8E5
:1072C0004100102084F842000020606466626785F7
:1072D00000206063608DB0F5807F0ED3FF20208595
:1072E000DFF80C0100905FF08073228DD2B229008C
:1072F00089B2200000F05BF90DE0608D2085DFF899
:10730000F00000905FF00073228DD2B2290089B2A4
:10731000200000F04CF9608D002847D04A464146D5
:10732000200000F0AAF8002801D001205DE0606A8A
:10733000007821688862606A401C6062608D401E2F
:107340006085208D401E2085608D0028E3D0208D33
:107350000028E0D1CDF80090434600228021200093
:1073600000F05CF8002801D001203EE0608DB0F50F
:10737000807F0DD3FF202085002000905FF0807378
:10738000228DD2B2290089B2200000F010F9C2E7A4
:10739000608D2085002000905FF00073228DD2B2B6
:1073A000290089B2200000F002F9B4E74A464146BC
:1073B000200000F08EF8002801D0012015E02020E8
:1073C0002168C86120684168DFF828000140206812
:1073D0004160202084F84100002084F84200002011
:1073E00084F84000002000E00220BDE8F2830000A5
:1073F0000020008000E800FE01688969890702D545
:1074000000210268916201688969C90705D4016891
:10741000896951F001010268916170472DE9F041DD
:1074200005000E0090461C00069F286880693040C9
:10743000B04201D1012000E000204146C9B288429B
:1074400018D114F1010FF0D0FEF70AFEC01B8442E0
:1074500001D3002CE9D1686C50F020006864202032
:1074600085F84100002085F84200002085F84000A2
:10747000012000E00020BDE8F08170B505000C009F
:10748000160028688069800721D432002100280076
:1074900000F048F8002801D0012019E014F1010F94
:1074A000EFD0FEF7DDFD801B844201D3002CE8D134
:1074B000686C50F020006864202085F841000020AE
:1074C00085F84200002085F84000012000E00020FF
:1074D00070BD70B505000C00160028688069800634
:1074E0001ED432002100280000F01CF8002801D032
:1074F000012016E0FEF7B4FD801B844201D3002C6E
:10750000EBD1686C50F020006864202085F84100C1
:10751000002085F84200002085F84000012000E0AE
:10752000002070BD70B505000C0016002868806949
:10753000C0063AD528688069800618D414F1010F76
:10754000F8D0FEF78DFD801B844201D3002CF1D1D1
:10755000686C50F020006864202085F8410000200D
:1075600085F84200002085F8400001201EE0102030
:107570002968C86120202968C8612800FFF73CFFFE
:10758000286841681548014028684160686C50F0DF
:1075900004006864202085F84100002085F842003E
:1075A000002085F84000012000E0002070BD70B48C
:1075B000039C05686D680A4E56EA5456B5430E00A2
:1075C000B6B2B605B60D35431600F6B255EA064515
:1075D0001D4325430668756070BC704700E800FED7
:1075E000FF63FF03020092F8410020282AD192F89D
:1075F0004000012801D1022025E0012082F840004E
:10760000242082F841001068006840084000136898
:1076100018601068006830F48050136818601068B3
:1076200000680843136818601068006850F0010093
:1076300013681860202082F84100002082F8400082
:10764000002000E00220704710B4020092F84100D0
:10765000202827D192F84000012801D1022022E001
:10766000012082F84000242082F841001068006860
:1076700040084000136818601068036833F47063B2
:1076800053EA0123106803601068006850F001009D
:1076900014682060202082F84100002082F8400019
:1076A000002000E0022010BC7047000010B504006C
:1076B000002C01D101205AE0606A00280020A0625D
:1076C00094F85D00002805D1002084F85C002000BB
:1076D00000F0B2FB022084F85D002068006830F002
:1076E00040002168086040F20172E068904201D3D6
:1076F000002101E04FF48051E068B0F5706F05D0D3
:10770000E068B0F5E06F01D00020A062206B002897
:1077100007D1E068904202D30220206301E00120FB
:1077200020636268A06802432069024360690243E3
:10773000A06910F400700243E0690243206A02432A
:10774000A06A024320680260A269120C12F00402CF
:10775000606A0243606B0243E06802430A432068A8
:10776000426000202066012084F85D00002010BDEA
:107770002DE9FE4F07000D00160098460C9C5FF0A7
:1077800001095FF0000A97F85C00012801D102208E
:1077900053E1012087F85C00FEF762FC834697F80E
:1077A0005D008DF8000078680290ADF80280ADF8B9
:1077B00004809DF8000001280DD00298B0F5827F6A
:1077C00006D1B868002803D19DF80000042802D033
:1077D0000220824629E1002D05D0002E03D040462C
:1077E00080B2002802D1012082461EE197F85D0098
:1077F000042802D0052087F85D00002038663E642A
:10780000A7F84680A7F84480BD63A7F83E80A7F894
:107810003C800020F8640020386540F20170F9686F
:10782000814203D2BDF80410022906D339684968A1
:1078300031F480513A68516005E03968496851F483
:1078400080513A68516039680968490605D4396839
:10785000096851F040013A681160F968814250D3DB
:107860007868002803D0BDF80200012809D1B86B60
:1078700000883968C860B86B801CB863F88F401EF8
:10788000F887F88F002804D1B7F84600002800F0E8
:10789000C18038688068800711D5F88F00280ED025
:1078A000B9F1010F0BD1B86B00883968C860B86BAB
:1078B000801CB863F88F401EF88700208146386826
:1078C0008068C00711D5B7F8460000280DD0386889
:1078D000C068396C0880386C801C3864B7F8460082
:1078E000401EA7F8460001208146FEF7B9FBB0EB29
:1078F0000B00A042C5D314F1010FC2D00320824671
:1079000093E07868002803D0BDF80200012817D161
:10791000F88F02280AD3B86B00883968C860B86B42
:10792000801CB863F88F801EF88709E0B86B007878
:1079300039680873B86B401CB863F88F401EF8872D
:10794000F88F002803D1B7F84600002862D03868C5
:10795000806880071FD5F88F00281CD0B9F1010F6F
:1079600019D1F88F02280AD3B86B00883968C8602B
:10797000B86B801CB863F88F801EF88709E0B86B7D
:10798000007839680873B86B401CB863F88F401EE4
:10799000F8870020814638688068C0072CD5B7F882
:1079A0004600002828D0B7F84600022816D33868C9
:1079B000C068396C0880386C801C3864B7F84600A1
:1079C000801EA7F84600B7F84600022812D2386891
:1079D000406850F48050396848600BE03868007B9C
:1079E000396C0870386C401C3864B7F84600401E8B
:1079F000A7F8460001208146FEF732FBB0EB0B00F2
:107A0000A04202D314F1010F01D1002C98D1032020
:107A100082460AE05A462100380000F0B2F80028F9
:107A200003D00120824620203866012087F85D00BF
:107A3000002087F85C005046C0B2BDE8FE8F2DE9FB
:107A4000F04105000E0090461C00069F28688068E3
:107A50003040B04201D1012000E000204146C9B2CF
:107A6000884239D014F1010FF0D0FEF7F9FAC01BAB
:107A7000A04201D2002CE9D12868406830F0E00033
:107A8000296848606868B0F5827F0DD1A868B0F5B4
:107A9000004F03D0A868B0F5806F05D12868006852
:107AA00030F0400029680860A86AB0F5005F0BD18B
:107AB0002868006830F40050296808602868006869
:107AC00050F4005029680860012085F85D0000200E
:107AD00085F85C00032000E00020BDE8F0812DE97E
:107AE000F04106000F0014001D00DDF8188030681A
:107AF00080683840A04241D0B7F5C06F03D1002C58
:107B000001D13068007B15F1010FF0D0FEF7A8FA23
:107B1000B0EB0800A84201D2002DE8D130684068DF
:107B200030F0E000316848607068B0F5827F0DD1B8
:107B3000B068B0F5004F03D0B068B0F5806F05D1E4
:107B40003068006830F0400031680860B06AB0F515
:107B5000005F0BD13068006830F400503168086075
:107B60003068006850F4005031680860012086F8E1
:107B70005D00002086F85C00032000E00020BDE8E6
:107B8000F0817CB504000D00160000962B00002249
:107B90004FF4C0512000FFF7A2FF002805D0206E4F
:107BA00050F02000206603201FE000962B000022EA
:107BB00080212000FFF743FF002805D0206E50F001
:107BC00020002066032010E000962B0000224FF4D6
:107BD000C0612000FFF783FF002805D0206E50F021
:107BE00020002066032000E0002076BD10B410F0D5
:107BF0000703DFF8044122684FF6FF010A40DFF86F
:107C0000FC1051EA03210A43226010BC7047DFF8E0
:107C1000E8000068C0F30220704710B4020052B2BE
:107C2000002A05D40A01364B040064B21A5508E054
:107C30000A01344B040064B214F00F04234403F827
:107C4000042C10BC704770B4030013F00704D4F187
:107C50000700052801D3042001E0D4F10700251D09
:107C6000072D01D2002500E0E51E012616FA00F0DE
:107C7000401E0140A94016FA05F56D1E2A40114329
:107C8000080070BC704710B50400601EB0F1807F22
:107C900001D301200EE0601E1B4908600F215FF038
:107CA000FF30FFF7BAFF0020184908600720184985
:107CB0000860002010BD10B504002000FFF796FFFB
:107CC00010BD2DE9F04104000D0016000027FFF75C
:107CD0009EFF8046320029004046FFF7B4FF0100B6
:107CE000200040B2FFF799FFBDE8F08110B5040015
:107CF0002000FFF7C8FF10BD0CED00E00000FA0502
:107D000000E400E018ED00E014E000E018E000E01E
:107D100010E000E038B50400002513490868002889
:107D20001DD04FF47A700968B0FBF1F00F49096873
:107D3000B1FBF0F0FFF7DAFF00280DD1102C08D2CC
:107D4000002221005FF0FF30FFF7BBFF084804600E
:107D500007E00120050004E00120050001E001200A
:107D600005002800C0B232BD040000200800002039
:107D70000000002081B07648016851F001010160E7
:107D8000006810F00100009000987248016851F0FE
:107D900080510160006810F080500090009801B0A0
:107DA000704781B001686C4A914209D16B490A68F9
:107DB00052F480520A60096811F4805100910099D0
:107DC00001B0704710B586B004001422002101A84C
:107DD00000F067FC20686249884221D1614801684F
:107DE00051F002010160006810F00200009000985C
:107DF000C0200190122002900120039003200490E3
:107E00000420059001A95848FEF70CF85148016874
:107E100051F400110160006810F400100090009807
:107E200006B010BD0168514A914204D150490A6818
:107E300052F400420A60704710B586B00400142264
:107E4000002101A800F02DFC20684A49884222D177
:107E50003F48016851F480510160006810F480507F
:107E6000009000983F48016851F0010101600068EE
:107E700010F0010000900098E02001900220029094
:107E800000200390032004900520059001A95FF0D5
:107E90009040FDF7C7FF06B010BD10B586B00400D6
:107EA00014220021684600F0FCFB20683249884219
:107EB00024D12748016851F480410160006810F422
:107EC0008040059005982748016851F00101016044
:107ED000006810F00100059005984FF4C060009014
:107EE00002200190002002900320039007200490BC
:107EF00069465FF09040FDF795FF26E020681F4936
:107F0000884222D11348016851F4003101600068B1
:107F100010F40030059005981248016851F00101F5
:107F20000160006810F00100059005980C20009099
:107F3000022001900020029003200390072004906B
:107F400069465FF09040FDF76DFF06B010BD000080
:107F500060100240581002400030024048100240B9
:107F6000005400404C10024000040048002800402B
:107F700090100240003001400038014000440040B1
:107F8000F8B586B004000D000121002201AE3000DA
:107F9000FEF782F80F21002202AE3000FEF77CF8D7
:107FA000002210215FF09040FEF722F8DFF8A07366
:107FB00032200090012302AA01A93800FFF7D8FB64
:107FC0000600322000902B00DBB213F00F0302AA50
:107FD00021003800FFF7CCFB0700374301221021B6
:107FE0005FF09040FEF704F80A20FCF74BFF3800E2
:107FF000C0B207B0F0BD3EB5DFF8580300788DF889
:1080000005000121002201AC2000FEF745F8002404
:10801000002210215FF09040FDF7EAFF00259DF857
:108020000400082817D02800C0B2FE2813DA6D1CFF
:1080300032200090012301AA0DF10501DFF81003A1
:10804000FFF796FB204304009DF8040010F00800A1
:108050008DF80400E3E7012210215FF09040FDF766
:10806000C7FF0A20FCF70EFF2800C0B2FE2801DB84
:10807000012004002000C0B23EBDF8B586B0040067
:10808000DFF8D40200788DF804000F21002202AD41
:108090002800FEF701F8002210215FF09040FDF764
:1080A000A7FFDFF8AC5232200090012302AA01A9F9
:1080B0002800FFF75DFB060032200090022322001B
:1080C00002A92800FFF754FB0700374320788028D7
:1080D0000ED1607800280BD032200090637813F026
:1080E0000F03A21C02A92800FFF742FB3843070038
:1080F000012210215FF09040FDF77AFF0A20FCF783
:10810000C1FE3800C0B207B0F0BD18B589B0DFF8C5
:108110004C0200788DF800001E21002201AC2000E6
:10812000FDF7BAFF012401216846FFF729FF002867
:108130000ED1FFF760FF00280AD101A8FFF79DFFCD
:10814000002805D19DF80400552801D10020040025
:108150002000C0B20AB010BD18B5C1B06846DFF843
:1081600000120A68026001A8DFF8F8114FF480726B
:10817000FDF7F8F9012404216846FFF701FF002804
:1081800012D1FFF738FF00280ED101A8FFF775FFC5
:10819000002809D19DF80400002805D19DF80500AC
:1081A000002801D1002004002000C0B242B010BD60
:1081B00018B5C1B06846DFF8B0110A68026001A8BE
:1081C000DFF8A8114FF48072FDF7CCF901240421E7
:1081D0006846FFF7D5FE002812D1FFF70CFF0028F4
:1081E0000ED101A8FFF749FF002809D19DF804002E
:1081F000002805D19DF80500002801D100200400C9
:108200002000C0B242B010BD10B504002000C0B2C2
:10821000012802D0022803D005E0FFF79DFF03E00C
:10822000FFF7C6FF00E0012010BD2DE9F04788B040
:1082300004000D0016001E2100226F463800FDF7D5
:108240002BFF8E272900C9B22000FFF799FE0028D6
:1082500049D1FFF7D0FE002845D16846FFF70DFF52
:10826000002840D19DF8000030703078802838D147
:1082700068464178042936DB4078C01E707096F855
:1082800001800DF1020916F1020A424649465046A4
:10829000FDF758F9684671780844807886F8FC0044
:1082A000684671780844C07886F8FD0068467178A1
:1082B0000844007986F8FE0096F8FDA04FF480711E
:1082C00096F8FC0001FB0A0A7178B01C00F031F846
:1082D0005146020009B212B2914204D131780F0026
:1082E00001E0307807003800C0B208B0BDE8F08780
:1082F0002DE9F041C2B0040068461D49D1E90023D0
:10830000C0E9002302AA05216846FFF78EFF050099
:10831000082602A89DF809100844871FA0463200CD
:1083200039004046FDF70EF92800C0B242B0BDE862
:10833000F08138B504000D002A00D2B221000D48AA
:10834000FEF790FE80F47F4090F0FF0080B232BDD7
:10835000E80A0020824E0008834E000842550008BB
:10836000A496000820910008A89600082092000812
:1083700094960008980B002018B585B014210022AF
:108380006C462000FDF788FE002210215FF090402F
:10839000FDF72EFE10200090012001900020029099
:1083A0000220039069465FF09040FDF73BFD0122FB
:1083B00010215FF09040FDF71BFE9620FCF762FD58
:1083C000002210215FF09040FDF712FE3220FCF7F2
:1083D00059FD012210215FF09040FDF709FE0A20AF
:1083E000FCF750FD06B010BDBBBBE1B1B2F5803F5C
:1083F00080F07E80022A1ED98C46B1FBF2F102FB8E
:1084000011C31B0443EA1043B3FBF2FC02FB1C3311
:1084100080B240EA0343B3FBF2F002FB103240EAC1
:108420000C4000237047022A05D98446B0FBF2F0C5
:1084300002FB10C270474AB105D100F001024908A1
:108440005FEA3000704700220023704700F034B923
:108450000B000200002100207047904271EB030CDA
:10846000F6D3B3F5803F2FD2F0B5B3FA83F7B1FA64
:1084700081F4A7F10F0E3D1B5340CEF1200602FA06
:108480000EF2F3415340B5F10F0746D80F3C2C4490
:108490004140C4F12006A040F1414140B1FBF3F658
:1084A00003FB1611A2FB0645001BA94102D2761E52
:1084B0008018594180EA010221FA0EF362FA0EF2A5
:1084C00000215A403046F0BD30B4B1FBF3FC03FB51
:1084D0001C11A2FB0C45001BA94103D2ACF1010CFD
:1084E0008018594130BC02460B4660460021704757
:1084F000B2F1807F65D3F0B5B2FA82F7B1FA81F4B8
:10850000C7F10F063D1B22FA06F307F1110EF241E7
:1085100020355A40B5F10F07B8D94140C4F12006C3
:10852000A040F1414140B1FBF3FC03FB1C11A2FB55
:108530000C45001BA94103D2BCF1010C8018594124
:108540000F2F12D30F3FC90341EA5041B1FBF3F69D
:1085500003FB1611A2FB0645D4EBC030A94102D2A1
:10856000761E8018594146EACC3C07B34140C7F11A
:108570002006B840F1414140B1FBF3F603FB161170
:10858000A2FB0645001BA94102D2761E8018594164
:1085900080EA010221FA0EF3C7F1200462FA0EF21A
:1085A0000CFA07F05A402CFA04F13043F0BD80EA8F
:1085B000010221FA0EF3002162FA0EF260465A40DF
:1085C000F0BD8C46B1FBF2F102FB11C31B0243EA82
:1085D0001063B3FBF2FC02FB1C331B024CEA0020CD
:1085E00043EA1063B3FBF2FC02FB1C331B024CEAB0
:1085F000002043EA1063B3FBF2FC02FB1C331B02B6
:108600004CEA002043EA1063B3FBF2FC02FB1C328D
:108610004CEA002000237047C9B202788A421AB19E
:108620001CBF10F8012FF9E718BF0020704770B485
:10863000040000231F252800451E002805D015F042
:108640001F000E00C640F007F5D51000002814D01A
:1086500008280DD0102806D018280FD1072D01D3D7
:10866000012003000CE0082D01D30120030007E0E6
:10867000102D01D30120030002E001E001200300DE
:108680001800C0B2002808D12068416120688068C5
:1086900030F0180010432668B0601800C0B270BCFB
:1086A000704710B5044610460A4601462046FDF7BD
:1086B000F3FC204610BD00007047000000000000E1
:1086C00000000000000000000000000000000000AA
:1086D00000001FCC000C000000000000000008009B
:1086E000300060000800300060000000022003FC41
:1086F0001E20022003FC1E200220000000000E1895
:1087000011043FFF10840C78000000000F0010845B
:108710000F3800C0077818840078000000780F84B4
:1087200010C411240E9800E40084000808006800BA
:1087300070000000000000000000000000000000C9
:10874000000007E01818200440020000000040026A
:108750002004181807E0000000000000024002405A
:1087600001800FF001800240024000000080008084
:1087700000800FF800800080008000000001000DE4
:10878000000E00000000000000000000000000805B
:108790000080008000800080008000800000000CCD
:1087A000000C0000000000000000000000000006B7
:1087B000001800600180060018002000000007F08B
:1087C000080810041004080807F00000000008045E
:1087D00008041FFC000400040000000000000E0C50
:1087E00010141024104411840E0C000000000C180A
:1087F00010041104110412880C700000000000E045
:108800000320042408241FFC0024000000001F98FB
:10881000108411041104108810700000000007F08B
:1088200008881104110418880070000000001C0062
:10883000100010FC13001C001000000000000E3897
:1088400011441084108411440E3800000000070009
:10885000088C10441044088807F000000000000055
:108860000000030C030C00000000000000000000EA
:108870000001010600000000000000000000008070
:108880000140022004100808100400000220022009
:10889000022002200220022002200000000010041A
:1088A00008080410022001400080000000000E00B3
:1088B0001200100C106C10800F00000003E00C1868
:1088C00013E4142417C4082807D000000004003C57
:1088D00003C41C40074000E4001C000410041FFCFB
:1088E0001104110411040E880070000003E00C183C
:1088F00010041004100410081C10000010041FFCC9
:10890000100410041004080807F0000010041FFCF5
:108910001104110417C410040818000010041FFCEF
:108920001104110017C010000800000003E00C182B
:108930001004100410441C780040000010041FFCB8
:1089400010840080008010841FFC100400001004BC
:1089500010041FFC100410040000000000030001BC
:10896000100110011FFE10001000000010041FFC79
:10897000110403801464181C1004000010041FFC70
:108980001004000400040004000C000010041FFC8C
:108990001F0000FC1F001FFC1004000010041FFC3F
:1089A0000C04030000E010181FFC100007F008087A
:1089B000100410041004080807F0000010041FFC45
:1089C00010841080108010800F00000007F008183D
:1089D00010241024101C080A07F2000010041FFCC9
:1089E0001104110011C011300E0C000400000E1C07
:1089F00011041084108410441C380000180010006A
:108A000010041FFC100410001800000010001FF8D4
:108A100010040004000410041FF8100010001E00D1
:108A200011E0001C007013801C0010001FC0103CDF
:108A300000E01F0000E0103C1FC000001004180CF4
:108A4000163401C001C01634180C100410001C00AC
:108A5000130400FC13041C00100000000804101C88
:108A60001064108413041C0410180000000000009F
:108A700000007FFE40024002400200000000300083
:108A80000C0003800060001C000300000000400296
:108A9000400240027FFE00000000000000000000D5
:108AA00020004000400040002000000000010001C4
:108AB0000001000100010001000100010000400070
:108AC00040002000000000000000000000000098AE
:108AD000012401440144014400FC000410001FFC77
:108AE000008801040104008800700000000000708C
:108AF00000880104010401040088000000000070E7
:108B000000880104010411081FFC0004000000F8A3
:108B1000014401440144014400C800000000010474
:108B200001040FFC1104110411001800000000D60C
:108B300001290129012901C90106000010041FFCB7
:108B4000008401000100010400FC00040000010495
:108B5000190419FC000400040000000000000003D8
:108B600000010101190119FE0000000010041FFCA2
:108B70000024004001B4010C0104000000001004B6
:108B800010041FFC0004000400000000010401FCAC
:108B90000104010001FC0104010000FC010401FCCE
:108BA000008401000100010400FC0004000000F842
:108BB000010401040104010400F80000010101FFA7
:108BC00000850104010400880070000000000070AE
:108BD000008801040104010501FF000101040104F2
:108BE00001FC00840104010001800000000000CCB1
:108BF0000124012401240124019800000000010047
:108C0000010007F80104010400000000010001F860
:108C1000000400040004010801FC000401000180BC
:108C20000170000C001001600180010001F0010CD6
:108C3000003001C00030010C01F00100000001040F
:108C4000018C00740170018C01040000010101819C
:108C50000171000E00180160018001000000018414
:108C6000010C013401440184010C000000000000EB
:108C70000000000001003EFC400240020000000035
:108C800000000000FFFF00000000000000004002A4
:108C900040023EFC010000000000000000006000F7
:108CA0008000800040004000200020000000000004
:108CB0000000000000000000000000003F40000035
:108CC00000000000000030004000300040000000C4
:108CD00009000BC03D000BC03D00090018C0244036
:108CE0007FE0224031800000180024C01B000D806E
:108CF0003240018003801C4027401C800740004018
:108D000010006000000000000000000000000000F3
:108D100000001F80204040200000402020401F8095
:108D200000000000090006001F8006000900000086
:108D3000040004003F8004000400000000100060F4
:108D40000000000000000000040004000400040013
:108D500004000000000000400000000000000000CF
:108D6000002001C006003800400000001F802040A5
:108D7000204020401F800000000010403FC0004005
:108D80000000000018C0214022402440184000008C
:108D900010802040244024401B80000002000D0071
:108DA00011003FC0014000003C802440244024408A
:108DB000238000001F8024402440344003800000B2
:108DC0003000200027C03800200000001B80244015
:108DD000244024401B8000001C0022C0224022406E
:108DE0001F8000000000000008400000000000009C
:108DF000000000000460000000000000000004000B
:108E00000A00110020804040090009000900090003
:108E10000900000000004040208011000A0004000A
:108E20001800200023402400180000001F8020406C
:108E3000274029401F400000004007C039000F00B4
:108E400001C0004020403FC0244024401B8000005F
:108E50001F802040204020403080000020403FC044
:108E6000204020401F80000020403FC024402E4072
:108E700030C0000020403FC024402E0030000000E1
:108E80000F001080204022403380020020403FC06D
:108E9000040004003FC02040204020403FC020404C
:108EA000204000000060202020203FC02000200043
:108EB00020403FC024400B0030C0204020403FC035
:108EC00020400040004000C03FC03C0003C03C00C8
:108ED0003FC0000020403FC00C4023003FC02000A6
:108EE0001F802040204020401F80000020403FC0C5
:108EF00024402400180000001F802140214020E071
:108F00001FA0000020403FC02440260019C00040A0
:108F100018C024402440224031800000300020400E
:108F20003FC020403000000020003F800040004053
:108F30003F80200020003E0001C0070038002000D4
:108F4000380007C03C0007C038000000204039C08E
:108F5000060039C0204000002000384007C03840DB
:108F600020000000304021C02640384020C00000D2
:108F7000000000007FE04020402000000000700062
:108F80000C000380004000000000402040207FE0F3
:108F90000000000000002000400020000000000051
:108FA0000010001000100010001000100000000061
:108FB0004000000000000000000002800540054065
:108FC00003C0004020003FC0044004400380000074
:108FD00000000380044004400640000000000380BD
:108FE000044024403FC0004000000380054005408D
:108FF00003400000000004401FC024402440200023
:10900000000002E0055005500650042020403FC0FB
:109010000440040003C000400000044027C000409A
:109020000000000000100010041027E00000000005
:1090300020403FC00140070004C0044020402040C1
:109040003FC000400040000007C0040007C004000B
:1090500003C00000044007C00440040003C00040F7
:10906000000003800440044003800000041007F067
:1090700004500440038000000000038004400450BA
:1090800007F00010044007C0024004000400000084
:10909000000006400540054004C000000000040038
:1090A0001F8004400040000004000780004004408E
:1090B00007C000400400070004C00180060004004F
:1090C000060001C0070001C006000000044006C001
:1090D000010006C0044000000410071004E00180F5
:1090E000060004000000044005C0064004400000E3
:1090F0000000000004007BE04020000000000000B1
:109100000000FFF000000000000040207BE00400B1
:1091100000000000400080004000200020004000CF
:10912000FFFF000000000000000000000000000041
:10913000000000000000000000000000000000002F
:10914000000000000000000000000000000000001F
:10915000000000000000000000000000000000000F
:1091600000000000000000000000000000000000FF
:1091700000000000000000000000000000000000EF
:1091800000000000000000000000000000000000DF
:1091900000000000000000000000000000000000CF
:1091A00000000000000000000000000000000000BF
:1091B00000000000000000000000000000000000AF
:1091C000000000000000000000000000000000009F
:1091D000000000000000000000000000000000008F
:1091E000000000000000000000000000000000007F
:1091F000000000000000000000000000000000006F
:10920000000000000000000000000000000000005E
:10921000000000000000000000000000000000004E
